:100000000C9463010C948B010C948B010C948B0168
:100010000C948B010C948B010C948B010C948B0130
:100020000C948B010C948B010C948B010C948B0120
:100030000C948B010C948B010C948B010C948B0110
:100040000C94F7170C948B010C9467180C944118BE
:100050000C948B010C948B010C948B010C948B01F0
:100060000C9499180C948B0100C0C101C30302C207
:10007000C60607C705C5C404CC0C0DCD0FCFCE0EE8
:100080000ACACB0BC90908C8D81819D91BDBDA1A58
:100090001EDEDF1FDD1D1CDC14D4D515D71716D6C8
:1000A000D21213D311D1D010F03031F133F3F23238
:1000B00036F6F737F53534F43CFCFD3DFF3F3EFEA8
:1000C000FA3A3BFB39F9F83828E8E929EB2B2AEA18
:1000D000EE2E2FEF2DEDEC2CE42425E527E7E62688
:1000E00022E2E323E12120E0A06061A163A3A262F8
:1000F00066A6A767A56564A46CACAD6DAF6F6EAE68
:10010000AA6A6BAB69A9A86878B8B979BB7B7ABAD7
:10011000BE7E7FBF7DBDBC7CB47475B577B7B67647
:1001200072B2B373B17170B05090915193535292B7
:1001300096565797559594549C5C5D9D5F9F9E5E27
:100140005A9A9B5B99595898884849894B8B8A4A97
:100150004E8E8F4F8D4D4C8C448485458747468607
:10016000824243834181804000C1814001C080417F
:1001700001C0804100C1814001C0804100C1814077
:1001800000C1814001C0804101C0804100C1814067
:1001900000C1814001C0804100C1814001C0804157
:1001A00001C0804100C1814001C0804100C1814047
:1001B00000C1814001C0804100C1814001C0804137
:1001C00001C0804100C1814000C1814001C0804127
:1001D00001C0804100C1814001C0804100C1814017
:1001E00000C1814001C0804101C0804100C1814007
:1001F00000C1814001C0804100C1814001C08041F7
:1002000001C0804100C1814000C1814001C08041E6
:1002100001C0804100C1814001C0804100C18140D6
:1002200000C1814001C0804100C1814001C08041C6
:1002300001C0804100C1814001C0804100C18140B6
:1002400000C1814001C0804101C0804100C18140A6
:1002500000C1814001C0804100C1814001C0804196
:1002600001C0804100C1814000000000240027003F
:100270002A000000000023002600290000000008DA
:10028000000201000003040700000000000000005D
:10029000010204081020408001020408102001021D
:1002A0000408102000000000250028002B00040492
:1002B000040404040404020202020202030303030E
:1002C0000303CB19B81911241FBECFEFD8E0DEBF4E
:1002D000CDBF26E0A4EAB4E001C01D92A23EB20761
:1002E000E1F714E0A0E0B1E0EAE8FAE502C0059029
:1002F0000D92A43AB107D9F711E0C2E6D1E004C0EB
:100300002197FE010E940026C136D107C9F70E943D
:10031000C81A0C94382D0C940000FC019081909523
:1003200028E030E081E397FF03C0990F982701C0D0
:10033000990F21503109B9F78181892728E030E0F0
:1003400091E387FF03C0880F892701C0880F2150E0
:100350003109B9F708952091BE063091BF06821782
:1003600093074CF04091BC065091BD06420F531FBD
:10037000841795074CF084EE9BE29093D706809308
:10038000D60690E080E00895821B930B2091CC0666
:100390003091CD06820F931FFC01608381E090E0D5
:1003A00008952091CA063091CB06821793074CF02E
:1003B0004091C8065091C906420F531F84179507F4
:1003C00054F084EE9BE29093D7068093D6066FEFAD
:1003D0007FEFCB010895821B930B880F991F20910B
:1003E000D2063091D306820F931FFC016081718188
:1003F00090E080E0089581E00895FC01808D8823DD
:1004000049F084859585DC01ED91FC910190F081A6
:10041000E02D099481E090E09383828390E080E076
:100420000895DC011C968D919C91DC01ED91FC916D
:100430000680F781E02D0994DC011C968D919C913A
:10044000DC01ED91FC910284F385E02D0994DC013F
:100450001C968D919C91DC01ED91FC910484F585B5
:10046000E02D0994DC011C968D919C91DC01ED91AD
:10047000FC910084F185E02D0994EF92FF920F9397
:100480001F93DC01ED91FC910488F589E02DA2E336
:10049000EA2EF12C02E310E009951F910F91FF90D5
:1004A000EF900895EF92FF920F931F93DC01ED916F
:1004B000FC910488F589E02D7801890126E030E07F
:1004C00009951F910F91FF90EF900895EF92FF9281
:1004D0000F931F93DC01ED91FC910488F589E02DC9
:1004E00022E3E22EF12C02E310E026E030E0099551
:1004F0001F910F91FF90EF900895833081F028F4C1
:10050000813099F08230A9F008958730A9F08830C1
:10051000C9F08430B1F4809180008F7D03C0809158
:1005200080008F7780938000089584B58F7784BD95
:10053000089584B58F7DFBCF8091B0008F77809335
:10054000B00008958091B0008F7DF9CFCF93DF93F5
:10055000282F30E0F901E458FD4F8491F901E0576C
:10056000FD4FD491F901E255FD4FC491CC23A1F088
:1005700081110E947D02EC2FF0E0EE0FFF1FEE587C
:10058000FD4FA591B491EC91ED2381E090E009F449
:1005900080E0DF91CF91089580E090E0FACF1F9343
:1005A000CF93DF93282F30E0F901E458FD4F849179
:1005B000F901E057FD4FD491F901E255FD4FC49187
:1005C000CC23A9F0162F81110E947D02EC2FF0E0C0
:1005D000EE0FFF1FEC55FD4FA591B4918FB7F89426
:1005E000EC91111108C0D095DE23DC938FBFDF9111
:1005F000CF911F910895DE2BF8CFCF93DF9390E03A
:10060000FC01E057FD4F249182559D4FFC018491E0
:100610008823D1F090E0880F991FFC01E859FD4F25
:10062000A591B491FC01EC55FD4FC591D491611198
:100630000EC09FB7F8948C91E22FE0958E238C9397
:100640002881E223E8839FBFDF91CF9108958FB780
:10065000F894EC91E22BEC938FBFF6CF0F931F939E
:10066000CF93DF938C01FC01C485D585E881F981A6
:100670000680F781E02DCE010995EA89FB8980810A
:100680008F7E8083EA89FB898081877F8083EA89E6
:10069000FB8980818F778083EA89FB8980818F7DC8
:1006A00080838A8D898FF8018289938997FD08C09C
:1006B00060E00E94CF0260E0F80180890E94FD02A4
:1006C000F8018089918997FD0CC060E00E94CF02FB
:1006D00060E0F8018289DF91CF911F910F910C9416
:1006E000FD02DF91CF911F910F9108958230910506
:1006F00038F0880F991F880F991F05970197F1F718
:1007000008953FB7F8948091640590916505A09194
:100710006605B091670526B5A89B05C02F3F19F067
:100720000196A11DB11D3FBFBA2FA92F982F882771
:10073000BC01CD01620F711D811D911D42E0660F4C
:10074000771F881F991F4A95D1F708958F929F921E
:10075000AF92BF92CF92DF92EF92FF926B017C013A
:100760000E9481034B015C01C114D104E104F10436
:10077000B9F00E948103681979098A099B09683ECA
:1007800073408105910580F321E0C21AD108E10888
:10079000F10888EE880E83E0981EA11CB11CE4CFFE
:1007A000FF90EF90DF90CF90BF90AF909F908F9091
:1007B00008952FB7F894609160057091610580915C
:1007C0006205909163052FBF089508950895AF9233
:1007D000BF92CF92DF92EF92FF920F931F93CF932E
:1007E000DF936C017B018B01040F151FEB015E0190
:1007F000AE18BF08C017D10759F06991D601ED9125
:10080000FC910190F081E02DC6010995892B79F7C3
:10081000C501DF91CF911F910F91FF90EF90DF9075
:10082000CF90BF90AF900895FC01538D448D252F3C
:1008300030E0842F90E0821B930B541710F0CF967A
:10084000089501970895FC01918D828D981761F0AC
:10085000A28DAE0FBF2FB11D5D968C91928D9F5FC3
:100860009F73928F90E008958FEF9FEF0895FC01A2
:10087000918D828D981731F0828DE80FF11D858D55
:1008800090E008958FEF9FEF0895FC01918D228DE8
:10089000892F90E0805C9F4F821B91098F7399276D
:1008A00008958AED95E00E94450421E0892B09F422
:1008B00020E0822F089580E090E0892B29F00E94AB
:1008C000510481110C9400000895CF92DF92EF92B1
:1008D000FF921F93CF93DF93EC016A017B01122FEC
:1008E000E889F98982E08083C11481EED806E104A9
:1008F000F104A1F060E079E08DE390E0A7019601BA
:100900000E94BF252150310941095109569547954B
:1009100037952795211580E1380798F0E889F989FE
:10092000108260E874E88EE190E0A70196010E94D1
:10093000BF252150310941095109569547953795F1
:100940002795EC85FD853083EE85FF852083188E05
:10095000EC89FD891083EA89FB898081806180832D
:10096000EA89FB89808188608083EA89FB898081AC
:1009700080688083EA89FB8980818F7D8083DF9115
:10098000CF911F91FF90EF90DF90CF9008958F92BD
:100990009F92AF92BF92DF92EF92FF920F931F93BD
:1009A000CF93DF93EC014A015B01D22E898E9A8EA0
:1009B000AB8EBC8E2D8F3E8F8C899D89009709F060
:1009C0008C010C8B1D8B8E899F89009709F07C010F
:1009D000EE8AFF8A8889998997FD07C061E00E94A5
:1009E000FD0260E088890E94CF028A899B8997FD79
:1009F00007C061E00E94FD0261E08A890E94CF0287
:100A0000188E2D2DB501A4018C859D85DF91CF9188
:100A10001F910F91FF90EF90DF90BF90AF909F904C
:100A20008F900C946504FC01A48DA80FB92FB11D03
:100A3000A35ABF4F2C91848D90E001968F73992714
:100A4000848FA689B7892C93A089B1898C918370F2
:100A500080648C93938D848D981306C00288F389EB
:100A6000E02D80818F7D80830895EF92FF920F9318
:100A70001F93CF93DF93EC0181E0888F9B8D8C8D4A
:100A800098131AC0E889F989808185FF15C09FB73E
:100A9000F894EE89FF896083E889F9898081837001
:100AA000806480839FBF81E090E0DF91CF911F91B0
:100AB0000F91FF90EF900895F62E0B8D10E00F5FD1
:100AC0001F4F0F731127E02E8C8D8E110CC00FB6A7
:100AD00007FCFACFE889F989808185FFF5CFCE013F
:100AE0000E941305F1CFEB8DEC0FFD2FF11DE35AA2
:100AF000FF4FF0829FB7F8940B8FEA89FB898081C2
:100B00008062CFCFCF93DF93EC01888D8823B9F03B
:100B1000AA89BB89E889F9898C9185FD03C0808108
:100B200086FD0DC00FB607FCF7CF8C9185FFF2CF85
:100B3000808185FFEDCFCE010E941305E9CFDF91C3
:100B4000CF9108952091DF04260F3327331F2132E0
:100B50003105ECF42091B005FC0190E080E02430F8
:100B600069F082E00895A091DF042191AC01415425
:100B70005B4FA40FB52FB11D2C930196861798F3E8
:100B80008091DF04680F6093DF0480E0089581E0C6
:100B900008951092B00581E08093AF0510928A0508
:100BA00061E082E10E94CF0261E083E10E94CF0216
:100BB000E9EBF0E080818E7F808380818D7F808370
:100BC00088E48093B80085E48093BC000895CF93B7
:100BD000DF9391E09093BE048823B9F0C091B800F0
:100BE000D091BA008091BC008A7B8093BC0060E009
:100BF00082E10E94CF0260E083E10E94CF020E9466
:100C0000C905D093BA00C093B800DF91CF91089581
:100C1000CF92DF92EF92FF920F931F93CF93DF93C8
:100C2000D091D90581E0D13208F09CC0C091D8059F
:100C30000E9481036B017C018091B00581116CC021
:100C400082E08093B00581E08093AF058FEF8093C1
:100C5000AE051092AD05D093AC05A8EBB5E0ECE87D
:100C6000F5E080E0D8138DC010928B0580918B0544
:100C7000CC0FC82BC0938B0580918A05813009F079
:100C800084C010928A050E9481036B017C018091CF
:100C90008B058093BB008091B2059091B305A09124
:100CA000B405B091B505892B8A2B8B2BA1F00E943E
:100CB00081030091B2051091B3052091B4053091E4
:100CC000B5056C197D098E099F09061717072807B6
:100CD000390708F442C08091BC0083FDD8CF85EC71
:100CE0008093BC000E9481036B017C018091B00560
:100CF000823009F44CC08091AE058F3F09F469C081
:100D00008091AE05803209F466C08091AE058033D3
:100D100009F463C084E026C08091B2059091B305C8
:100D2000A091B405B091B505892B8A2B8B2B09F4C2
:100D300083CF0E9481030091B2051091B3052091E9
:100D4000B4053091B5056C197D098E099F09061708
:100D500017072807390708F06FCF8091B1050E9467
:100D6000E70585E01092B7051092D9051092B605F7
:100D7000DF91CF911F910F91FF90EF90DF90CF9077
:100D800008959D9191938F5F6DCF85EEA9CF80914E
:100D9000B2059091B305A091B405B091B505892B2A
:100DA0008A2B8B2B09F4A2CF0E9481030091B205FC
:100DB0001091B3052091B4053091B5056C197D09EA
:100DC0008E099F09061717072807390708F08ECFE5
:100DD000C4CF80E0C7CF82E0C5CF83E0C3CFCF923E
:100DE000DF92EF92FF920F931F93CF93DF93D82F51
:100DF000C62F613208F098C00E9481036B017C010C
:100E00008091B00581116BC081E08093B005809323
:100E1000AF059FEF9093AE051092AD059C0F909398
:100E2000AC0580938B0580918B05DD0FD82BD0937B
:100E30008B0580918A05813009F078C010928A056F
:100E40000E9481036B017C0180918B058093BB0024
:100E50008091B2059091B305A091B405B091B5050C
:100E6000892B8A2B8B2BA1F00E9481030091B20564
:100E70001091B3052091B4053091B5056C197D0929
:100E80008E099F09061717072807390708F448C075
:100E90008091BC0083FDD8CF85EC8093BC000E947C
:100EA00081036B017C018091B005813009F440C061
:100EB0008091AD058C1710F4C091AD05ECE8F5E01C
:100EC000AAE6B5E080E08C1355C08C2FDF91CF915E
:100ED0001F910F91FF90EF90DF90CF900895809138
:100EE000B2059091B305A091B405B091B505892BD9
:100EF0008A2B8B2B09F484CF0E9481030091B205C9
:100F00001091B3052091B4053091B5056C197D0998
:100F10008E099F09061717072807390708F070CFB1
:100F20008091B1050E94E705C0E0CFCF85EEB5CF37
:100F30008091B2059091B305A091B405B091B5052B
:100F4000892B8A2B8B2B09F4AECF0E948103009151
:100F5000B2051091B3052091B4053091B5056C1917
:100F60007D098E099F09061717072807390708F01A
:100F70009ACFD6CF91919D938F5FA5CF0895E091A1
:100F8000690580916805E81730F4F0E0E659FA4FFA
:100F9000808190E008958FEF9FEF0895909169050B
:100FA000809168052FEF3FEF981748F4E92FF0E0A4
:100FB000E659FA4F208130E09F5F90936905C9019F
:100FC00008958091680590916905891B990B089592
:100FD000CF92DF92EF92FF920F931F93CF93DF9305
:100FE0007C01CB018A012091B605222389F0EB0117
:100FF0006B01C40ED51ECC15DD0569F06991D701D2
:10100000ED91FC910190F081E02DC7010995F3CF9E
:10101000642F0E94A205C801DF91CF911F910F910B
:10102000FF90EF90DF90CF900895CF93DF931F92C2
:10103000CDB7DEB769832091B6052223F9F0209160
:10104000D905203258F021E030E0FC0133832283BF
:1010500090E080E00F90DF91CF9108958091B705E7
:10106000E82FF0E0E854FA4F998190838F5F8093E6
:10107000B7058093D90581E090E0ECCF61E0CE0127
:1010800001960E94A205F7CF90E080E008950097B6
:1010900041F0DC015896ED91FC9104A0F5A1E02D02
:1010A00009940895009741F0DC015896ED91FC9168
:1010B000068CF78DE02D09940895009741F0DC012E
:1010C0005896ED91FC91048CF58DE02D099486E104
:1010D00090E09093D7068093D6068FEF9FEF089508
:1010E000009741F0DC015896ED91FC9100A0F1A130
:1010F000E02D099486E190E09093D7068093D60680
:101100008FEF9FEF0895CF93DF93EC01288539850A
:101110004A855B85A8EEB3E00E945E250E94A60387
:101120008C859D85DF91CF910C9476032F923F9211
:101130004F925F926F927F928F929F92AF92BF92E7
:10114000CF92DF92EF92FF920F931F93CF93DF9393
:10115000CDB7DEB72A970FB6F894DEBF0FBECDBF6E
:101160007C013B012A01DC015896ED91FC915997D5
:10117000028113810F5F1F4F312C212C452BB1F0C1
:1011800018968D919D910D90BC91A02D89839A8385
:10119000AB83BC83F70184859585A685B7858D8350
:1011A0009E83AF83B887CE0101961C01D12CC12C40
:1011B000912C812CD7015896ED91FC9101151105C8
:1011C00049F4008CF18DE02DA401B301C70109950C
:1011D0005C0129C002A0F3A1E02D9801A101BE018C
:1011E000675F7F4FC70109955C01D7019FEFA91683
:1011F000B906F1F516968C9181FD04C0AA24AA9433
:10120000BA2C11C00091D6061091D70604371105EB
:1012100021F5C7010E948308C7010E94700810933E
:10122000D7060093D606C5012A960FB6F894DEBFFE
:101230000FBECDBFDF91CF911F910F91FF90EF9027
:10124000DF90CF90BF90AF909F908F907F906F90E6
:101250005F904F903F902F900895023FBDE21B0793
:10126000F1F6C7010E945208C7010E945D08D7CF5E
:101270005896ED91FC910688F789E02DA801B301FD
:10128000680D791DC70109956115710509F582EF92
:101290009DE29093D7068093D606F701868181FF61
:1012A000ADCF0091D6061091D706023FFDE21F0791
:1012B00021F00F36110509F0A1CFC7010E94520895
:1012C000C7010E945D081093D7060093D60696CFFB
:1012D0006F3F760711F3860E971E061B170B09F05A
:1012E00099C0D7015896ED91FC91C114D10441F0F9
:1012F000CA94CD2809F457C082E0C82ED12C5ACF09
:10130000A281B381A60DB71D8C9141145104B9F48B
:1013100090E087309105D4F09C012F5031092230A4
:10132000310508F47CC08631910509F47EC04797E9
:10133000D1F5CC24C394D12C09E010E015C0813143
:1013400058F48F3018F48550823048F4CC24C3947C
:10135000D12C04E010E008C0863109F466C0CC242A
:10136000C394D12C01E010E0F701408951896289D2
:10137000738984899589A689B789411551056105C5
:10138000710529F40097A105B10509F413CF49832C
:101390005A836B837C838D839E83AF83B887CE0112
:1013A00001961C0107CFA281B381A60DB71D8C91B8
:1013B0004114510401F58F3020F08131A8F08731BC
:1013C000B9F084819581080F191F9401200F311FF6
:1013D0008681978182179307D4F48FEE9BE29093D6
:1013E000D7068093D6060ACF15960C9110E0E9CF68
:1013F00019960C91FBCF90E0853091052CF081314E
:10140000910511F04797E9F611960C91EFCF52E054
:10141000C52ED12C101611060CF4A6CFCBCECC24A1
:10142000C394D12C05E010E09FCFCC24C394D12CE1
:1014300006E010E099CF6F927F928F929F92AF92C9
:10144000BF92CF92DF92EF92FF920F931F93CF93B1
:10145000DF93FA018901DC015A966D907C90C12CD2
:10146000D12C76013097C1F02081318142815381A6
:10147000A8EEB3E00E945E256B017C01648175815A
:101480008681978128EE33E040E050E00E94BF253E
:10149000C20ED31EE41EF51E0E94D9034B015C014F
:1014A000F30186819781DC01ED91FC910084F18547
:1014B000E02D0995EC01801791075CF40E94D90397
:1014C000681979098A099B096C157D058E059F05A8
:1014D00038F3209741F484E790E09093D706809307
:1014E000D606CFEFDFEFCE01DF91CF911F910F91A5
:1014F000FF90EF90DF90CF90BF90AF909F908F9034
:101500007F906F900895CF93DF93DC015A96CD9131
:10151000DC918E819F81DC01ED91FC910084F1854D
:10152000E02D0995892B51F08E819F81DC01ED9191
:10153000FC910284F385E02D0995EBCF90E080E0EB
:10154000DF91CF910895CF93DF93DC015A96CD912F
:10155000DC91EE81FF818289938997FD03C061E070
:101560000E94CF028E819F81DC01ED91FC91068863
:10157000F789E02DDF91CF910994CF93DF93DC01C0
:101580005A96CD91DC918E819F812C813D8148813D
:1015900059816A817B81DC01ED91FC910088F189A0
:1015A000E02D0995EE81FF818289938997FD03C023
:1015B00060E00E94CF0290E080E0DF91CF9108953B
:1015C000FB018081FA019081891759F0882349F045
:1015D00083EF9BE29093D7068093D6068FEF9FEF21
:1015E000089590E080E008958F929F92AF92BF920D
:1015F000CF92DF92EF92FF920F931F93CF93DF93DF
:101600006A01DC015A96ED91FC91068117817B01FC
:10161000D0E0C0E0CC15DD0528F50E94D903F80123
:101620006087718782879387D801ED91FC9102844E
:10163000F385E02DC801099597FF24C00E94D903C6
:10164000F80180849184A284B384681979098A0995
:101650009B0984809580A680B780681579058A05E6
:101660009B0510F3BE0190E080E0DF91CF911F91C8
:101670000F91FF90EF90DF90CF90BF90AF909F9031
:101680008F900895D7018D937D012196C3CFCF937D
:10169000DF93FC01C28DD38D28853985232B59F02A
:1016A00041E050E00E9496081986188690E080E09C
:1016B000DF91CF91089550E040E00E949608009796
:1016C000B9F721E030E039872887F2CFCF92DF9257
:1016D000EF92FF920F931F93CF93DF937B016A01E9
:1016E000DC015A96CD91DC91EE81FF81828993894C
:1016F00097FD03C061E00E94CF020E811F81F801B7
:101700008089918997FD0BC061E00E94CF02D801CA
:1017100054968D919C91009711F00E94760381E080
:10172000F801808F8E819F81DC01ED91FC91028018
:10173000F381E02DA601B70109956C01F12CE12C94
:101740000E811F81F80184859585DC01ED91FC9166
:101750000680F781E02D0995F8018089918997FD30
:101760000CC086899789009711F00E94760360E08B
:10177000D80150968C910E94CF02F801108EEE8114
:10178000FF818289938997FD03C060E00E94CF02A8
:10179000C701B601DF91CF911F910F91FF90EF909C
:1017A000DF90CF900895FB01808191810297918312
:1017B000808390E080E00895DC01680F791F8FEF4F
:1017C0009FEFA617B70769F02D91292730E0F9019F
:1017D000E859FE4F94919827F901E859FF4F8491F9
:1017E000F0CF0895EF92FF920F931F93CF93DF9363
:1017F0007C01EB018A01888190E0F7012081318131
:101800002817390711F0892B51F5B8016250710979
:10181000CE010E94DC0BC00FD11FFE013297208148
:10182000219738812327322723278217930779F0BE
:10183000F701868182FF03C0C7010E94830A8EEEF2
:101840009BE29093D7068093D6060FEF1FEFC80157
:10185000DF91CF911F910F91FF90EF90089510E0CD
:1018600000E0F5CF0F931F93CF93DF93EC018B0133
:101870000E94DC0BC00FD11F98838983C801029698
:10188000DF91CF911F910F910895FC012081FB0101
:101890002083FC018281FB01818382E090E0089536
:1018A000683F710530F4FC017183608390E080E053
:1018B000089586E190E09093D7068093D6068FEF47
:1018C0009FEF0895CF92DF92EF92FF920F931F93B5
:1018D0008091B8049091B904880F991FFC01EC55D0
:1018E000FB4F00811181012E000C220B330B409124
:1018F000BA045091BB046091BC047091BD04401BBC
:10190000510B620B730B4093BA045093BB0460936A
:10191000BC047093BD0423E420937C0020917A00E2
:10192000206420937A0020917A0026FDFCCF30912C
:101930007800209179008C559B4F2327322723274D
:10194000FC01318320832091B8043091B904F9015E
:10195000EE0FFF1FEC55FB4F60817181072E000CCD
:10196000880B990BC090BA04D090BB04E090BC04E3
:10197000F090BD046C0D7D1D8E1D9F1D6093BA04FB
:101980007093BB048093BC049093BD042F5F3F4FC2
:101990002A3031054CF53093B9042093B8042AE07D
:1019A00030E040E050E00E94E125CA01B9010E9408
:1019B0004F2423E333E343E55BE30E948A2420E0E2
:1019C00030E040EA50E40E948A2460930B05709353
:1019D0000C0580930D0590930E051F910F91FF90BC
:1019E000EF90DF90CF9008951092B9041092B80450
:1019F000D6CFCF92DF92EF92FF920F931F93CF93A8
:101A0000DF93CDB7DEB729970FB6F894DEBF0FBED0
:101A1000CDBF962F2091A4063091A506232B09F463
:101A200044C050E070E060E0592B682B8B01222706
:101A30003327C52ED62EE72EFF24BC2DA42F809150
:101A4000AA06882391F0A82FB0E0A09FF001A19FE3
:101A5000F00DB09FF00D11240F2F8C9D600111240B
:101A6000BD2D849FA0011124A52FE091B006809187
:101A7000AB069091AC062091AD06E21721F0E80F7D
:101A8000F92FF11D1082E091AD06E80FF92FF11D3D
:101A90000083E091AE06E80FF92FF11DB08320918D
:101AA000AF06820F911DFC01A0838091AB0690913F
:101AB000AC06892B09F47CC00E9481030091B10619
:101AC0001091B2062091B3063091B40660177107E9
:101AD0008207930740F46093B1067093B206809337
:101AE000B3069093B4060091B1061091B20620910E
:101AF000B3063091B406601B710B820B930B6C32F2
:101B0000714081059105C0F2F8948091A6069091EC
:101B1000A7069A838983E091AB06F091AC06DF01BA
:101B20001196808189879091A206E091B506F09187
:101B3000B6068091B706992309F449C09081982B85
:101B400098879081809589238F838F818C8388E00B
:101B50008B8358856F8149853B812C8189819A814E
:101B6000508347FD252F3A952083262F39F0441FB7
:101B700000C000006083000000C0F2CF38E04D914B
:101B800060830000019761F7F093B606E093B50615
:101B900049873B832C839A83898378940E948103AD
:101BA0006093B1067093B2068093B3069093B40627
:101BB00029960FB6F894DEBF0FBECDBFDF91CF914F
:101BC0001F910F91FF90EF90DF90CF90089590813B
:101BD000982B98879081809589238F838F818E831E
:101BE00088E08D8358856F8149853D812E8189816B
:101BF0009A81508347FD252F00C000C0208300C07C
:101C000000C000C000C000C060830000262F3A95CD
:101C100041F0441F000000C000C000C000C000C070
:101C2000E8CF38E04D9100C0608300C0019709F70C
:101C3000F093B606E093B50649873D832E83ABCF7C
:101C4000CF93C62F91E09093B60599E29093D80573
:101C50001092B7051092D905682F87E796E00E9489
:101C600015086C2F87E796E00E941508CF910C9419
:101C70000806CF93C62F9091060521E02093B60564
:101C80009093D8051092B7051092D905682F87E771
:101C900096E00E9415086C2F87E796E00E941508D1
:101CA000CF910C940806CF93DF93EC018A8D9B8D26
:101CB0000E945F29CE01DF91CF910C945F29CF93D1
:101CC000DF93EC0185EB91E0998388838C899D8972
:101CD000009711F00E945F298E899F89009711F06B
:101CE0000E945F29888D998D009711F00E945F29CD
:101CF0008A8D9B8D009711F00E945F298A819B81BC
:101D0000009721F0DF91CF910C944708DF91CF919C
:101D10000895CF93DF93EC010E945F0ECE01DF9117
:101D2000CF910C945F29613208F060E20E94EF06C7
:101D300010926905809368050895CF9391E0909380
:101D4000B60599E29093D8051092B7051092D9057F
:101D5000682F87E796E00E9415080E94080662E057
:101D600070E089E290E00E94930E87E796E00E947F
:101D7000CE07C82F87E796E00E94CE0720E0382FD5
:101D8000C9018C2BCF910895CF93C091060591E0A6
:101D90009093B605C093D8051092B7051092D90557
:101DA000682F87E796E00E9415080E94080661E008
:101DB00070E08C2FCC0F990B0E94930E87E796E072
:101DC0000E94CE07CF910895CF93C82F843008F09A
:101DD000C0E084EF0E94C40E8C7F6C2F682B84EFD0
:101DE000CF910C94390EFF920F931F93CF93DF93F3
:101DF000082FF92E142FC091060581E08093B605B7
:101E0000C093D8051092B7051092D90587E796E0E0
:101E10000E9415080E940806612F70E08C2FCC0FDD
:101E2000990B0E94930EC02FDF2D90916805809131
:101E30006905981751F08C2F801B811730F487E7C4
:101E400096E00E94CE078993F0CFDF91CF911F914A
:101E50000F91FF9008950F931F93CF93DF930091FD
:101E6000D4061091D5068CE190E00E94C328EC01C5
:101E70008FEF9FEF998388839B838A831D821C82C7
:101E80001F821E82188619861A861B8680E291EAB6
:101E9000A7E0B0E08C879D87AE87BF87188A198A34
:101EA0001A8A1B8A8C8B9D8BAE8BBF8B89E491E049
:101EB000998F888F8AE090E00E94C328FC019B8F55
:101EC0008A8F1783068380E096E9A0E0B0E08083E4
:101ED0009183A283B38386E090E095838483118607
:101EE00010868091CC069091CD06009711F00E944B
:101EF0005F298091CE069091CF06009711F00E9445
:101F00005F298091D0069091D106009711F00E9430
:101F10005F298091D2069091D306009711F00E941C
:101F20005F29ECEBF6E088E1DF011D928A95E9F785
:101F30008091BA069091BB06009741F00E9452082A
:101F40008091BA069091BB060E944708D093BB06C9
:101F5000C093BA0690E080E0209771F0E88DF98D8B
:101F60000084F185E02D60E170E0CE010995CE019D
:101F70000E945D0881E090E0DF91CF911F910F9169
:101F80000895FC0101900020E9F73197AF01481B4B
:101F9000590BBC018AED95E00C94E7038F929F9258
:101FA000AF92BF920F931F93CF93DF93CDB7DEB75E
:101FB000A1970FB6F894DEBF0FBECDBF19A2423075
:101FC00008F44AE08E010F5D1F4F842E912CB12C36
:101FD000A12CA50194010E94BF25E62FB901CA01D9
:101FE000EA30F4F4E05DD801EE938D01232B242B2D
:101FF000252B79F790E080E0109719F0CD010E9431
:10200000C10FA1960FB6F894DEBF0FBECDBFDF9112
:10201000CF911F910F91BF90AF909F908F90089597
:10202000E95CE1CFCF93DF930E94C10FEC0185EC17
:1020300091E00E94C10F8C0F9D1FDF91CF910895F9
:10204000CF93DF93BC0190E080E04AE00E94CE0F86
:10205000EC0185EC91E00E94C10F8C0F9D1FDF9178
:10206000CF910895CF92DF92EF92FF92CF93DF93BB
:102070006C01990FEE08FF08F7FE1FC06DE28AEDB4
:1020800095E00E943505EC0166277727CB016C1996
:102090007D098E099F094AE00E94CE0FC80FD91F03
:1020A00085EC91E00E94C10F8C0F9D1FDF91CF91B5
:1020B000FF90EF90DF90CF9008954AE0C701B601FE
:1020C0000E94CE0FEC01ECCF2091C6063091C706DE
:1020D000821793074CF04091C4065091C506420FF9
:1020E000531F841795074CF084EE9BE29093D7061C
:1020F0008093D60690E080E00895821B930B880FB2
:10210000991F2091D0063091D106820F931FFC01B8
:102110007183608381E090E008950E94A52A0F9367
:102120001F93F801DC018D919C918F3F980711F46A
:102130000E94A52A8083618352834383348325834D
:1021400086E090E01F910F91089585ED8093BC008B
:102150008091B2059091B305A091B405B091B505F9
:102160000796A11DB11D23E0B695A7959795879574
:102170002A95D1F72091BC0024FD03C01092B00530
:1021800008954091B2055091B3056091B4057091E6
:10219000B505452B462B472B69F30097A105B105E3
:1021A00041F025E32A95F1F700000197A109B10953
:1021B000E1CF8091B1050C94E705BF92CF92DF92F9
:1021C000EF92FF920F931F93CF93DF93CDB7DEB7BC
:1021D000EC84FD84CE84DF84B8880A891B89D7010A
:1021E00014968D919C91892B59F0AE01485E5F4FFA
:1021F0006E897F898091DC069091DD060E94BA2A63
:102200008C899D89892B31F0C7010E948308C70101
:102210000E947008F6018281938180589F4F9383BA
:102220008283D7015896ED91FC910484F585E02DC9
:10223000B801C6010995F801E80FF91FB0820196AF
:10224000DF91CF911F910F91FF90EF90DF90CF9092
:10225000BF9008952F923F924F925F926F927F921C
:102260008F929F92AF92BF92CF92DF92EF92FF92A6
:102270000F931F93CF93DF93CDB7DEB7C055D140F7
:102280000FB6F894DEBF0FBECDBFFC01A281B381B3
:10229000109701F586E190E09093D7068093D606DB
:1022A000C05BDE4F0FB6F894DEBF0FBECDBFDF912F
:1022B000CF911F910F91FF90EF90DF90CF90BF9043
:1022C000AF909F908F907F906F905F904F903F90D6
:1022D0002F9008955C015896ED91FC9159970488D0
:1022E000F589E02D9E012F5F3F4F7901B901CD01A6
:1022F000099518161906A4F6D50112964D905C9012
:10230000CD5BDE4F99838883C354D140411451047F
:1023100009F2D2015896ED91FC91C280D380DE0182
:10232000AC0DBD1D8C91282F30E0C55BDE4F39838D
:102330002883CB54D140A7014C0D5D1DC95BDE4FF6
:1023400059834883C754D140DA017C90072D10E0AF
:10235000DE01AC0DBD1D12962C90312C322C2224A6
:10236000DE01AC0DBD1D13968C91280E311C4E0163
:10237000B3EC8B1ABEEF9B0AD40111963C932E93BB
:1023800013961C930E9312970684F785E02DBE01D9
:102390006D5B7E4FC7010995F40195838483EFEF50
:1023A000E70DE73108F006C5F0E0E752FE4E0C9469
:1023B0000026F011F0110C130C139613EF134615B1
:1023C000DA16DA16DA16DA16DA16DA16DA16211448
:1023D000BE141915DA16DA16DA16DA1649158D153D
:1023E0000230110509F046C0D5011A964D915C9155
:1023F0001B9718962D913C91199756966D907C904D
:1024000082ED91E0FE01EC0DFD1DE480F12CFE2C2F
:10241000EE24FE01EC0DFD1D6581E60EF11CB701F9
:1024200061507109DE01AF5FBE4F6D01603D7740C5
:1024300058F127E02F9320ED2F939F938F93FF92D6
:10244000EF9286E092E09F938F931F9281E08F93AB
:10245000DF92CF921F9283E08F939F928F925F9231
:102460004F920E94DD108C010FB6F894DEBF0FBEB4
:10247000CDBF66C0F50146815781248135816488CE
:10248000758888EC91E0BECF5101A41AB50AB7FC5B
:102490000EC0A7014A0D5B1DC95BDE4F59834883FF
:1024A000C754D140241735078CF42E0C3F1C9F9342
:1024B0008F933F922F928EE292E09F938F931F9281
:1024C0001F92DF92CF921F9282E081C1D201589673
:1024D000ED91FC910484F585E02DB601C4010995C8
:1024E0008C010F5F1F4F8C0D9D1D21E0A7014770D0
:1024F0005527452B09F420E0F3E0F594E794FA958D
:10250000E1F7E20EFC01E082F301EA0DFB1D30E091
:1025100020E090E080E0AF0146195709C95BDE4F2B
:1025200068817981C754D140461757070CF45EC0C3
:10253000892B31F0F601E00FF11F20830F5F1F4F51
:10254000C55BDE4FE881F981CB54D140EF2B09F414
:10255000A7CED2015896ED91FC910088F189E02D2B
:10256000B801CE018F5F9E4F09958C01D20158961C
:10257000ED91FC910288F389E02DA801BE016F5F07
:102580007E4FC20109957B016F3F7F4FD9F4F20165
:10259000868181FF17C0C090D606D090D706C201B1
:1025A000F2EFCF16FDE2DF0609F014C40E945208D4
:1025B000C2010E948308C2010E945D08D092D70622
:1025C000C092D606D20116968C9181FF04C0BFEF4F
:1025D000EB16FB0659F21E141F040CF061CE0E150B
:1025E0001F0509F45DCE8FEE9BE256CE419150E07F
:1025F000082E02C0440F551F0A94E2F7242B352BF6
:102600008730910539F4D601A00FB11F2C930F5FCD
:102610001F4F7DCF01967FCF04301105B1F5D50155
:102620001E964D915C911F971C962D913C911D9784
:1026300058966D907C9082EE91E0FE01EC0DFD1DB0
:10264000048110E0102F0027FE01EC0DFD1D6581B7
:10265000060F111DB80161507109DE01AF5FBE4F59
:102660007D016D377105D8F01F922DE72F939F9351
:102670008F931F930F9386E092E09F938F931F9207
:1026800081E08F93FF92AF93E5CEF50142895389A4
:1026900020893189628C738C87EF91E0CECF610104
:1026A000C41AD50A5601D7FC07C0C00ED11E2C157E
:1026B0003D057CF4200E311E9F938F933F922F9205
:1026C0008EE292E09F938F931F921F92FF92EF9260
:1026D000FACED2015896ED91FC910484F585E02D57
:1026E000B701C4010995F701E80FF91F000F008336
:1026F0009501220F331F260D371D0196F701E80FB4
:10270000F91F8F010E191F09AC14BD040CF018CF6E
:10271000D90111968C9111972E5F3F4F80838C9138
:102720008183BFEFAB1ABB0A3296EBCFF5018681EE
:102730009781A101481B590BCE018F5F9E4F57FD1A
:1027400005C024813581421753074CF03F922F92E8
:1027500020E532E03F932F931F921F92B8C0FE01F5
:10276000EC0DFD1D248130E0322F2227FE01EC0DFF
:10277000FD1D6581260F311D21156FEF360719F0FC
:1027800021153105B1F4D5015496ED91FC91E40F7A
:10279000F51F41E0232B09F440E04083CD5BDE4F81
:1027A00008811981C354D140A801B7010E94AA2A07
:1027B000C7CE3F922F923F932F9329E732E03F936A
:1027C0002F931F921F929F938F931F9283E08F935B
:1027D0009F928F925F924F920E94DD1044CED5015E
:1027E00052968D919C9153979101281B390BCE01E4
:1027F0008F5F9E4F37FD07C050964D915C9151976A
:10280000241735072CF03F922F9227EB32E0A2CF0E
:10281000220F331F5A96ED91FC91E20FF31FDE0158
:10282000AC0DBD1D14962C9130E0322F2227DE0115
:10283000AC0DBD1D15964C91240F311D31832083A5
:10284000ADCFFE01EC0DFD1D848190E0982F88270F
:10285000FE01EC0DFD1D2581820F911D9C01215073
:102860003109203B374088F027E02F9320EB2F934E
:102870009F938F9385EE92E09F938F931F9281E0B9
:102880008F93CE018F5F9E4F9ECFD50116962D91CF
:102890003C911797F101E21BF30B9F01F7FD0CC070
:1028A000BC016E0F7F1F14964D915C9115974617D2
:1028B0005707CCF4280E391E3F922F9289E193E0FE
:1028C0009F938F931F921F92CE018F5F9E4F9F9376
:1028D0008F931F9282E08F939F928F925F924F927D
:1028E0000E94DD10C0CD46E0C40ED11C54960D915F
:1028F0001C91200F311FF90150E040E0CE0CDF1C8D
:10290000CF01801B910B86179707F0F0D2015896E4
:10291000ED91FC910484F585E02DBE016F5F7E4F43
:10292000C4010995A1E0B1E0AC0FBD1FA80FB91F0C
:10293000F701E80FF91F24E001900D922A95E1F7C5
:102940008C010C5F1F4FFCCDCF01821B930BA3E0CA
:1029500096958795AA95E1F78C0D9D1DDC018C91CC
:1029600090E0042E02C0959587950A94E2F7817055
:1029700081934F5F5F4F47705527C2CFFE01EC0D2B
:10298000FD1D248130E0322F2227FE01EC0DFD1DBC
:102990008581280F311DC90101978B37910540F0C2
:1029A0001F928BE78F933F932F9383E493E064CF41
:1029B000D50152968D919C915397F101E81BF90B2B
:1029C000CF01F7FD31C0A9014E0F5F1F50966D91E9
:1029D0007C916417750734F1C95BDE4FE881F9819A
:1029E000C754D1409C01220F331F2E193F092C19C7
:1029F0003D09841795070CF089CFD5015A966D9142
:102A00007C91DB01A20FB31FAE0FBF1F668170E088
:102A1000762F66271781610F711D6D937C93019648
:102A20003296E7CF220E331E3F922F928CE793E02F
:102A300047CFD2015896ED91FC910484F585E02DA5
:102A4000BE016F5F7E4FC401099521E031E02C0F7C
:102A50003D1F280F391F44EBF90141834FEF42839B
:102A6000DC01139641E051E04C0F5D1FA40FB51F30
:102A700048E0EBEAF3E001900D924A95E1F78C0112
:102A8000055F1F4F8AE0D9018C935ACD8DE690E007
:102A900003CCF50182899389F101E81BF90BCE0182
:102AA0008F5F9E4FF7FDAFCED50150962D913C9193
:102AB0005197E217F3070CF0A6CEEE0FFF1F5A96C0
:102AC0002D913C91E20FF31FDE01AC0DBD1D16965A
:102AD0002C9130E0322F2227DE01AC0DBD1D179660
:102AE0004C91240F311DDE01AC0DBD1D14964C918F
:102AF000642F70E0762F6627DE01AC0DBD1D1596A4
:102B00004C91460F572F511D6081718162277327A9
:102B1000462357232427352791CEFE01EC0DFD1DBA
:102B20006480712C762C6624FE01EC0DFD1D8581E0
:102B3000680E711CFE01EC0DFD1D808590E0982F44
:102B40008827FE01EC0DFD1D2185820F911D9C0142
:102B500021503109FE01EF5FFE4FCB5BDE4FF98361
:102B6000E883C554D1402937310580F493012150C1
:102B700031092D37310550F4FE01EC0DFD1D428564
:102B80009C01220F331F4217130639F11F922DE7C4
:102B90002F931F9229E72F937F926F929F938F938A
:102BA00084EB93E09F938F931F9281E08F93CA5B96
:102BB000DE4FF881C654D140FF93CB5BDE4F2881B6
:102BC000C554D1402F931F9283E08F939F928F9291
:102BD0005F924F920E94DD1046CCFE01EC0DFD1D70
:102BE000268130E0322F2227FE01EC0DFD1D4781AA
:102BF000240F311DD50152964D915C91539781015F
:102C0000041B150BC75BDE4F19830883C954D140E1
:102C1000F901E41BF50BAF017F0117FDE1C0B30122
:102C2000600F711FC35BDE4F79836883CD54D14041
:102C300050966D917C91C35BDE4FA881B981CD54D4
:102C4000D1406A177B0764F0FC01E40FF51FC15BFC
:102C5000DE4FF983E883CF54D1406E177F07FCF431
:102C600057FD04C0280F391F17FD02C0260C371C62
:102C70003F932F933F922F9280E094E09F938F9306
:102C80001F921F92CA5BDE4FF881C654D140FF935A
:102C9000CB5BDE4F2881C554D1402F9314CCD20199
:102CA0005896ED91FC910484F585E02DBE016F5F8F
:102CB0007E4FCE01835C9E4F0995E1E0F1E0EC0F81
:102CC000FD1FE80FF91F660C6082C95BDE4FE881CB
:102CD000F981C754D140AE014F5F5F4F9701220F7A
:102CE000331F241B350B2C193D09C15BDE4F488176
:102CF0005981CF54D140E416F5060CF444C0AE011E
:102D00004F5F5E4FFA01E80FF91F4801880C991CCC
:102D1000841A950A881A990A21E030E0241B350BA1
:102D200089010E0F1F1FC35BDE4F68817981CD546F
:102D3000D140C75BDE4F88819981C954D140861745
:102D400097070CF0FDCBA4014E0F5F1FD5015A96DB
:102D50008D919C91DA01A80FB91F11968C91119752
:102D600081838C918283C75BDE4F48815981C9542E
:102D7000D1404F5F5F4FC75BDE4F59834883C954D3
:102D8000D1403296CDCFD5015A964D915C91DA0162
:102D9000A20FB31FAE0FBF1F428550E0542F442730
:102DA0006385460F511D4D935C93BFEFEB1AFB0AF1
:102DB00032969BCF1F927F9281E594E09F938F93F1
:102DC0001F9281E08F939E012F5F3E4F3F932F9381
:102DD0001F9281CD0E948308C2010E947008EECB31
:102DE000F7FF40CF45CF0C9450250C9448258F9287
:102DF0009F92AF92BF92CF92DF92EF92FF920F938A
:102E00001F93CF93DF93CDB7DEB7C054D1090FB670
:102E1000F894DEBF0FBECDBF80E4E9E0F1E0DE0153
:102E2000119601900D928A95E1F710E000E0882458
:102E30008A94982C5401C8010E944825940128279F
:102E4000D501C9018F709927AA27BB27880F991F21
:102E5000880F991F41E050E04C0F5D1F840F951FB4
:102E6000FC01C080D180E280F38034E0B694A79466
:102E7000979487943A95D1F7C824D924EA24FB245F
:102E8000C8010E94482590E044E0959587954A95B1
:102E9000E1F7092E000CAA0BBB0B8C259D25AE2556
:102EA000BF258F709927AA27BB27880F991F880FE6
:102EB000991F21E030E02C0F3D1F820F931FFC0172
:102EC00080809180A280B38064E0F694E794D794E8
:102ED000C7946A95D1F78C249D24AE24BF24809496
:102EE0009094A094B0940F5F1F4F0C3FF3E01F0726
:102EF00009F0A1CFC501B401C05CDF4F0FB6F89453
:102F0000DEBF0FBECDBFDF91CF911F910F91FF901C
:102F1000EF90DF90CF90BF90AF909F908F900895EB
:102F20000F931F93CF93DF930E94F716EB01182F97
:102F3000092F60930705D0930805809309059093A6
:102F40000A058CEF93E00E94F516801312C08DEFF6
:102F500093E00E94F51681130CC08EEF93E00E945F
:102F6000F5168D1306C08FEF93E00E94F51691E0E1
:102F70008C1390E0892FDF91CF911F910F910895CD
:102F8000CF93DF93C82F682F81E090E00E94F31663
:102F900081E090E00E94F5160C2E000CDD0B8C17E2
:102FA0001D0609F50E94F716609307057093080542
:102FB0008093090590930A05692F8CEF93E00E9496
:102FC000F316609109058DEF93E00E94F31660916E
:102FD00008058EEF93E00E94F316609107058FEFCE
:102FE00093E00E94F31681E0DF91CF9108951F9244
:102FF0000F920FB60F9211242F933F938F939F93AD
:10300000AF93BF938091600590916105A091620597
:10301000B091630530915F0523E0230F2D3758F5FC
:103020000196A11DB11D20935F05809360059093CB
:103030006105A0936205B09363058091640590914A
:103040006505A0916605B09167050196A11DB11DAA
:103050008093640590936505A0936605B09367051A
:10306000BF91AF919F918F913F912F910F900FBE84
:103070000F901F90189526E8230F0296A11DB11DF1
:10308000D2CF1F920F920FB60F9211242F933F931E
:103090004F935F936F937F938F939F93AF93BF9360
:1030A000EF93FF938AED95E00E941305FF91EF9156
:1030B000BF91AF919F918F917F916F915F914F9150
:1030C0003F912F910F900FBE0F901F9018951F9258
:1030D0000F920FB60F9211242F938F939F93EF931C
:1030E000FF93E091EA05F091EB058081E091F00516
:1030F000F091F10582FD1BC090818091F3058F5FF7
:103100008F732091F405821741F0E091F305F0E010
:10311000E652FA4F958F8093F305FF91EF919F91BF
:103120008F912F910F900FBE0F901F901895808157
:10313000F4CF1F920F920FB60F9211242F933F934B
:103140004F935F936F937F938F939F93AF93BF93AF
:10315000EF93FF938091B900887F803609F44AC0CD
:10316000F0F5883209F4A7C018F5803109F49BC046
:10317000B8F4882309F4F9C0883009F494C0FF91A9
:10318000EF91BF91AF919F918F917F916F915F91DF
:103190004F913F912F910F900FBE0F901F90189558
:1031A000883109F488C0803251F78093AE0514C08D
:1031B000803409F49DC040F48033B9F38833F9F6C4
:1031C0008093AE0585ECB0C0803509F485C08835A4
:1031D00009F496C0883499F60E94A510D0CF88399A
:1031E00009F48CC038F5883729F050F4883611F08E
:1031F000803729F683E08093B0051092010557C00F
:10320000883809F47BC0803919F0803809F0B7CFCD
:1032100080910105803208F071C0E091010581E0E4
:103220008E0F809301058091BB00F0E0EF51FB4FC2
:1032300080833DC0803B39F0E0F4803A09F479C0E6
:10324000883A09F09CCF84E08093B0051092E004A6
:103250001092DF04E0910405F09105050995809135
:10326000DF0481110FC081E08093DF041092BF045E
:1032700009C0803C09F4A6CF883C09F4A3CF883B61
:1032800009F07DCFE091E00481E08E0F8093E004AF
:10329000F0E0E154FB4F80818093BB009091E0040B
:1032A0008091DF0429C080918B058093BB0085EC61
:1032B0008093BC0064CF9091AD058091AC059817C8
:1032C00058F5E091AD0581E08E0F8093AD05F0E0FB
:1032D000E457FA4F8081E9CFE091AD0581E08E0F90
:1032E0008093AD058091BB00F0E0E457FA4F8083F6
:1032F0009091AD058091AC059817C8F285E8D8CFBC
:10330000E091AD0581E08E0F8093AD058091BB000B
:10331000F0E0E457FA4F80838091AF0581115CCFD4
:1033200081E080938A0584EA8093BC001092B00506
:1033300026CF85EC8093BC001092B00580910105EA
:10334000803230F4E0910105F0E0EF51FB4F108244
:103350006091010570E0E0910205F091030581EEB6
:1033600094E00995109201050ACF1092AE0534CF72
:103370008091AB069091AC060E945F298091A806CF
:103380009091A90697FD03C060E00E94FD0288EBC2
:1033900096E00C945F0E109286061092850688EED9
:1033A00093E0A0E0B0E08093870690938806A09316
:1033B0008906B0938A0623E731E030938406209390
:1033C00083062AED35E03093900620938F062FEF89
:1033D0003FEF309392062093910644E050E05093E3
:1033E0009406409393063093960620939506109288
:1033F00098061092970610929A06109299061092CB
:103400009B061092DD051092DC058093DE059093FB
:10341000DF05A093E005B093E10521E931E03093A9
:10342000DB052093DA0525EC30E03093E7052093A7
:10343000E60524EC30E03093E9052093E80520EC24
:1034400030E03093EB052093EA0521EC30E0309337
:10345000ED052093EC0522EC30E03093EF0520934E
:10346000EE0526EC30E03093F1052093F005109244
:10347000F3051092F4051092F5051092F6051092DE
:103480007A061092790680937B0690937C06A0932F
:103490007D06B0937E0683EA91E090937806809350
:1034A00077061092BB061092BA06ECEBF6E088E1C4
:1034B000DF011D928A95E9F78FEB91E09093B906B1
:1034C0008093B80683E896E09093D5068093D4065F
:1034D0001092A3061092AA061092B1061092B2069C
:1034E0001092B3061092B40681E08093B0068093E8
:1034F000AD061092AE0692E09093AF068093A206BE
:1035000083E090E09093A7068093A6060E94C328CC
:103510009093AC068093AB06009789F123E0FC0101
:1035200011922A95E9F781E090E09093A5068093A7
:10353000A40685E090E09093A9068093A806809168
:10354000A306882341F061E085E00E94FD0260E06F
:1035500085E00E94CF02E3EBF2E0E491F0E0EE0FB1
:10356000FF1FEC55FD4F859194919093B606809383
:10357000B506E5E9F2E0E491E093B706089510920C
:10358000A7061092A6061092A5061092A406D1CF07
:10359000CF93DF93CDB7DEB7A5970FB6F894DEBF14
:1035A0000FBECDBF789484B5826084BD84B5816040
:1035B00084BD85B5826085BD85B5816085BD8091FE
:1035C0006E00816080936E00109281008091810076
:1035D000826080938100809181008160809381006E
:1035E000809180008160809380008091B100846030
:1035F0008093B1008091B00081608093B000809191
:103600007A00846080937A0080917A00826080934F
:103610007A0080917A00816080937A0080917A00AC
:10362000806880937A001092C10080E10E94C017E8
:1036300026E040E056E960E070E08AED95E00E9407
:10364000650461E084E00E94FD0261E087E00E9481
:10365000FD0260E082E00E94FD0260E083E00E94E3
:10366000FD0260E084E00E94CF0260E087E00E94FB
:10367000CF020E949017882331F081E090E00E94F1
:10368000F5168F3F49F40E942B0F892B71F486E7C2
:1036900094E00E941210FFCF0E942B0F892B29F477
:1036A00086E794E00E941210FFCF64E070E0809102
:1036B000CC069091CD060E94E8299093CD06809388
:1036C000CC06009709F0A2C71092BF061092BE0662
:1036D0001092BD061092BC0662E170E08091D006A7
:1036E0009091D1060E94E8299093D1068093D0064C
:1036F000009709F09DC71092C7061092C606109257
:10370000C5061092C40666E070E08091D2069091E2
:10371000D3060E94E8299093D3068093D20600979F
:1037200009F098C71092CB061092CA061092C906EB
:103730001092C8066CE070E081E090E00E94641096
:1037400061E081E090E00E94AB0161E082E090E006
:103750000E94AB010E949017882309F48DC782E074
:1037600090E00E94F5168F3F09F486C7082E000CE2
:10377000990B90930201809301018091A80690918A
:10378000A90697FD08C061E00E94FD0260E08091FB
:10379000A8060E94CF0281E08093A3064091A6066E
:1037A0005091A70670E060E08091AB069091AC0666
:1037B0000E94B32A10926905109268051092B7050D
:1037C0001092D9050E94C90585EE93E090930505F6
:1037D0008093040586EE93E09093030580930205A1
:1037E00084E480930F0586E78093060562E070E02D
:1037F00080E090E00E94A60380ED0E94C40E182F86
:10380000682F70E090E080E040E10E94CE0F85ECF0
:1038100091E00E94C10F103609F0B6C189E994E029
:103820000E94121089E80E94C40E082F88E80E94A6
:10383000C40E10E0102F0027080F111D109319055A
:10384000009318058BE80E94C40EF82E8AE80E94A7
:10385000C40E2F2D30E0322F2227820F932F911D7F
:1038600090931B0580931A058DE80E94C40EF82ED4
:103870008CE80E94C40E2F2D30E0322F2227820FB9
:10388000932F911D90931D0580931C058FE80E9436
:10389000C40EF82E8EE80E94C40E2F2D30E0322F79
:1038A0002227820F932F911D90931F0580931E0551
:1038B00081E90E94C40EF82E80E90E94C40E2F2DCB
:1038C00030E0322F2227820F932F911D90932105F4
:1038D0008093200583E90E94C40EF82E82E90E949D
:1038E000C40E2F2D30E0322F2227820F932F911DEF
:1038F000909323058093220585E90E94C40EF82E3B
:1039000084E90E94C40E2F2D30E0322F2227820F2F
:10391000932F911D909325058093240587E90E949C
:10392000C40EF82E86E90E94C40E2F2D30E0322FEF
:103930002227820F932F911D9093270580932605B0
:1039400089E90E94C40EF82E88E90E94C40E2F2D2A
:1039500030E0322F2227820F932F911D909329055B
:10396000809328058BE90E94C40EF82E8AE90E94F4
:10397000C40E2F2D30E0322F2227820F932F911D5E
:1039800090932B0580932A058DE90E94C40EF82E92
:103990008CE90E94C40E2F2D30E0322F2227820F97
:1039A000932F911D90932D0580932C058FE90E94F4
:1039B000C40EF82E8EE90E94C40E2F2D30E0322F57
:1039C0002227820F932F911D90932F0580932E0510
:1039D00081EA0E94C40E8093300582EE0E94C40EDC
:1039E000F82E81EE0E94C40E2F2D30E0322F2227B8
:1039F000820F932F911D909332058093310583EEB2
:103A00000E94C40E8093330584EE0E94C40EF82EEB
:103A100085EE0E94C40EB0E1FB9E900111248F70D0
:103A2000820F932F911D909335058093340586EE78
:103A30000E94C40EF82E85EE0E94C40EE0E1FE9EA8
:103A40009001112490E044E0959587954A95E1F71F
:103A5000820F931F909337058093360587EE0E945F
:103A6000C40E80933805C8010E94201080911A0569
:103A700090911B050E94321080911C0590911D05AC
:103A80000E94321089E80E94C40E182F88E80E9414
:103A9000C40E212F30E0322F2227820F932F911D49
:103AA0000E9420108FE80E94C40E182F8EE80E94FA
:103AB000C40E212F30E0322F2227820F932F911D29
:103AC0000E94201082EE0E94C40E182F81EE0E94E8
:103AD000C40E212F30E0322F2227820F932F911D09
:103AE0000E94201085EF0E94C40E682F6F7185EF31
:103AF0000E94390E85EF0E94C40E682F637E85EF09
:103B00000E94390E84EF0E94C40E182F80E00E949C
:103B1000E40E84EF0E94C40E837E682F646084EFFD
:103B20000E94390E812F83700E94E40E84EF0E9460
:103B3000C40E182F80E00E94E40E82EF0E94C40E93
:103B4000887F682F616082EF0E94390E812F837019
:103B50000E94E40E84EF0E94C40E182F80E00E94A1
:103B6000E40E84EF0E94C40E8F71682F606284EFB0
:103B70000E94390E812F83700E94E40E83E00E9420
:103B8000E40E80ED0E94C40E81E08093B60589E2C8
:103B90008093D8051092B7051092D90562EB87E79C
:103BA00096E00E9415080E94080661E070E089E234
:103BB00090E00E94930E87E796E00E94CE07803542
:103BC00089F463E980EA0E94200E10913D058091FE
:103BD0000001182B612F81EA0E94200E612F81EADB
:103BE0000E94200E1AE00E94620C1150E1F740E0A2
:103BF00060E082E30E94F90C64E670E080E090E00F
:103C00000E94A60340E062E380E00E94F90C64E6B3
:103C100070E080E090E00E94A60342E360E080E074
:103C20000E94F90C64E670E080E090E00E94A60338
:103C300040E060E080E00E94F90C9E01295F3F4F68
:103C400038872F8388EB96E00E942A1181E090E06C
:103C50000E94D1016A3071058105910509F00FC5F7
:103C600081E090E00E94D101862F0E94C01720E0E1
:103C700030E048EC52E460910B0570910C058091A6
:103C80000D0590910E050E948A240E94402882E032
:103C900090E00E94641020E030E048EC52E4609133
:103CA00053057091540580915505909156050E94D9
:103CB0008A240E94402883E090E00E94641020E063
:103CC00030E048EC52E460914F05709150058091CE
:103CD0005105909152050E948A240E94402884E058
:103CE00090E00E94641020E030E048EC52E46091E3
:103CF0004B0570914C0580914D0590914E050E94A9
:103D00008A240E94402885E090E00E94641020E010
:103D100030E048EC52E4609147057091480580918D
:103D2000490590914A050E948A240E94402886E015
:103D300090E00E946410609145057091460587E00F
:103D400090E00E946410609143057091440588E002
:103D500090E00E94641080903E058B8E682D83E079
:103D600090E00E94AB010E94D9036C8B7D8B8E8BFF
:103D70009F8B8091BE069091BF068230910554F4CE
:103D80002091BC063091BD06280F391F2230310525
:103D90000CF0C9C454EEA52E5BE2B52EB092D70646
:103DA000A092D60680915B0590915C05A0915D057F
:103DB000B0915E054C895D896E897F89481B590BDE
:103DC0006A0B7B0B2091010130910201A8EEB3E058
:103DD0002A9FC0012B9F900D3A9F900D1124B0E0B7
:103DE000A0E0481759076A077B0708F4A5C48C8828
:103DF0009D88AE88BF8880925B0590925C05A092FA
:103E00005D05B0925E0510910F05992493949092F0
:103E1000B6051093D8051092B7051092D90564E243
:103E200087E796E00E94150860E087E796E00E9429
:103E300015080E94080664E170E080E090E00E94AE
:103E4000A60366E0812F0E94EF0610926905809319
:103E50006805863079F48E010F5F1F4F87E796E083
:103E60000E94CE07D8018D938D018F809884A8156C
:103E7000B905A1F71B81CE0101960E948D0118138F
:103E80004BC01E81CE0104960E948D01181344C0C0
:103E900029813A81322723273227A7E1B1E10E9405
:103EA000A0253EE095958795779567953A95D1F74A
:103EB00064597141810991090E944F2420E030E04A
:103EC00048EC52E40E94C7276093100570931105D7
:103ED00080931205909313052C813D81322723276F
:103EE0003227A1E7B2E00E94A0254CE09695879585
:103EF000779567954A95D1F70E944D2420E030E0F0
:103F000048EC52E40E94C72760931405709315058E
:103F100080931605909317058091100590911105D7
:103F2000A0911205B0911305809353059093540509
:103F3000A0935505B093560543E06AEFCE01019674
:103F40000E94F30E898190E0B0E0A0E02CE0880FA1
:103F5000991FAA1FBB1F2A95D1F74A8150E070E034
:103F600060E034E0440F551F661F771F3A95D1F784
:103F7000842B952BA62BB72B2B8122952F70822B70
:103F8000409118055091190570E060E06C017D01C9
:103F9000E4E0F594E794D794C794EA95D1F7C41A6E
:103FA000D50AE60AF70AF3E0B595A79597958795A0
:103FB000FA95D1F7440F551F661F771F4C015D011D
:103FC000841A950AA60AB70AA5019401A0911A05B8
:103FD000B0911B050E9406264B015C010BE0B594D5
:103FE000A794979487940A95D1F7A7019601C701E2
:103FF000B6010E94AF259B01AC018CE05595479519
:10400000379527958A95D1F7A0911C05B0911D058C
:104010000E9406262EE095958795779567952A95B7
:10402000D1F7860E971EA81EB91E80923905909270
:104030003A05A0923B05B0923C05A5E0B0E0A50191
:1040400094010E945E2560587F4F8F4F9F4F672FCE
:10405000782F892F992787FD9A950E944F2420E079
:1040600030E048EC52E40E94C72720E030E0A9018C
:104070000E945B2720E030E040E151E40E948A2466
:1040800020E030E040EA50E40E94C72720E030E022
:1040900040E052E40E945B2760934F057093500507
:1040A00080935105909352058091140590911505C8
:1040B000A0911605B091170580934B0590934C0580
:1040C000A0934D05B0934E0542E06DEFCE010196F1
:1040D0000E94F30EA50194013C52414051092987E9
:1040E0003A874B875C87C980DA80DC24CD24DC24C6
:1040F000F12CE12C6EE0CC0CDD1CEE1CFF1C6A9553
:10410000D1F78091340590913505092E000CAA0B4A
:10411000BB0B74E1880F991FAA1FBB1F7A95D1F7BB
:10412000C81AD90AEA0AFB0AA0913605B0913705E8
:104130000E940626C61AD70AE80AF90A30E4D30E06
:10414000E11CF11CEFE0F594E794D794C794EA954D
:10415000D1F7A0913305B0E029853A854B855C8580
:104160000E945E252B013C01FBE0759467945794F7
:104170004794FA95D1F740E8540E611C711CA09148
:1041800038050A2E000CBB0B29853A854B855C85CA
:104190000E940626AAE09595879577956795AA953A
:1041A000D1F7A30192010E94AF259B01AC01BAE0B7
:1041B0005595479537952795BA95D1F7405E5F4F4E
:1041C000A0913105B09132050E940626705E8F4F96
:1041D0009F4F1EE095958795779567951A95D1F72E
:1041E000A70196010E94AF256B017C010FE0959518
:1041F0008795779567950A95D1F79B01AC010E9449
:10420000AF259B01AC0187E05595479537952795DC
:104210008A95D1F7A0913005B0E00E945E2524E098
:1042200095958795779567952A95D1F7C61AD70AF8
:10423000E80AF90AF7FE03C0C12CD12C7601C701A8
:10424000B60161307105810559E1950724F060E000
:1042500070E080E099E11CE09595879577956795EA
:104260001A95D1F70E944F2420E030E040E85AE34D
:104270000E948A24609347057093480580934905FE
:1042800090934A0543E067EFCE0101960E94F30E3A
:1042900075016401FF0CCC08DC2C76019401A501AA
:1042A0006C2D7C2D8C2D9C2D345F41405109610972
:1042B00071098109910929873D874E875F87688B3E
:1042C000798B8A8B9B8B59016A017B018C010E943F
:1042D0000E26288F398F4A8F59A36AA37BA38CA3FC
:1042E0009DA33091210520912005932F990F990BC3
:1042F000492F592F692F792F892F0E940E260CE004
:104300000E94062719012A013B014C013091230527
:1043100020912205932F990F990BA88CB98CCA8CE8
:10432000D9A0EAA0FBA00CA11DA1492F592F692FEC
:10433000792F892F0E940E2608E00E941F27510125
:104340006201730184010E943C2770588F4F9F4F78
:1043500020901E0530901F055101C12CD12CE12C5D
:10436000F12C00E010E00E940E2601E20E941F27BF
:104370002C8F3D8F4E8F5F8F68A3272E382E492EAE
:10438000A0E00E944E2709F41FC230912905209118
:104390002805932F990F990BA88CB98CCA8CD9A09A
:1043A000EAA0FBA00CA11DA1492F592F692F792F3D
:1043B000892F0E940E26288F398F4A8F552E3B0158
:1043C0004C013091270520912605932F990F990BC9
:1043D000A984BD84CE84DF84E888F9880A891B8992
:1043E000492F592F692F792F892F0E940E2601E11D
:1043F0000E940627A88CB98CCA8CD52C7301840125
:104400000E943C2759016A017B01582E192F8A818D
:1044100090E0B0E0A0E044E0880F991FAA1FBB1F06
:104420004A95D1F72B8122952F70822B498150E03C
:1044300070E060E0ECE0440F551F661F771FEA95BF
:10444000D1F7842B952BA62BB72B20E030E040E151
:1044500050E0281B390B4A0B5B0B39014A01990CC0
:104460006608762C4301662D762D862D962D0FE15C
:104470000E94062739014A01B62FA72FF82FE92FEE
:104480003091250520912405932F990F990B492FE1
:10449000592F692F792F892F03E20E940627052DB6
:1044A0000E943C2759016A017B018C019301A40100
:1044B0006B2F7A2F8F2F9E2F0E944527A5E3AA2EC0
:1044C000BCE0BB2EC12CD12CE12CF12C00E010E083
:1044D0000E940E26AC8CBD8CCE8CDF8CE8A0F22C1A
:1044E000032D142D0E94682629873D874E875F87FC
:1044F000688B798B8A8B9B8B0DE00E941F27322E55
:10450000432E542E652E762E872E982E292E3091EE
:104510002F0520912E05932F990F990BA32CB42CC6
:10452000C52CD62CE72CF82C092D122D492F592FEC
:10453000692F792F892F0E940E260E940E2609E1ED
:104540000E941F27A984BD84CE84DF84E888F9886F
:104550000A891B890E943C2719012A013B014C0151
:1045600030912D0520912C05932F990F990B492FF0
:10457000592F692F792F892F0E940E2603E10E945F
:104580001F2759016A017B018C019101A201B3012E
:10459000C4010E943C2708E00E941F2759016A01BC
:1045A0007B01E82F192F30912B0520912A05932F9D
:1045B000990F990B492F592F692F792F892F04E0D3
:1045C0000E9406270E2F0E943C270E946F2820E0A1
:1045D00030E048EC56E40E94C7270E9439287093C7
:1045E00046056093450510E080913D05082E000CBE
:1045F000990B1817190611F00CF0EAC068E770E083
:1046000080E090E00E94A6031F5FEECF24E0DC0173
:104610001D922A95E9F781E090E09093BF06809380
:10462000BE0684E090E09093BD068093BC0654C81B
:1046300022E1FC0111922A95E9F781E090E0909344
:10464000C7068093C60689E090E09093C5068093E4
:10465000C40659C826E0DC011D922A95E9F781E0DD
:1046600090E09093CB068093CA0683E090E090930D
:10467000C9068093C8065EC882E090E07AC86B30B5
:10468000710581059105B1F581E090E00E94D101AD
:10469000162F82E090E00E94F31682E090E00E94E4
:1046A000F516612F110F770B8617170609F0DFCA71
:1046B0000E94F7166093070570930805809309051B
:1046C00090930A05692F8CEF93E00E94F316609196
:1046D00009058DEF93E00E94F316609108058EEFB7
:1046E00093E00E94F316609107058FEF93E00E941C
:1046F000F316BDCA6C3071058105910509F0B7CA82
:1047000082E090E00E94D101162F83E090E00E94A9
:10471000D101272F332727FD3A95462F622F812F6E
:104720000E94F90CA4CAE091CC06F091CD06E81BDA
:10473000F90B8181811136CB8091BE069091BF0625
:104740008330910554F42091BC063091BD06280FAA
:10475000391F233031050CF088C094EEA92E9BE25E
:10476000B92EB092D706A092D606809157059091A7
:104770005805A0915905B0915A058C889D88AE883E
:10478000BF88881A990AAA0ABB0AD501C401843FC6
:104790009140A105B10508F471C08C889D88AE8850
:1047A000BF888092570590925805A0925905B09203
:1047B0005A0587E00E94A60261E0892B09F060E0BB
:1047C00087E00E94CF025AC060E070E0CB0105CFC5
:1047D00084EB0E949D0E8C0186EB0E949D0EB0E042
:1047E000A0E0DC0199278827A80170E060E0802B19
:1047F000952BA62BB72BAD0166277727841B950B2E
:1048000090934405809343050E94620C82E00E94CD
:10481000A6028C01892B51F00E94D90360933F05B9
:104820007093400580934105909342050E94D903FF
:10483000C0903F05D0904005E0904105F0904205C2
:104840006C197D098E099F096B3F710581059105E2
:1048500008F472CF81E0012B09F480E08B8C88167C
:1048600009F46ACF80933E0567CFE091CC06F091C2
:10487000CD06E81BF90B8281811177CF80E0A82E4D
:1048800080E0B82EAB2809F4DDC90E9451048823CA
:1048900009F4D8C90E940000D5C9E89409C097FB63
:1048A0003EF490958095709561957F4F8F4F9F4F07
:1048B0009923A9F0F92F96E9BB279395F69587954B
:1048C00077956795B795F111F8CFFAF4BB0F11F40E
:1048D00060FF1BC06F5F7F4F8F4F9F4F16C08823B5
:1048E00011F096E911C0772321F09EE8872F762FEB
:1048F00005C0662371F096E8862F70E060E02AF02C
:104900009A95660F771F881FDAF7880F9695879517
:1049100097F908950E949D240C940E250E9400256D
:1049200038F00E94072520F0952311F00C94F7240D
:104930000C94FD2411240C9442250E941F2570F331
:10494000959FC1F3950F50E0551F629FF001729F34
:10495000BB27F00DB11D639FAA27F00DB11DAA1F43
:10496000649F6627B00DA11D661F829F2227B00D90
:10497000A11D621F739FB00DA11D621F839FA00D1B
:10498000611D221F749F3327A00D611D231F849F6B
:10499000600D211D822F762F6A2F11249F575040C2
:1049A0009AF0F1F088234AF0EE0FFF1FBB1F661F3D
:1049B000771F881F91505040A9F79E3F510580F006
:1049C0000C94F7240C9442255F3FE4F3983ED4F313
:1049D000869577956795B795F795E7959F5FC1F7AA
:1049E000FE2B880F911D9695879597F9089597F955
:1049F0009F6780E870E060E008959FEF80EC089585
:104A000000240A94161617061806090608950024AD
:104A10000A9412161306140605060895092E039427
:104A2000000C11F4882352F0BB0F40F4BF2B11F49B
:104A300060FF04C06F5F7F4F8F4F9F4F089557FDFA
:104A40009058440F551F59F05F3F71F04795880FFC
:104A500097FB991F61F09F3F79F087950895121693
:104A600013061406551FF2CF4695F1DF08C016163F
:104A700017061806991FF1CF8695710561050894F0
:104A80000895E894BB2766277727CB0197F9089507
:104A9000F999FECF92BD81BDF89A992780B5089506
:104AA000262FF999FECF1FBA92BD81BD20BD0FB64A
:104AB000F894FA9AF99A0FBE019608950E94A025DB
:104AC000A59F900DB49F900DA49F800D911D112462
:104AD00008952F923F924F925F926F927F928F92A2
:104AE0009F92AF92BF92CF92DF92EF92FF920F937D
:104AF0001F93CF93DF93CDB7DEB7CA1BDB0B0FB687
:104B0000F894DEBF0FBECDBF09942A883988488843
:104B10005F846E847D848C849B84AA84B984C884D9
:104B2000DF80EE80FD800C811B81AA81B981CE0FD0
:104B3000D11D0FB6F894DEBF0FBECDBFED010895B5
:104B4000A29FB001B39FC001A39F700D811D1124CE
:104B5000911DB29F700D811D1124911D0895DB01DF
:104B60008F939F930E945E25BF91AF91A29F800D6E
:104B7000911DA39F900DB29F900D11240895A1E265
:104B80001A2EAA1BBB1BFD010DC0AA1FBB1FEE1FC7
:104B9000FF1FA217B307E407F50720F0A21BB30B12
:104BA000E40BF50B661F771F881F991F1A9469F78E
:104BB00060957095809590959B01AC01BD01CF01EA
:104BC0000895052E97FB1EF400940E94F82557FDCA
:104BD00007D00E94BF2507FC03D04EF40C94F825A3
:104BE00050954095309521953F4F4F4F5F4F089519
:104BF00090958095709561957F4F8F4F9F4F089549
:104C0000EE0FFF1F0590F491E02D0994B7FF0C946F
:104C10005E250E945E25821B930B0895DF93CF9340
:104C20001F930F939A9DF02D219FF00D8B9DF00DFA
:104C30008A9DE02DF10D039FF00D029FE00DF11D07
:104C40004E9DE00DF11D5E9DF00D4F9DF00D7F938B
:104C50006F93BF92AF925F934F93D5010E94A025AF
:104C60008B01AC01D7010E94A025EB01E80FF91FD1
:104C7000D6010E945D262F913F91D6010E94A0256A
:104C8000C60FD71FE81FF91FAF91BF910E945D2685
:104C90002F913F910E94A025C60FD71FE81FF91F33
:104CA000D6010E94A025E60FF71F9801BE01CF0193
:104CB0000F911F91CF91DF9108950E94A025460F7B
:104CC000571FC81FD91F08F431960895689401C072
:104CD000E894F92FF12B12F00C949A26A0E0B0E0A2
:104CE000E4E7F6E20C946F25092E059422F40E9465
:104CF000F626112392F4F0E80F26FFEFE094F094EB
:104D000000951095B094C094D094A194BF0ACF0A96
:104D1000DF0AEF0AFF0A0F0B1F0B0E94A52607FCF4
:104D20000E94F626CDB7DEB7ECE00C948B25689494
:104D300001C0E8948F929F92CF93DF930E94A526A3
:104D4000DF91CF919F908F90089588249924F4014A
:104D5000E401B0E49F93AA279A158B049C04ED0507
:104D6000FE05CF05D007A10798F4AD2FDC2FCF2F7C
:104D7000FE2FE92D982C892E982F872F762F652FBF
:104D8000542F432F322F2227B85031F7BF9127C01D
:104D90001B2EBF91BB27220F331F441F551F661FB9
:104DA000771F881F991F881C991CEE1FFF1FCC1F9F
:104DB000DD1FAA1FBB1F8A149B04EC05FD05CE0551
:104DC000DF05A007B10748F08A189B08EC09FD0928
:104DD000CE09DF09A00BB10B21601A94E1F62EF485
:104DE0009401AF01BE01CD01000C0895609570954E
:104DF0008095909530954095509521953F4F4F4F18
:104E00005F4F6F4F7F4F8F4F9F4F0895002E083099
:104E100090F0982F872F762F652F542F432F322F06
:104E200022270850F4CF220F331F441F551F661F3F
:104E3000771F881F991F0A95B2F7002D089597FDD7
:104E40001094002E083098F00850232F342F452F4F
:104E5000562F672F782F892F912DF4CF1594979582
:104E600087957795679557954795379527950A952F
:104E7000AAF71124002D08952A0D3B1D4C1D5D1D20
:104E80006E1D7F1D801F911F08952A193B094C0933
:104E90005D096E097F09800B910B08950024A7FD21
:104EA00000942A17300540055005600570058005FF
:104EB000900508955058BB27AA270E9472270C948A
:104EC0000E250E94002538F00E94072520F039F4B5
:104ED0009F3F19F426F40C94FD240EF4E095E7FBB3
:104EE0000C94F724E92F0E941F2558F3BA17620784
:104EF00073078407950720F079F4A6F50C944125F3
:104F00000EF4E0950B2EBA2FA02D0B01B9019001E4
:104F10000C01CA01A0011124FF27591B99F0593F28
:104F200050F4503E68F11A16F040A22F232F342F70
:104F30004427585FF3CF469537952795A795F040BE
:104F40005395C9F77EF41F16BA0B620B730B840BD3
:104F5000BAF09150A1F0FF0FBB1F661F771F881F8B
:104F6000C2F70EC0BA0F621F731F841F48F48795E3
:104F700077956795B795F7959E3F08F0B0CF9395D5
:104F8000880F08F09927EE0F9795879508950E944E
:104F9000DB270C940E250E94072558F00E9400255F
:104FA00040F029F45F3F29F00C94F72451110C9440
:104FB00042250C94FD240E941F2568F39923B1F328
:104FC000552391F3951B550BBB27AA27621773072F
:104FD000840738F09F5F5F4F220F331F441FAA1FC3
:104FE000A9F335D00E2E3AF0E0E832D0915050407F
:104FF000E695001CCAF72BD0FE2F29D0660F771F2D
:10500000881FBB1F261737074807AB07B0E809F012
:10501000BB0B802DBF01FF2793585F4F3AF09E3F97
:10502000510578F00C94F7240C9442255F3FE4F38B
:10503000983ED4F3869577956795B795F7959F5FDA
:10504000C9F7880F911D9695879597F90895E1E026
:10505000660F771F881FBB1F621773078407BA0785
:1050600020F0621B730B840BBA0BEE1F88F7E095E0
:1050700008950E9440286894B1110C944225089527
:105080000E94272588F09F5798F0B92F9927B7518C
:10509000B0F0E1F0660F771F881F991F1AF0BA95DC
:1050A000C9F714C0B13091F00E944125B1E00895D4
:1050B0000C944125672F782F8827B85F39F0B93FC6
:1050C000CCF3869577956795B395D9F73EF490958F
:1050D0008095709561957F4F8F4F9F4F089597FBF7
:1050E00016F40E94B3280C947628E894F92F96EBD6
:1050F000FF2381F0121613061406440B9395F695C0
:1051000087957795679557954040FF23B9F71BC062
:1051100099270895882351F49850D2F7872B762F3A
:10512000652F542F432F322F20E0B1F312161306B0
:105130001406440B88233AF09A95440F551F661FB6
:10514000771F881FCAF755234AF4440F551F11F4DF
:1051500060FF04C06F5F7F4F8F4F9F4F880F969502
:10516000879597F9089590958095709560955095DD
:105170004095309521953F4F4F4F5F4F6F4F7F4F79
:105180008F4F9F4F08950F931F93CF93DF938230DC
:10519000910510F482E090E0E091E006F091E106E4
:1051A00030E020E0B0E0A0E0309799F4211531051F
:1051B00009F44AC0281B390B24303105D8F58A81FF
:1051C0009B816115710589F1FB0193838283FE0147
:1051D00011C0408151810281138148175907E0F0C5
:1051E0004817590799F4109761F012960C9312978B
:1051F00013961C933296CF01DF91CF911F910F919F
:1052000008950093E0061093E106F4CF21153105CF
:1052100051F04217530738F0A901DB019A01BD0193
:10522000DF01F801C1CFEF01F9CF9093E106809340
:10523000E006CDCFFE01E20FF31F81939193225040
:10524000310939832883D7CF2091DE063091DF06DC
:10525000232B41F420910501309106013093DF06A4
:105260002093DE06209103013091040121153105C0
:1052700041F42DB73EB74091070150910801241B1E
:10528000350BE091DE06F091DF06E217F307A0F49C
:105290002E1B3F0B2817390778F0AC014E5F5F4F8C
:1052A0002417350748F04E0F5F1F5093DF064093D9
:1052B000DE06819391939FCFF0E0E0E09CCFCF9307
:1052C000DF930097E9F0FC01329713821282A091DC
:1052D000E006B091E106ED0130E020E01097A1F486
:1052E00020813181820F931F2091DE063091DF06ED
:1052F0002817390709F061C0F093DF06E093DE0656
:10530000DF91CF910895EA01CE17DF07E8F54A81D2
:105310005B819E0141155105B1F7E901FB83EA83E9
:1053200049915991C40FD51FEC17FD0761F4808195
:1053300091810296840F951FE90199838883828168
:1053400093819B838A83F0E0E0E012968D919C919B
:1053500013970097B9F52D913C911197CD010296C5
:10536000820F931F2091DE063091DF062817390740
:1053700039F6309751F51092E1061092E006B0939D
:10538000DF06A093DE06BCCFD383C2834081518168
:10539000840F951FC817D90761F44E5F5F4F88814E
:1053A0009981480F591F518340838A819B81938340
:1053B00082832115310509F0B0CFF093E106E09327
:1053C000E0069ECFFD01DC01C0CF13821282D7CF51
:1053D000B0E0A0E0EEEEF9E20C946B258C010097B2
:1053E00051F4CB010E94C3288C01C801CDB7DEB7B0
:1053F000E0E10C948725FC01E60FF71F9C01225089
:105400003109E217F30708F49DC0D901CD91DC9171
:105410001197C617D70798F0C530D10530F3CE01E4
:1054200004978617970708F3C61BD70B2297C193DB
:10543000D1936D937C93CF010E945F29D6CF5B01FE
:10544000AC1ABD0A4C018C0E9D1EA091E006B091D5
:10545000E106512C412CF12CE12C109731F5809173
:10546000DE069091DF068815990509F05CC04616A6
:10547000570608F058C080910301909104010097ED
:1054800041F48DB79EB74091070150910801841BEC
:10549000950BE817F90708F055C0F093DF06E09385
:1054A000DE06F90171836083A0CF8D919C911197E5
:1054B00012966C90129713967C901397A815B905C5
:1054C00059F56C0142E0C40ED11CCA14DB0420F172
:1054D000AC014A195B09DA011296159780F06282D5
:1054E000738251834083D9016D937C93E114F1045D
:1054F00071F0D7011396FC93EE93129776CF229614
:105500008C0F9D1FF90191838083F301EFCFF093FE
:10551000E106E093E00669CF4816590608F42C012D
:105520007D01D3019ACFCB010E94C3287C01009753
:1055300049F0AE01B8010E94AA2AC8010E945F2961
:10554000870153CF10E000E050CF81E090E0F89465
:105550000C94382DFB01DC0102C001900D924150EA
:105560005040D8F70895DC0101C06D934150504080
:10557000E0F70895ABE0B0E0E0ECFAE20C946925C6
:105580007C013B018A01FC0117821682838181FF25
:10559000C8C1CE0101965C01F7019381F30193FD2F
:1055A000859193FF81913F01882309F453C185328E
:1055B00039F493FD859193FF81913F01853229F460
:1055C000B70190E00E94AA2CE7CF912C212C312C1E
:1055D000FFE1F31538F08B3211F190F4803209F1CC
:1055E000833229F137FC3CC020ED280F2A3050F5DA
:1055F00036FE20C08AE0989E200D1124922E06C00F
:105600008D3291F0803371F7689430F8F30193FD97
:10561000859193FF81913F018111DACF21C0689478
:1056200031F8689432F8F2CF689433F8EFCF689489
:1056300034F8ECCFEAE02E9E200D1124222E68943F
:1056400035F8E4CF8E3229F436FC04C1689436F87C
:10565000DDCF8C3619F4689437F8D8CF8836B1F29C
:10566000982F9F7D95549330E0F08336A1F18337D6
:10567000C1F1833509F063C02801F2E04F0E511CDF
:10568000F801C080D180692D70E036FC02C06FEF58
:105690007FEFC6010E94942C4C01689437F8820178
:1056A0000AC00C5F1F4FFFE3F98388248394912C79
:1056B0006501E89437F833FE2DC0522C8114910413
:1056C00071F5552009F468CFB70180E290E00E949F
:1056D000AA2C5A94F6CFF801808189830E5F1F4F60
:1056E000E4CF2801F2E04F0E511CF801C080D180B8
:1056F000692D70E036FC02C06FEF7FEFC6010E949B
:105700009F2C4C018201D5CFB70180E290E00E942E
:10571000AA2C2A942814190409F0B0F7CECFF60168
:1057200037FC859137FE81916F01B70190E00E94AF
:10573000AA2C51105A94F1E08F1A9108BFCF8436E9
:1057400019F0893609F077C0F80137FE6BC0608127
:105750007181828193810C5F1F4FF32DFF763F2E65
:1057600097FF09C090958095709561957F4F8F4FF9
:105770009F4F689437F82AE030E0A5010E94DA2CA8
:10578000C82ECA188C2C432C36FE0CC0E89440F866
:10579000C91440F434FE05C032FC03C0F32DFE7E74
:1057A0004F2E892C44FE95C0FE01EC0DF11D808129
:1057B000803309F087C0242D297E422E842D8870E5
:1057C000582E43FC95C040FE8FC09C2C821418F4C8
:1057D0002C0C922C981844FE91C0B70180E390E005
:1057E0000E94AA2C42FE09C088E790E041FE02C058
:1057F00088E590E0B7010E94AA2CC91408F48AC079
:10580000CA94D12C9FEFC91AD90ACA0CDB1CF60125
:1058100082916F01B70190E00E94AA2CAC14BD04E4
:10582000B1F74FCF60817181072E000C880B990B67
:105830000E5F1F4F92CFD32CE894D4F82AE030E0CB
:10584000853739F1232D297FD22E8F3601F148F487
:105850008835A9F0F701868197812B96E2E10C94B7
:105860008525803749F08837A9F7D4FE02C06894AF
:10587000D2F820E130E00DC06894D4F8F6CF34FEC1
:1058800003C0822F8660D82E20E132E002C028E0DB
:1058900030E0F801D7FE0FC0608171818281938171
:1058A0000C5F1F4FA5010E94DA2CC82ECA183D2C90
:1058B000E89437F867CF6081718190E080E00E5FF7
:1058C0001F4FF0CF42FC02C0839478CF839483941F
:1058D00075CF842D867809F471CFF6CFB70180E2B9
:1058E00090E00E94AA2C83948214C0F3512C73CFB1
:1058F000522C5818821408F46ECFF8CF842D867875
:1059000009F47BCF8BE241FE80E247FC8DE2B701D8
:1059100090E071CFB70180E390E00E94AA2C9A94A6
:105920006CCF8FEF9FEF99CFFC01059061507040D5
:105930000110D8F7809590958E0F9F1F0895FC0158
:105940006150704001900110D8F7809590958E0FAE
:105950009F1F08950F931F93CF93DF93182F092F45
:10596000EB018B8181FD09C01FEF0FEF812F902F7D
:10597000DF91CF911F910F91089582FF14C02E8166
:105980003F818C819D81281739073CF4E881F9819A
:10599000CF0101969983888310838E819F81019620
:1059A0009F838E83E3CFE885F985812F0995892B25
:1059B000A1F3DACFFA01AA27283051F1203181F181
:1059C000E8946F936E7F6E5F7F4F8F4F9F4FAF4F07
:1059D000B1E03ED0B4E03CD0670F781F891F9A1F1A
:1059E000A11D680F791F8A1F911DA11D6A0F711DCE
:1059F000811D911DA11D20D009F468943F912AE0DA
:105A0000269F11243019305D3193DEF6CF010895C1
:105A1000462F4770405D4193B3E00FD0C9F7F6CFF2
:105A2000462F4F70405D4A3318F0495D31FD4052BA
:105A3000419302D0A9F7EACFB4E0A6959795879550
:105A400077956795BA95C9F700976105710508952F
:105A50009B01AC010A2E06945795479537952795DB
:105A6000BA95C9F7620F731F841F951FA01D089573
:105A700011E0C2E6D1E004C0FE010E94002621969A
:0A5A8000C336D107C9F7F894FFCF31
:105A8A001003000000E2068000000000006410B766
:105A9A001DC8206E3BAC30D9269041DC76F4516BA0
:105AAA006B5861B24D3C7105502083B8ED44930F99
:105ABA00F0E8A3D6D68CB361CBB0C2649BD4D2D360
:105ACA008678E20AA01CF2BDBD00000100020000B7
