:100000000C9463000C948B000C948B000C948B006C
:100010000C948B000C948B000C948B000C948B0034
:100020000C948B000C948B000C948B000C948B0024
:100030000C948B000C948B000C948B000C948B0014
:100040000C9462090C948B000C94D2090C94AC09AA
:100050000C948B000C948B000C948B000C948B00F4
:100060000C94040A0C948B0000000000240027006C
:100070002A000000000023002600290000000008DC
:10008000000201000003040700000000000000005F
:10009000010204081020408001020408102001021F
:1000A0000408102000000000250028002B00040494
:1000B0000404040404040202020202020303030310
:1000C0000303230BFB1711241FBECFEFD8E0DEBFC5
:1000D000CDBF11E0A0E0B1E0E6ECFBE302C005908B
:1000E0000D92AC33B107D9F724E0ACE3B1E001C025
:1000F0001D92AD32B207E1F710E0C2E6D0E004C0D5
:100100002197FE010E94171AC136D107C9F70E9434
:10011000080C0C94D61D0C940000FC019081909565
:1001200028E030E081E397FF03C0990F982701C0D2
:10013000990F21503109B9F78181892728E030E0F2
:1001400091E387FF03C0880F892701C0880F2150E2
:100150003109B9F70895833081F028F4813099F09E
:100160008230A9F008958730A9F08830C9F0843032
:10017000B1F4809180008F7D03C0809180008F77E3
:1001800080938000089584B58F7784BD089584B5E9
:100190008F7DFBCF8091B0008F778093B000089562
:1001A0008091B0008F7DF9CFCF93DF93282F30E07F
:1001B000F901E458FF4F8491F901E057FF4FD491C2
:1001C000F901E255FF4FC491CC23A1F081110E94A7
:1001D000AB00EC2FF0E0EE0FFF1FEE58FF4FA591A4
:1001E000B491EC91ED2381E090E009F480E0DF919F
:1001F000CF91089580E090E0FACF1F93CF93DF93E3
:10020000282F30E0F901E458FF4F8491F901E057BD
:10021000FF4FD491F901E255FF4FC491CC23A9F0CF
:10022000162F81110E94AB00EC2FF0E0EE0FFF1FA4
:10023000EC55FF4FA591B4918FB7F894EC91111143
:1002400008C0D095DE23DC938FBFDF91CF911F9143
:100250000895DE2BF8CFCF93DF9390E0FC01E057B9
:10026000FF4F249182559F4FFC0184918823D1F048
:1002700090E0880F991FFC01E859FF4FA591B491B8
:10028000FC01EC55FF4FC591D49161110EC09FB791
:10029000F8948C91E22FE0958E238C932881E223B1
:1002A000E8839FBFDF91CF9108958FB7F894EC91C9
:1002B000E22BEC938FBFF6CF3FB7F89480919A0270
:1002C00090919B02A0919C02B0919D0226B5A89BA3
:1002D00005C02F3F19F00196A11DB11D3FBFBA2FD8
:1002E000A92F982F8827BC01CD01620F711D811D98
:1002F000911D42E0660F771F881F991F4A95D1F71D
:1003000008958F929F92AF92BF92CF92DF92EF9219
:10031000FF924B015C010E945C016B017C010E9419
:100320005C016C197D098E099F09683E7340810547
:100330009105A8F321E0821A9108A108B10888EE7E
:10034000C80E83E0D81EE11CF11C81149104A104A5
:10035000B10429F7FF90EF90DF90CF90BF90AF905E
:100360009F908F90089508950895AF92BF92CF9275
:10037000DF92EF92FF920F931F93CF93DF936C0165
:100380007B018B01040F151FEB015E01AE18BF0846
:10039000C017D10759F06991D601ED91FC910190F8
:1003A000F081E02DC6010995892B79F7C501DF9110
:1003B000CF911F910F91FF90EF90DF90CF90BF9062
:1003C000AF900895FC01538D448D252F30E0842F8C
:1003D00090E0821B930B541710F0CF96089501976D
:1003E0000895FC01918D828D981761F0A28DAE0F5A
:1003F000BF2FB11D5D968C91928D9F5F9F73928FE1
:1004000090E008958FEF9FEF0895FC01918D828D0C
:10041000981731F0828DE80FF11D858D90E00895D9
:100420008FEF9FEF0895FC01918D228D892F90E031
:10043000805C9F4F821B91098F739927089580E1FB
:1004400093E00E94130221E0892B09F420E0822F1F
:10045000089580E090E0892B29F00E941F0281110D
:100460000C9400000895FC01A48DA80FB92FB11DB4
:10047000A35ABF4F2C91848D90E001968F739927DA
:10048000848FA689B7892C93A089B1898C918370B8
:1004900080648C93938D848D981306C00288F389B1
:1004A000E02D80818F7D80830895EF92FF920F93DE
:1004B0001F93CF93DF93EC0181E0888F9B8D8C8D10
:1004C00098131AC0E889F989808185FF15C09FB704
:1004D000F894EE89FF896083E889F98980818370C7
:1004E000806480839FBF81E090E0DF91CF911F9176
:1004F0000F91FF90EF900895F62E0B8D10E00F5F97
:100500001F4F0F731127E02E8C8D8E110CC00FB66C
:1005100007FCFACFE889F989808185FFF5CFCE0104
:100520000E943302F1CFEB8DEC0FFD2FF11DE35A4A
:10053000FF4FF0829FB7F8940B8FEA89FB89808187
:100540008062CFCFCF93DF93EC01888D8823B9F001
:10055000AA89BB89E889F9898C9185FD03C08081CE
:1005600086FD0DC00FB607FCF7CF8C9185FFF2CF4B
:10057000808185FFEDCFCE010E943302E9CFDF916C
:10058000CF910895FF920F931F93CF93DF93F82E8F
:10059000C0919C01C23020F061E08C2F0E94FD00D0
:1005A0008BEC97E00197F1F701EC11E0D0E0DF155B
:1005B00049F0F80161918F0180E193E00E945502BA
:1005C000DF5FF5CF80E193E00E94A20280919A0163
:1005D00090919B018230910538F0880F991F880F08
:1005E000991F05970197F1F7C23048F060E08C2F12
:1005F000DF91CF911F910F91FF900C94FD00DF913F
:10060000CF911F910F91FF900895E1ECF1E090E000
:100610002FEF3FEF981791F04191242748E0B9015F
:100620006170772736952795672B21F051E02527B4
:1006300050EA3527415099F79F5FECCF922F832FD7
:1006400008952091BD013091BE012F5F3F4F30933F
:10065000BE012093BD019091B901911115C09091F7
:10066000BC019093C1019091B80190689093C20130
:100670008093C30183E00E9405039093C40180939B
:10068000C50185E00C94C202089520917701260FE0
:100690003327331F21323105ECF42091E602FC01AF
:1006A00090E080E0243069F082E00895A091770125
:1006B0002191AC01495A5E4FA40FB52FB11D2C9367
:1006C0000196861798F380917701680F6093770100
:1006D00080E0089581E008951092E60281E0809321
:1006E000E5021092C00261E082E10E94FD0061E03B
:1006F00083E10E94FD00E9EBF0E080818E7F808342
:1007000080818D7F808388E48093B80085E4809326
:10071000BC000895CF93DF9391E090935601882316
:10072000B9F0C091B800D091BA008091BC008A7B2A
:100730008093BC0060E082E10E94FD0060E083E104
:100740000E94FD000E946C03D093BA00C093B800D1
:10075000DF91CF910895CF92DF92EF92FF920F93A6
:100760001F93CF93DF93D0910F0381E0D13208F034
:100770009CC0C0910E030E945C016B017C018091C2
:10078000E60281116CC082E08093E60281E08093F2
:10079000E5028FEF8093E4021092E302D093E2022D
:1007A000AEEEB2E0E2ECF2E080E0D8138DC0109241
:1007B000C1028091C102CC0FC82BC093C1028091AD
:1007C000C002813009F084C01092C0020E945C0116
:1007D0006B017C018091C1028093BB008091E80293
:1007E0009091E902A091EA02B091EB02892B8A2B49
:1007F0008B2BA1F00E945C010091E8021091E902AC
:100800002091EA023091EB026C197D098E099F0953
:10081000061717072807390708F442C08091BC0063
:1008200083FDD8CF85EC8093BC000E945C016B01F6
:100830007C018091E602823009F44CC08091E40290
:100840008F3F09F469C08091E402803209F466C0E8
:100850008091E402803309F463C084E026C0809173
:10086000E8029091E902A091EA02B091EB02892B93
:100870008A2B8B2B09F483CF0E945C010091E80244
:100880001091E9022091EA023091EB026C197D0986
:100890008E099F09061717072807390708F06FCF39
:1008A0008091E7020E948A0385E01092ED02109287
:1008B0000F031092EC02DF91CF911F910F91FF90E7
:1008C000EF90DF90CF9008959D9191938F5F6DCFC2
:1008D00085EEA9CF8091E8029091E902A091EA0209
:1008E000B091EB02892B8A2B8B2B09F4A2CF0E94AB
:1008F0005C010091E8021091E9022091EA02309136
:10090000EB026C197D098E099F0906171707280746
:10091000390708F08ECFC4CF80E0C7CF82E0C5CFC3
:1009200083E0C3CFCF92DF92EF92FF920F931F939A
:10093000CF93DF93D82FC62F613208F098C00E9462
:100940005C016B017C018091E60281116BC081E04A
:100950008093E6028093E5029FEF9093E402109269
:10096000E3029C0F9093E2028093C1028091C10246
:10097000DD0FD82BD093C1028091C002813009F0E5
:1009800078C01092C0020E945C016B017C018091D2
:10099000C1028093BB008091E8029091E902A0918E
:1009A000EA02B091EB02892B8A2B8B2BA1F00E94DB
:1009B0005C010091E8021091E9022091EA02309175
:1009C000EB026C197D098E099F0906171707280786
:1009D000390708F448C08091BC0083FDD8CF85EC6E
:1009E0008093BC000E945C016B017C018091E60257
:1009F000813009F440C08091E3028C1710F4C0915B
:100A0000E302E2ECF2E0A0EAB2E080E08C1355C031
:100A10008C2FDF91CF911F910F91FF90EF90DF907E
:100A2000CF9008958091E8029091E902A091EA02A6
:100A3000B091EB02892B8A2B8B2B09F484CF0E9477
:100A40005C010091E8021091E9022091EA023091E4
:100A5000EB026C197D098E099F09061717072807F5
:100A6000390708F070CF8091E7020E948A03C0E046
:100A7000CFCF85EEB5CF8091E8029091E902A091A9
:100A8000EA02B091EB02892B8A2B8B2B09F4AECFB3
:100A90000E945C010091E8021091E9022091EA02B3
:100AA0003091EB026C197D098E099F090617170713
:100AB0002807390708F09ACFD6CF91919D938F5F81
:100AC000A5CF0895E0919F0280919E02E81730F42F
:100AD000F0E0E056FD4F808190E008958FEF9FEFAA
:100AE000089590919F0280919E022FEF3FEF9817FB
:100AF00048F4E92FF0E0E056FD4F208130E09F5FA1
:100B000090939F02C901089580919E0290919F0247
:100B1000891B990B0895CF92DF92EF92FF920F936A
:100B20001F93CF93DF937C01CB018A012091EC02CC
:100B3000222389F0EB016B01C40ED51ECC15DD0517
:100B400069F06991D701ED91FC910190F081E02D60
:100B5000C7010995F3CF642F0E944503C801DF91B7
:100B6000CF911F910F91FF90EF90DF90CF9008955C
:100B7000CF93DF931F92CDB7DEB769832091EC024C
:100B80002223F9F020910F03203258F021E030E0C9
:100B9000FC013383228390E080E00F90DF91CF91BE
:100BA00008958091ED02E82FF0E0E251FD4F998128
:100BB00090838F5F8093ED0280930F0381E090E03C
:100BC000ECCF61E0CE0101960E944503F7CF90E0A3
:100BD00080E00895CF92DF92EF92FF920F931F93E0
:100BE0008091500190915101880F991FFC01E45CA4
:100BF000FE4F00811181012E000C220B330B40911E
:100C00005201509153016091540170915501401B64
:100C1000510B620B730B409352015093530160933D
:100C200054017093550123E420937C0020917A00B5
:100C3000206420937A0020917A0026FDFCCF309129
:100C4000780020917900845C9E4F23273227232748
:100C5000FC01318320832091500130915101F90131
:100C6000EE0FFF1FE45CFE4F60817181072E000CC8
:100C7000880B990BC0905201D0905301E090540121
:100C8000F09055016C0D7D1D8E1D9F1D60935201CE
:100C90007093530180935401909355012F5F3F4F00
:100CA0002A3031054CF530935101209350012AE050
:100CB00030E040E050E00E945318CA01B9010E94A0
:100CC0003F1B23E333E343E55BE30E943D1C20E04D
:100CD00030E040EA50E40E943D1C60934102709372
:100CE000420280934302909344021F910F91FF9020
:100CF000EF90DF90CF900895109251011092500123
:100D0000D6CFCF92DF92EF92FF920F931F93CF93A4
:100D1000DF93CDB7DEB729970FB6F894DEBF0FBECD
:100D2000CDBF962F2091150430911604232B09F482
:100D300044C050E070E060E0592B682B8B01222703
:100D40003327C52ED62EE72EFF24BC2DA42F80914D
:100D50001B04882391F0A82FB0E0A09FF001A19F71
:100D6000F00DB09FF00D11240F2F8C9D6001112408
:100D7000BD2D849FA0011124A52FE0912104809115
:100D80001C0490911D0420911E04E21721F0E80F2D
:100D9000F92FF11D1082E0911E04E80FF92FF11DCB
:100DA0000083E0911F04E80FF92FF11DB08320911B
:100DB0002004820F911DFC01A08380911C0490915E
:100DC0001D04892B09F47CC00E945C01009122045F
:100DD0001091230420912404309125046017710799
:100DE0008207930740F46093220470932304809356
:100DF000240490932504009122041091230420914F
:100E0000240430912504601B710B820B930B6C3210
:100E1000714081059105C0F2F8948091170490917A
:100E200018049A838983E0911C04F0911D04DF016A
:100E300011968081898790911304E0912604F091A6
:100E4000270480912804992309F449C09081982BA4
:100E500098879081809589238F838F818C8388E008
:100E60008B8358856F8149853B812C8189819A814B
:100E7000508347FD252F3A952083262F39F0441FB4
:100E800000C000006083000000C0F2CF38E04D9148
:100E900060830000019761F7F0932704E093260434
:100EA00049873B832C839A83898378940E945C01D1
:100EB0006093220470932304809324049093250468
:100EC00029960FB6F894DEBF0FBECDBFDF91CF914C
:100ED0001F910F91FF90EF90DF90CF900895908138
:100EE000982B98879081809589238F838F818E831B
:100EF00088E08D8358856F8149853D812E81898168
:100F00009A81508347FD252F00C000C0208300C078
:100F100000C000C000C000C060830000262F3A95CA
:100F200041F0441F000000C000C000C000C000C06D
:100F3000E8CF38E04D9100C0608300C0019709F709
:100F4000F0932704E093260449873D832E83ABCF9B
:100F5000CF93C62F91E09093EC0299E290930E0309
:100F60001092ED0210920F03682F8DEA93E00E9419
:100F7000B8056C2F8DEA93E00E94B805CF910C94D0
:100F8000AB03CF93C62F9091A30121E02093EC02F5
:100F900090930E031092ED0210920F03682F8DEACA
:100FA00093E00E94B8056C2F8DEA93E00E94B8058B
:100FB000CF910C94AB03613208F060E20E9492047E
:100FC00010929F0280939E020895CF9391E0909398
:100FD000EC0299E290930E031092ED0210920F032F
:100FE000682F8DEA93E00E94B8050E94AB0362E08F
:100FF00070E089E290E00E94DB078DEA93E00E94B6
:101000007105C82F8DEA93E00E94710520E0382F0A
:10101000C9018C2BCF910895CF93C091A30191E08A
:101020009093EC02C0930E031092ED0210920F0306
:10103000682F8DEA93E00E94B8050E94AB0361E03F
:1010400070E08C2FCC0F990B0E94DB078DEA93E0A8
:101050000E947105CF910895CF93C82F843008F076
:10106000C0E084EF0E940C088C7F6C2F682B84EF0B
:10107000CF910C94C107FF920F931F93CF93DF93EF
:10108000082FF92E142FC091A30181E08093EC0268
:10109000C0930E031092ED0210920F038DEA93E0BD
:1010A0000E94B8050E94AB03612F70E08C2FCC0F1B
:1010B000990B0E94DB07C02FDF2D90919E0280913B
:1010C0009F02981751F08C2F801B811730F48DEA06
:1010D00093E00E9471058993F0CFDF91CF911F912A
:1010E0000F91FF900895FC0101900020E9F73197DE
:1010F000AF01481B590BBC0180E193E00C94B50192
:101100008F929F92AF92BF920F931F93CF93DF93D3
:10111000CDB7DEB7A1970FB6F894DEBF0FBECDBF37
:1011200019A2423008F44AE08E010F5D1F4F842E51
:10113000912CB12CA12CA50194010E943118E62F0D
:10114000B901CA01EA30F4F4E05DD801EE938D01F3
:10115000232B242B252B79F790E080E0109719F0B2
:10116000CD010E947308A1960FB6F894DEBF0FBEA2
:10117000CDBFDF91CF911F910F91BF90AF909F9006
:101180008F900895E95CE1CFCF93DF93BC0190E0AD
:1011900080E04AE00E948008EC018DE291E00E942C
:1011A00073088C0F9D1FDF91CF910895CF92DF922E
:1011B000EF92FF92CF93DF936C01990FEE08FF0837
:1011C000F7FE1FC06DE280E193E00E945502EC0142
:1011D00066277727CB016C197D098E099F094AE0A4
:1011E0000E948008C80FD91F8DE291E00E94730809
:1011F0008C0F9D1FDF91CF91FF90EF90DF90CF90EC
:1012000008954AE0C701B6010E948008EC01ECCFC6
:1012100080919D0190919E01892BD9F060EB90E027
:1012200080E00E9413186FEF82E090E00E94131894
:1012300064E170E080E090E00E94810188E198E044
:101240000FB6F894A895809360000FBE909360004D
:10125000FFCF089585ED8093BC008091E8029091C6
:10126000E902A091EA02B091EB020796A11DB11D1F
:1012700023E0B695A795979587952A95D1F7209164
:10128000BC0024FD03C01092E60208954091E802DC
:101290005091E9026091EA027091EB02452B462BD6
:1012A000472B69F30097A105B10541F025E32A9585
:1012B000F1F700000197A109B109E1CF8091E702A0
:1012C0000C948A031F920F920FB60F9211242F9342
:1012D0003F938F939F93AF93BF938091960290918A
:1012E0009702A0919802B09199023091950223E063
:1012F000230F2D3758F50196A11DB11D209395029E
:101300008093960290939702A0939802B0939902CB
:1013100080919A0290919B02A0919C02B0919D02B3
:101320000196A11DB11D80939A0290939B02A093F8
:101330009C02B0939D02BF91AF919F918F913F917D
:101340002F910F900FBE0F901F90189526E8230F36
:101350000296A11DB11DD2CF1F920F920FB60F9210
:1013600011242F933F934F935F936F937F938F93AA
:101370009F93AF93BF93EF93FF9380E193E00E941D
:101380003302FF91EF91BF91AF919F918F917F9128
:101390006F915F914F913F912F910F900FBE0F90E2
:1013A0001F9018951F920F920FB60F9211242F9332
:1013B0008F939F93EF93FF93E0912003F09121038C
:1013C0008081E0912603F091270382FD1BC090816C
:1013D000809129038F5F8F7320912A03821741F038
:1013E000E0912903F0E0E05FFC4F958F80932903A3
:1013F000FF91EF919F918F912F910F900FBE0F90C2
:101400001F9018958081F4CF1F920F920FB60F9204
:1014100011242F933F934F935F936F937F938F93F9
:101420009F93AF93BF93EF93FF938091B900887F11
:10143000803609F44AC0F0F5883209F4A7C018F5DF
:10144000803109F49BC0B8F4882309F4F9C08830CE
:1014500009F494C0FF91EF91BF91AF919F918F914B
:101460007F916F915F914F913F912F910F900FBEA0
:101470000F901F901895883109F488C0803251F779
:101480008093E40214C0803409F49DC040F480339A
:10149000B9F38833F9F68093E40285ECB0C0803567
:1014A00009F485C0883509F496C0883499F60E94FD
:1014B0002A09D0CF883909F48CC038F5883729F04B
:1014C00050F4883611F0803729F683E08093E602E5
:1014D0001092990157C0883809F47BC0803919F0FF
:1014E000803809F0B7CF80919901803208F071C03F
:1014F000E091990181E08E0F809399018091BB006A
:10150000F0E0E758FE4F80833DC0803B39F0E0F4C7
:10151000803A09F479C0883A09F09CCF84E080933E
:10152000E6021092780110927701E091A101F0910A
:10153000A20109958091770181110FC081E080930C
:1015400077011092570109C0803C09F4A6CF883C6E
:1015500009F4A3CF883B09F07DCFE091780181E0C9
:101560008E0F80937801F0E0E95AFE4F80818093DE
:10157000BB00909178018091770129C08091C102D0
:101580008093BB0085EC8093BC0064CF9091E30214
:101590008091E202981758F5E091E30281E08E0F06
:1015A0008093E302F0E0EE53FD4F8081E9CFE091BC
:1015B000E30281E08E0F8093E3028091BB00F0E0B4
:1015C000EE53FD4F80839091E3028091E2029817E1
:1015D000C8F285E8D8CFE091E30281E08E0F8093D6
:1015E000E3028091BB00F0E0EE53FD4F80838091D9
:1015F000E50281115CCF81E08093C00284EA809390
:10160000BC001092E60226CF85EC8093BC001092BD
:10161000E60280919901803230F4E0919901F0E086
:10162000E758FE4F10826091990170E0E0919F01B0
:10163000F091A00189E791E00995109299010ACFF4
:101640001092E40234CFCF9310921303109212033E
:1016500088EE93E0A0E0B0E080931403909315032C
:10166000A0931603B09317032DE031E030931103DC
:101670002093100325EC30E030931D0320931C03CE
:1016800024EC30E030931F0320931E0320EC30E065
:10169000309321032093200321EC30E03093230387
:1016A0002093220322EC30E030932503209324037F
:1016B00026EC30E030932703209326031092290371
:1016C00010922A0310922B0310922C031092B00355
:1016D0001092AF038093B1039093B203A093B3032E
:1016E000B093B4038FE191E09093AE038093AD0388
:1016F00084E08093B903C3E0C093BA0399E0909368
:10170000BB038093BC031092BD0380E18093BE03B2
:101710001092C0031092BF03E1ECF3E082E2DF011C
:101720001D928A95E9F7E3EEF3E080E2DF011D9276
:101730008A95E9F788E0E3E0F4E0DF01982F1D9255
:101740009A95E9F7EBE0F4E0DF011D928A95E9F75D
:101750001092140410921B0410922204109223047D
:10176000109224041092250481E080932104809338
:101770001E0410921F0492E090932004809313049F
:1017800083E090E090931804809317040E94AA1CB1
:1017900090931D0480931C04009789F1FC01119221
:1017A000CA95E9F781E090E09093160480931504C0
:1017B00085E090E090931A048093190480911404BA
:1017C000882341F061E085E00E942B0160E085E024
:1017D0000E94FD00E3EBF0E0E491F0E0EE0FFF1F6C
:1017E000EC55FF4F859194919093270480932604A4
:1017F000E5E9F0E0E491E0932804CF910895109298
:101800001804109217041092160410921504D0CFE9
:10181000CF93DF93CDB7DEB7A4970FB6F894DEBFB2
:101820000FBECDBF789484B5826084BD84B58160DD
:1018300084BD85B5826085BD85B5816085BD80919B
:101840006E00816080936E00109281008091810013
:10185000826080938100809181008160809381000B
:10186000809180008160809380008091B1008460CD
:101870008093B1008091B00081608093B00080912E
:101880007A00846080937A0080917A0082608093ED
:101890007A0080917A00816080937A0080917A004A
:1018A000806880937A001092C10061E087E00E9416
:1018B0002B0160E082E00E942B0160E083E00E9447
:1018C0002B0189EB93E090939E0180939D0181E031
:1018D00090E00E940B189FEF980F973F08F03BC3D2
:1018E0008093BE038091BE03282F30E03093C20363
:1018F0002093C10328E039E03093BB012093BA0163
:10190000C090BD03D12CA090BC03B12C8090BB0330
:10191000912C0091BA0310E00F5F1F4FF090B903B4
:101920008093BC01E0912003F091210382E0808349
:10193000E0911C03F0911D031082E0911E03F091D1
:101940001F0383E3808310922803E0912403F09126
:10195000250386E08083E0912203F09123038081B8
:1019600080618083E0912203F0912303808188606D
:101970008083E0912203F09123038081806880833B
:10198000E0912203F091230380818F7D808321E009
:101990002F1550F4F0929C0161E08F2D0E942B01D5
:1019A00060E08F2D0E94FD008EEE92E09093C001CA
:1019B0008093BF0186ED96E090939B0180939A01FE
:1019C0001093A7010093A6019092A5018092A40113
:1019D000B092B701A092B601D092A901C092A8011D
:1019E0001092BE011092BD018091BB03882371F05B
:1019F00021E03CE03093E4032093E303823030F0B5
:101A00008CE090E09093E6038093E5039091BC0313
:101A1000923038F081E080930404923011F080938A
:101A2000050483E090E00E940B188F3F09F49CC2EC
:101A3000082E000C990B9093020180930101809174
:101A4000190490911A0497FD08C061E00E942B01CF
:101A500060E0809119040E94FD0081E080931404ED
:101A6000409117045091180470E060E080911C04CC
:101A700090911D040E94CF1D10929F0210929E0211
:101A80001092ED0210920F030E946C0383EB91E021
:101A90009093A2018093A10184EB91E09093A00127
:101AA00080939F0184E48093450286E78093A3019D
:101AB00062E070E080E090E00E94810180ED0E9491
:101AC0000C08182F682F70E090E080E040E10E9441
:101AD00080088DE291E00E947308103609F0BAC1C7
:101AE00080E391E00E9473088DE291E00E94730808
:101AF00089E80E940C08082F88E80E940C0810E072
:101B0000102F0027080F111D10934F0200934E0253
:101B10008BE80E940C08F82E8AE80E940C082F2DF2
:101B200030E0322F2227820F932F911D9093510284
:101B3000809350028DE80E940C08F82E8CE80E94D9
:101B40000C082F2D30E0322F2227820F932F911D6A
:101B500090935302809352028FE80E940C08F82E53
:101B60008EE80E940C082F2D30E0322F2227820FA2
:101B7000932F911D909355028093540281E90E9406
:101B80000C08F82E80E90E940C082F2D30E0322F2F
:101B90002227820F932F911D909357028093560214
:101BA00083E90E940C08F82E82E90E940C082F2D70
:101BB00030E0322F2227820F932F911D90935902EC
:101BC0008093580285E90E940C08F82E84E90E944F
:101BD0000C082F2D30E0322F2227820F932F911DDA
:101BE00090935B0280935A0287E90E940C08F82EBA
:101BF00086E90E940C082F2D30E0322F2227820F19
:101C0000932F911D90935D0280935C0289E90E945D
:101C10000C08F82E88E90E940C082F2D30E0322F96
:101C20002227820F932F911D90935F0280935E0273
:101C30008BE90E940C08F82E8AE90E940C082F2DCF
:101C400030E0322F2227820F932F911D9093610253
:101C5000809360028DE90E940C08F82E8CE90E94A6
:101C60000C082F2D30E0322F2227820F932F911D49
:101C700090936302809362028FE90E940C08F82E11
:101C80008EE90E940C082F2D30E0322F2227820F80
:101C9000932F911D909365028093640281EA0E94C4
:101CA0000C088093660282EE0E940C08F82E81EEEA
:101CB0000E940C082F2D30E0322F2227820F932F05
:101CC000911D909368028093670283EE0E940C0836
:101CD0008093690284EE0E940C08F82E85EE0E9423
:101CE0000C0840E1F49E900111248F70820F932F15
:101CF000911D90936B0280936A0286EE0E940C08FD
:101D0000F82E85EE0E940C0850E1F59E90011124FA
:101D100090E054E0959587955A95E1F7820F931FCF
:101D200090936D0280936C0287EE0E940C08809362
:101D30006E02C8010E94C408809150029091510225
:101D40000E94D60880915202909153020E94D608B8
:101D500089E80E940C08182F88E80E940C08212F9F
:101D600030E0322F2227820F932F911D0E94C4084A
:101D70008FE80E940C08182F8EE80E940C08212F73
:101D800030E0322F2227820F932F911D0E94C4082A
:101D900082EE0E940C08182F81EE0E940C08212F61
:101DA00030E0322F2227820F932F911D0E94C4080A
:101DB00085EF0E940C08682F6F7185EF0E94C107A4
:101DC00085EF0E940C08682F637E85EF0E94C10793
:101DD00084EF0E940C08182F80E00E942C0884EFEA
:101DE0000E940C08837E682F646084EF0E94C10704
:101DF000812F83700E942C0884EF0E940C08182FFA
:101E000080E00E942C0882EF0E940C08887F682FD7
:101E1000616082EF0E94C107812F83700E942C08AD
:101E200084EF0E940C08182F80E00E942C0884EF99
:101E30000E940C088F71682F606284EF0E94C107B6
:101E4000812F83700E942C0883E00E942C0880ED73
:101E50000E940C0881E08093EC0289E280930E03DB
:101E60001092ED0210920F0362EB8DEA93E00E9454
:101E7000B8050E94AB0361E070E089E290E00E9447
:101E8000DB078DEA93E00E947105803589F463E9F0
:101E900080EA0E94A8071091730280910001182B1C
:101EA000612F81EA0E94A807612F81EA0E94A8079A
:101EB0001AE00E94EA051150E1F740E060E082E399
:101EC0000E94810664E670E080E090E00E9481015B
:101ED00040E062E380E00E94810664E670E080E01A
:101EE00090E00E94810142E360E080E00E94810670
:101EF00064E670E080E090E00E94810140E060E0F4
:101F000080E00E948106CE01079698878F8380919A
:101F1000BE0390E09093C2038093C10310E0F12CC4
:101F200080E193E00E941302892B81F11123F9F0E3
:101F300080E193E00E94F1018091BF019091C00186
:101F40008230910568F3880F991F880F991F0597B4
:101F50000197F1F7E5CF80E18093BE0360E181E076
:101F600090E00E941318BECC82E090E064CD11E0B6
:101F700090E8F91210E080E193E00E94F101EF2D6A
:101F8000F0E0EF53FE4F8083F394D6CF112309F492
:101F90001BC58091BD019091BE019C012F5F3F4FF9
:101FA0003093BE012093BD019093C0038093BF0383
:101FB0002091BA038091C3039091C403211102C000
:101FC00090E080E0B0E0A0E08B309105A105B10584
:101FD00009F02DC71091C503223008F410E083E00A
:101FE00090E00E940B18181729F0612F83E090E011
:101FF0000E9413181091BB03133008F482C020E034
:1020000030E048EC52E460914102709142028091CC
:102010004302909144020E943D1C0E94081B709351
:10202000E8036093E703143008F46BC020E030E06D
:1020300048EC52E46091890270918A0280918B028F
:1020400090918C020E943D1C0E94081B7093EA0331
:102050006093E903153008F454C020E030E048EC08
:1020600052E460918502709186028091870290917E
:1020700088020E943D1C0E94081B7093EC03609331
:10208000EB031630F0F120E030E048EC52E46091D0
:1020900081027091820280918302909184020E9459
:1020A0003D1C0E94081B7093EE036093ED031730F4
:1020B00040F120E030E048EC52E460917D02709104
:1020C0007E0280917F02909180020E943D1C0E94BE
:1020D000081B7093F0036093EF03183090F0809129
:1020E0007B0290917C029093F2038093F10319306C
:1020F00040F08091790290917A029093F40380935A
:10210000F3038091BC03843090F06091740270E01E
:1021100090E080E00E943D1B11E020E030E0A9014A
:102120000E948A1A811101C010E0109306048FB733
:10213000F8948090960290909702A0909802B090A8
:1021400099028D869E86AF86B88A8FBF8091BC0328
:10215000823008F4E2C680910404882309F4DDC6C5
:102160008091910290919202A0919302B091940279
:10217000B501A401481B590B6A0B7B0B209101018F
:1021800030910201E8EEAE2EE3E0BE2E2A9DC001A2
:102190002B9D900D3A9D900D1124B0E0A0E04817C2
:1021A00059076A077B0708F4B8C68D849E84AF84FC
:1021B000B8888092910290929202A0929302B0927B
:1021C000940210914502992493949092EC021093FA
:1021D0000E031092ED0210920F0364E28DEA93E079
:1021E0000E94B80560E08DEA93E00E94B8050E9465
:1021F000AB0364E170E080E090E00E94810166E062
:10220000812F0E94920410929F0280939E0286303A
:1022100079F48E010F5F1F4F8DEA93E00E947105E4
:10222000D8018D938D018F809884A815B905A1F7E9
:102230001B81CE0101960E948D0018134BC01E8198
:10224000CE0104960E948D00181344C029813A8162
:10225000322723273227A7E1B1E10E9472183EE01E
:1022600095958795779567953A95D1F7645971411A
:10227000810991090E943F1B20E030E048EC52E4C4
:102280000E948F1A6093460270934702809348021F
:10229000909349022C813D81322723273227A1E7E1
:1022A000B2E00E9472184CE09695879577956795F5
:1022B0004A95D1F70E943D1B20E030E048EC52E403
:1022C0000E948F1A60934A0270934B0280934C02D3
:1022D00090934D028091460290914702A09148024E
:1022E000B09149028093890290938A02A0938B0255
:1022F000B0938C0243E06AEFCE0101960E943B0846
:10230000898190E0B0E0A0E02CE0880F991FAA1F1F
:10231000BB1F2A95D1F74A8150E070E060E034E0BD
:10232000440F551F661F771F3A95D1F7842B952BC5
:10233000A62BB72B2B8122952F70822B40914E021A
:1023400050914F0270E060E06C017D01E4E0F59493
:10235000E794D794C794EA95D1F7C41AD50AE60A48
:10236000F70AF3E0B595A79597958795FA95D1F774
:10237000440F551F661F771F4C015D01841A950A93
:10238000A60AB70AA5019401A0915002B09151028A
:102390000E948C184B015C010BE0B594A7949794B4
:1023A00087940A95D1F7A7019601C701B6010E944B
:1023B00021189B01AC018CE05595479537952795E1
:1023C0008A95D1F7A0915202B09153020E948C18C5
:1023D0002EE095958795779567952A95D1F7860E86
:1023E000971EA81EB91E80926F0290927002A09252
:1023F0007102B0927202A5E0B0E0A50194010E94C2
:10240000811860587F4F8F4F9F4F672F782F892FEC
:10241000992787FD9A950E943F1B20E030E048EC09
:1024200052E40E948F1A20E030E0A9010E941E1A97
:1024300020E030E040E151E40E943D1C20E030E02B
:1024400040EA50E40E948F1A20E030E040E052E47D
:102450000E941E1A60938502709386028093870201
:102460009093880280914A0290914B02A0914C0275
:10247000B0914D028093810290938202A0938302D7
:10248000B093840242E06DEFCE0101960E943B08BA
:10249000A50194013C524140510929873A874B8755
:1024A0005C87C980DA80DC24CD24DC24F12CE12C8B
:1024B0006EE0CC0CDD1CEE1CFF1C6A95D1F7809100
:1024C0006A0290916B02092E000CAA0BBB0B74E1FF
:1024D000880F991FAA1FBB1F7A95D1F7C81AD90A6E
:1024E000EA0AFB0AA0916C02B0916D020E948C185E
:1024F000C61AD70AE80AF90A30E4D30EE11CF11C27
:10250000EFE0F594E794D794C794EA95D1F7A091BA
:102510006902B0E029853A854B855C850E94811867
:102520002B013C01FBE07594679457944794FA950E
:10253000D1F740E8540E611C711CA0916E020A2E66
:10254000000CBB0B29853A854B855C850E948C1855
:10255000AAE09595879577956795AA95D1F7A301F8
:1025600092010E9421189B01AC01BAE05595479554
:1025700037952795BA95D1F7405E5F4FA0916702D6
:10258000B09168020E948C18705E8F4F9F4F1EE0C2
:1025900095958795779567951A95D1F7A701960137
:1025A0000E9421186B017C010FE095958795779526
:1025B00067950A95D1F79B01AC010E9421189B01F8
:1025C000AC0187E055954795379527958A95D1F7C2
:1025D000A0916602B0E00E94811824E0959587954D
:1025E000779567952A95D1F7C61AD70AE80AF90AA6
:1025F000F7FE03C0C12CD12C7601C701B6016130B2
:102600007105810559E1950724F060E070E080E0F4
:1026100099E11CE095958795779567951A95D1F77F
:102620000E943F1B20E030E040E85AE30E943D1C3E
:1026300060937D0270937E0280937F02909380026C
:1026400043E067EFCE0101960E943B0875016401EB
:10265000FF0CCC08DC2C76019401A5016C2D7C2D9F
:102660008C2D9C2D345F414051096109710981090C
:1026700091092987398B4A8B5B8B6C8B7D8B8E8B79
:102680009F8B59016A017B018C010E949418288F4D
:10269000398F4A8F58A369A37AA38BA39CA3309147
:1026A000570220915602932F990F990B492F592FBA
:1026B000692F792F892F0E9494180CE00E94C3196A
:1026C00019012A013B014C01309159022091580215
:1026D000932F990F990BA88CB98CCA8CD8A0E9A01C
:1026E000FAA00BA11CA1492F592F692F792F892FEF
:1026F0000E94941808E00E94DC19510162017301E4
:1027000084010E94F91970588F4F9F4F20905402F6
:10271000309055025101C12CD12CE12CF12C00E05C
:1027200010E00E94941801E20E94DC192B8F3C8F6C
:102730004D8F5E8F6F8F272E382E492EA0E00E947E
:102740000B1A09F48AC330915F0220915E02932F25
:10275000990F990BA88CB98CCA8CD8A0E9A0FAA0C3
:102760000BA11CA1492F592F692F792F892F0E9466
:102770009418288F398F4A8F552E3B014C01309188
:102780005D0220915C02932F990F990BA984B9885F
:10279000CA88DB88EC88FD880E891F89492F592F4C
:1027A000692F792F892F0E94941801E10E94C31983
:1027B000A88CB98CCA8CD52C730184010E94F9199C
:1027C00059016A017B01582E192F8A8190E0B0E0EF
:1027D000A0E044E0880F991FAA1FBB1F4A95D1F7BC
:1027E0002B8122952F70822B498150E070E060E0B0
:1027F000ECE0440F551F661F771FEA95D1F7842B35
:10280000952BA62BB72B20E030E040E150E0281BB1
:10281000390B4A0B5B0B39014A01990C6608762C7F
:102820004301662D762D862D962D0FE10E94C3194A
:1028300039014A01B62FA72FF82FE92F30915B02FB
:1028400020915A02932F990F990B492F592F692FD5
:10285000792F892F03E20E94C319052D0E94F919CF
:1028600059016A017B018C019301A4016B2F7A2F1E
:102870008F2F9E2F0E94021AA5E3AA2EBCE0BB2E2A
:10288000C12CD12CE12CF12C00E010E00E94941816
:10289000AB8CBC8CCD8CDE8CEF8CF22C032D142DEC
:1028A0000E94EE182987398B4A8B5B8B6C8B7D8B52
:1028B0008E8B9F8B0DE00E94DC19322E432E542EFE
:1028C000652E762E872E982E292E30916502209126
:1028D0006402932F990F990BA32CB42CC52CD62CE2
:1028E000E72CF82C092D122D492F592F692F792FFC
:1028F000892F0E9494180E94941809E10E94DC1903
:10290000A984B988CA88DB88EC88FD880E891F896C
:102910000E94F91919012A013B014C01309163020F
:1029200020916202932F990F990B492F592F692FEC
:10293000792F892F0E94941803E10E94DC19590114
:102940006A017B018C019101A201B301C4010E94C3
:10295000F91908E00E94DC1959016A017B01E82F8E
:10296000192F3091610220916002932F990F990BDA
:10297000492F592F692F792F892F04E00E94C319FD
:102980000E2F0E94F9190E94371B20E030E048EC1E
:1029900056E40E948F1A0E94011B70937C02609380
:1029A0007B0210E080917302082E000C990B18171F
:1029B000190611F00CF055C268E770E080E090E075
:1029C0000E9481011F5FEECFA6E0FA123FC09091F6
:1029D000C1018091BC01981334C084E00E940503BA
:1029E0002091C5013091C601322723273227821753
:1029F000930709F012C28091C201813409F00DC21F
:102A00008091C301803B21F083E00E94210319C023
:102A10008091C4018730C1F71092C3011092C401A4
:102A200084E00E9405039093C5018093C60186E06F
:102A30000E94C202E091BA01F091BB01309709F007
:102A400009958091BD019091BE01AECAB6E0BF1557
:102A500008F0DEC18091C101882309F475C010928D
:102A6000B901E090BC018E1521F08091B901882355
:102A700041F30F2D10E08EEF8F0D0E94050398019A
:102A80002F533E4FF9013297408121503109D9012E
:102A90002C91342F2817390709F0BFC14091C2018A
:102AA0004093B8012091C3013091C40132272327FC
:102AB00032278091C5019091C601982789279827D0
:102AC0005091C501BC01620F731FF090B901F11064
:102AD0006BC2413009F071C0E091B601F091B701CD
:102AE0002E173F0708F085C2E617F70708F48CCFCA
:102AF0008830910568F54093B50160E030E0422FE1
:102B000050E04817590788F54D5F5B4FFA01408147
:102B1000442399F0E62FF0E0E655FE4F4081812CEA
:102B2000912C54018394032E04C0880C991CAA1C78
:102B3000BB1C0A94D2F7482940833F5F383010F01D
:102B40006F5F30E02F5FDBCFE1E0E093B90189CF29
:102B5000AC01E3E056954795EA95E1F7BC01677053
:102B60007727672B41F24F5FC6CF2093B401809146
:102B7000B50115E0180FE092C1018093C301AF2D9C
:102B8000B0E0E3E0EF0DF0E0EF53FE4FA655BE4F8F
:102B90009C9190831C92F3948F1588F78D5F0E940F
:102BA0000503212F30E02F533E4FF90132979083D8
:102BB00021503109D9018C93A5C0423009F063C07E
:102BC0004091A8015091A9012417350708F011C2BE
:102BD0004617570708F418CF8830910550F5B1E033
:102BE000B093B50160E030E0422F50E0481759073C
:102BF00080F5455F5B4FFA014081442399F0E62F51
:102C0000F0E0E655FE4F4081812C912C54018394D5
:102C1000032E04C0880C991CAA1CBB1C0A94D2F772
:102C2000482940833F5F383010F06F5F30E02F5FFE
:102C3000DBCFAC0163E0569547956A95E1F7BC019F
:102C400067707727672B19F44093B501CBCF4F5F9F
:102C5000FBCF2093B4018091B50115E0180FE092ED
:102C6000C1018093C301AF2DB0E0E3E0EF0DF0E0D0
:102C7000EF53FE4FA655BE4F9C9190831C92F39448
:102C80008F1588F78BCF433009F040C0E091A60143
:102C9000F091A7012E173F0708F0ABC1E617F70721
:102CA00008F4B2CE880F8093B50115E0180FE092BA
:102CB000C1018093C301E22FF0E0E617F707A0F40B
:102CC000EE0FFF1FEF53FC4F90813181E42FF0E0B6
:102CD000EF53FE4F3083E1E0E40FF0E0EF53FE4F9F
:102CE00090834E5F2F5FE7CF8D5F0E940503212FFA
:102CF00030E02F533E4FF901329790832150310934
:102D0000F9018083812F0E94C2029BCE443081F55D
:102D10004091A4015091A5012417350708F069C11D
:102D20004617570708F470CE880F8093B50115E059
:102D3000180FE092C1018093C30193E0E22FF0E00D
:102D4000E617F70708F02ACFEE0FFF1FED51FC4FF3
:102D500030814181E92FF0E0EF53FE4F4083E1E005
:102D6000E90FF0E0EF53FE4F30839E5F2F5FE6CF19
:102D7000453009F032C18091B6019091B701281712
:102D8000390708F036C1F901ED5FFB4F5F3F21F4D1
:102D9000B1E0B08388E0B7CF1082FCCF4031B1F50D
:102DA0008091C7010950110980171106B1F5809172
:102DB000A6019091A7012817390708F01AC18617B4
:102DC000970708F421CE37E0822F90E08617970707
:102DD00098F4E32FF0E0880F991FDC01AF53BC4F4C
:102DE000EF53FE4F808191818927982789278D9302
:102DF0009C933E5F2F5FE8CF86E00E94050390938F
:102E0000C7018093C801F1101CCEC4CF81E0FDCD75
:102E10008FEF8F0D853008F014CE8091BD01909119
:102E2000BE0101969093BE018093BD010ACE0C971E
:102E3000A105B10509F0DEC8223068F08091C50314
:102E40004091C7036091C803223011F440E060E074
:102E50000E948106CFC880E0F9CF60E070E0CB012E
:102E60009ACD84EB0E94E5078C0186EB0E94E50772
:102E7000B0E0A0E0DC0199278827A80170E060E0BD
:102E8000802B952BA62BB72BAD0166277727841BAC
:102E9000950B90937A02809379020E94EA0582E072
:102EA0000E94D4009C01892B99F04FB7F89480912F
:102EB000960290919702A0919802B09199024FBF0B
:102EC0008093750290937602A0937702B093780274
:102ED0008FB7F894409196025091970260919802B2
:102EE000709199028FBF8091750290917602A091A6
:102EF0007702B0917802481B590B6A0B7B0B4B3F52
:102F000051056105710548F091E0232B09F490E02B
:102F1000809174029813909374028091BC03833063
:102F200088F180910504882369F180918D02909148
:102F30008E02A0918F02B09190028D849E84AF8406
:102F4000B888881A990AAA0ABB0AD501C401843F25
:102F50009140A105B105B0F08D849E84AF84B888FE
:102F600080928D0290928E02A0928F02B092900277
:102F700087E00E94D40061E0892B09F060E087E0DF
:102F80000E94FD0080E0A82E80E0B82EAB2811F44E
:102F90000C94870F0E941F02882311F40C94830F56
:102FA0000E9400000C94830F463009F0F7CE409148
:102FB000A6015091A70124173507D8F4220F331F1B
:102FC000F901EF53FC4F9183808386E00E94050353
:102FD0009093C7018093C801DDCE463041F34F3056
:102FE00009F0DCCE8091B6019091B701281739071E
:102FF00060F382E00ACD80911C0490911D040E9430
:10300000461D8091190490911A0497FD03C060E059
:103010000C942B010895F999FECF92BD81BDF89AC9
:10302000992780B50895262FF999FECF1FBA92BD32
:1030300081BD20BD0FB6F894FA9AF99A0FBE019699
:103040000895DB018F939F930E948118BF91AF91E8
:10305000A29F800D911DA39F900DB29F900D1124F2
:103060000895A1E21A2EAA1BBB1BFD010DC0AA1FC9
:10307000BB1FEE1FFF1FA217B307E407F50720F0E1
:10308000A21BB30BE40BF50B661F771F881F991F5C
:103090001A9469F760957095809590959B01AC01A5
:1030A000BD01CF010895052E97FB1EF400940E94E8
:1030B0006A1857FD07D00E94311807FC03D04EF460
:1030C0000C946A1850954095309521953F4F4F4F7D
:1030D0005F4F089590958095709561957F4F8F4FC4
:1030E0009F4F0895A29FB001B39FC001A39F700D91
:1030F000811D1124911DB29F700D811D1124911D00
:1031000008950E947218A59F900DB49F900DA49FE2
:10311000800D911D11240895B7FF0C9481180E9411
:103120008118821B930B0895DF93CF931F930F9306
:103130009A9DF02D219FF00D8B9DF00D8A9DE02D25
:10314000F10D039FF00D029FE00DF11D4E9DE00D6E
:10315000F11D5E9DF00D4F9DF00D7F936F93BF921B
:10316000AF925F934F93D5010E9472188B01AC010F
:10317000D7010E947218EB01E80FF91FD6010E94D7
:10318000E3182F913F91D6010E947218C60FD71FE6
:10319000E81FF91FAF91BF910E94E3182F913F9153
:1031A0000E947218C60FD71FE81FF91FD6010E9490
:1031B0007218E60FF71F9801BE01CF010F911F9102
:1031C000CF91DF9108950E947218460F571FC81FB4
:1031D000D91F08F431960895689401C0E894F92F36
:1031E000F12B12F00C942019A0E0B0E0EAEFF8E126
:1031F0000C949219092E059422F40E947C19112333
:1032000092F4F0E80F26FFEFE094F094009510950B
:10321000B094C094D094A194BF0ACF0ADF0AEF0AF9
:10322000FF0A0F0B1F0B0E942B1907FC0E947C1931
:10323000CDB7DEB7ECE00C94AE19689401C0E89409
:103240008F929F92CF93DF930E942B19DF91CF91A2
:103250009F908F90089588249924F401E401B0E4AC
:103260009F93AA279A158B049C04ED05FE05CF05B4
:10327000D007A10798F4AD2FDC2FCF2FFE2FE92D1B
:10328000982C892E982F872F762F652F542F432F18
:10329000322F2227B85031F7BF9127C01B2EBF9184
:1032A000BB27220F331F441F551F661F771F881F20
:1032B000991F881C991CEE1FFF1FCC1FDD1FAA1F22
:1032C000BB1F8A149B04EC05FD05CE05DF05A00796
:1032D000B10748F08A189B08EC09FD09CE09DF09FF
:1032E000A00BB10B21601A94E1F62EF49401AF010A
:1032F000BE01CD01000C0895609570958095909564
:1033000030954095509521953F4F4F4F5F4F6F4FF0
:103310007F4F8F4F9F4F08952F923F924F925F9212
:103320006F927F928F929F92AF92BF92CF92DF92D5
:10333000EF92FF920F931F93CF93DF93CDB7DEB73A
:10334000CA1BDB0B0FB6F894DEBF0FBECDBF0994CE
:103350002A88398848885F846E847D848C849B8425
:10336000AA84B984C884DF80EE80FD800C811B8133
:10337000AA81B981CE0FD11D0FB6F894DEBF0FBE62
:10338000CDBFED010895002E083090F0982F872FC3
:10339000762F652F542F432F322F22270850F4CF3A
:1033A000220F331F441F551F661F771F881F991F49
:1033B0000A95B2F7002D089597FD1094002E08305D
:1033C00098F00850232F342F452F562F672F782F32
:1033D000892F912DF4CF15949795879577956795BB
:1033E00057954795379527950A95AAF71124002DEB
:1033F00008952A0D3B1D4C1D5D1D6E1D7F1D801FF8
:10340000911F08952A193B094C095D096E097F092E
:10341000800B910B08950024A7FD00942A17300516
:103420004005500560057005800590050895EE0F74
:10343000FF1F0590F491E02D09945058BB27AA274F
:103440000E94351A0C94031C0E94F51B38F00E9450
:10345000FC1B20F039F49F3F19F426F40C94E21B76
:103460000EF4E095E7FB0C94DC1BE92F0E94141C82
:1034700058F3BA17620773078407950720F079F4A9
:10348000A6F50C94361C0EF4E0950B2EBA2FA02D49
:103490000B01B90190010C01CA01A0011124FF2701
:1034A000591B99F0593F50F4503E68F11A16F040FC
:1034B000A22F232F342F4427585FF3CF46953795FB
:1034C0002795A795F0405395C9F77EF41F16BA0BC0
:1034D000620B730B840BBAF09150A1F0FF0FBB1F6E
:1034E000661F771F881FC2F70EC0BA0F621F731FB7
:1034F000841F48F4879577956795B795F7959E3F14
:1035000008F0B0CF9395880F08F09927EE0F9795A4
:10351000879508950E94B81B08F481E008950E94E1
:10352000A31A0C94031C0E94FC1B58F00E94F51B6C
:1035300040F029F45F3F29F00C94DC1B51110C94EE
:10354000371C0C94E21B0E94141C68F39923B1F3FE
:10355000552391F3951B550BBB27AA2762177307B9
:10356000840738F09F5F5F4F220F331F441FAA1F4D
:10357000A9F335D00E2E3AF0E0E832D09150504009
:10358000E695001CCAF72BD0FE2F29D0660F771FB7
:10359000881FBB1F261737074807AB07B0E809F09D
:1035A000BB0B802DBF01FF2793585F4F3AF09E3F22
:1035B000510578F00C94DC1B0C94371C5F3FE4F34E
:1035C000983ED4F3869577956795B795F7959F5F65
:1035D000C9F7880F911D9695879597F90895E1E0B1
:1035E000660F771F881FBB1F621773078407BA0710
:1035F00020F0621B730B840BBA0BEE1F88F7E0956B
:1036000008950E94081B6894B1110C94371C08950A
:103610000E941C1C88F09F5798F0B92F9927B7512A
:10362000B0F0E1F0660F771F881F991F1AF0BA9566
:10363000C9F714C0B13091F00E94361CB1E0089572
:103640000C94361C672F782F8827B85F39F0B93F64
:10365000CCF3869577956795B395D9F73EF4909519
:103660008095709561957F4F8F4F9F4F089597FB81
:1036700016F40E94E51B0C947B1BE89409C097FB91
:103680003EF490958095709561957F4F8F4F9F4F39
:103690009923A9F0F92F96E9BB279395F69587957D
:1036A00077956795B795F111F8CFFAF4BB0F11F440
:1036B00060FF1BC06F5F7F4F8F4F9F4F16C08823E7
:1036C00011F096E911C0772321F09EE8872F762F1D
:1036D00005C0662371F096E8862F70E060E02AF05E
:1036E0009A95660F771F881FDAF7880F969587954A
:1036F00097F90895E894F92F96EBFF2381F01216BD
:1037000013061406440B9395F69587957795679560
:1037100057954040FF23B9F71BC099270895882388
:1037200051F49850D2F7872B762F652F542F432FC3
:10373000322F20E0B1F3121613061406440B88232F
:103740003AF09A95440F551F661F771F881FCAF7D6
:1037500055234AF4440F551F11F460FF04C06F5FF6
:103760007F4F8F4F9F4F880F9695879597F90895B4
:10377000990F0008550FAA0BE0E8FEEF1616170682
:10378000E807F907C0F012161306E407F50798F0EA
:10379000621B730B840B950B39F40A2661F0232B03
:1037A000242B252B21F408950A2609F4A140A6957F
:1037B0008FEF811D811D089597F99F6780E870E064
:1037C00060E008959FEF80EC089590958095709546
:1037D000609550954095309521953F4F4F4F5F4FE5
:1037E0006F4F7F4F8F4F9F4F089500240A941616F6
:1037F000170618060906089500240A9412161306DF
:10380000140605060895092E0394000C11F488236C
:1038100052F0BB0F40F4BF2B11F460FF04C06F5F88
:103820007F4F8F4F9F4F089557FD9058440F551F5E
:1038300059F05F3F71F04795880F97FB991F61F032
:103840009F3F79F087950895121613061406551FA9
:10385000F2CF4695F1DF08C0161617061806991F15
:10386000F1CF86957105610508940895E894BB270A
:1038700066277727CB0197F908950E94501C0C9476
:10388000031C0E94F51B38F00E94FC1B20F09523BE
:1038900011F00C94DC1B0C94E21B11240C94371CCB
:1038A0000E94141C70F3959FC1F3950F50E0551FB3
:1038B000629FF001729FBB27F00DB11D639FAA2785
:1038C000F00DB11DAA1F649F6627B00DA11D661FD4
:1038D000829F2227B00DA11D621F739FB00DA11DF5
:1038E000621F839FA00D611D221F749F3327A00DAF
:1038F000611D231F849F600D211D822F762F6A2F4B
:1039000011249F5750409AF0F1F088234AF0EE0FAF
:10391000FF1FBB1F661F771F881F91505040A9F7DC
:103920009E3F510580F00C94DC1B0C94371C5F3FCC
:10393000E4F3983ED4F3869577956795B795F79518
:10394000E7959F5FC1F7FE2B880F911D9695879590
:1039500097F908950F931F93CF93DF9382309105CA
:1039600010F482E090E0E0912B04F0912C0430E020
:1039700020E0B0E0A0E0309799F42115310509F47A
:103980004AC0281B390B24303105D8F58A819B8128
:103990006115710589F1FB0193838283FE0111C0DA
:1039A000408151810281138148175907E0F048177F
:1039B000590799F4109761F012960C931297139689
:1039C0001C933296CF01DF91CF911F910F910895F3
:1039D00000932B0410932C04F4CF2115310551F0E2
:1039E0004217530738F0A901DB019A01BD01DF013D
:1039F000F801C1CFEF01F9CF90932C0480932B04F1
:103A0000CDCFFE01E20FF31F819391932250310934
:103A100039832883D7CF2091290430912A04232B7E
:103A200041F4209105013091060130932A0420933E
:103A3000290420910301309104012115310541F43D
:103A40002DB73EB74091070150910801241B350B5B
:103A5000E0912904F0912A04E217F307A0F42E1B49
:103A60003F0B2817390778F0AC014E5F5F4F2417E2
:103A7000350748F04E0F5F1F50932A0440932904E6
:103A8000819391939FCFF0E0E0E09CCFCF93DF93C1
:103A90000097E9F0FC01329713821282A0912B0467
:103AA000B0912C04ED0130E020E01097A1F42081CA
:103AB0003181820F931F2091290430912A04281705
:103AC000390709F061C0F0932A04E0932904DF91DB
:103AD000CF910895EA01CE17DF07E8F54A815B81AF
:103AE0009E0141155105B1F7E901FB83EA83499134
:103AF0005991C40FD51FEC17FD0761F480819181A6
:103B00000296840F951FE9019983888382819381AE
:103B10009B838A83F0E0E0E012968D919C9113974D
:103B20000097B9F52D913C911197CD010296820F26
:103B3000931F2091290430912A042817390739F658
:103B4000309751F510922C0410922B04B0932A0454
:103B5000A0932904BCCFD383C28340815181840FB9
:103B6000951FC817D90761F44E5F5F4F888199810F
:103B7000480F591F518340838A819B81938382839D
:103B80002115310509F0B0CFF0932C04E0932B04FC
:103B90009ECFFD01DC01C0CF13821282D7CFDC01A2
:103BA00001C06D9341505040E0F7089510E0C2E627
:103BB000D0E004C0FE010E94171A2196C336D10737
:063BC000C9F7F894FFCFE5
:103BC60010030000002D048000000000005502B51F
:103BD60001E201A2021302F101050200000000B891
:103BE600058B05E70561058405710562050D0A006B
:0C3BF60043686970204944204F4B0000D8
:00000001FF
