:100000000C9463000C948B000C948B000C948B006C
:100010000C948B000C948B000C948B000C948B0034
:100020000C948B000C948B000C948B000C948B0024
:100030000C948B000C948B000C948B000C948B0014
:100040000C9464090C948B000C94D4090C94AE09A4
:100050000C948B000C948B000C948B000C948B00F4
:100060000C94060A0C948B0000000000240027006A
:100070002A000000000023002600290000000008DC
:10008000000201000003040700000000000000005F
:10009000010204081020408001020408102001021F
:1000A0000408102000000000250028002B00040494
:1000B0000404040404040202020202020303030310
:1000C0000303250B5D1911241FBECFEFD8E0DEBF5F
:1000D000CDBF11E0A0E0B1E0EAE8FEE302C0059088
:1000E0000D92AC37B107D9F724E0ACE7B1E001C01D
:1000F0001D92A137B207E1F710E0C2E6D0E004C0DC
:100100002197FE010E94791BC136D107C9F70E94D1
:100110000A0C0C94381F0C940000FC0190819095FF
:1001200028E030E081E397FF03C0990F982701C0D2
:10013000990F21503109B9F78181892728E030E0F2
:1001400091E387FF03C0880F892701C0880F2150E2
:100150003109B9F70895833081F028F4813099F09E
:100160008230A9F008958730A9F08830C9F0843032
:10017000B1F4809180008F7D03C0809180008F77E3
:1001800080938000089584B58F7784BD089584B5E9
:100190008F7DFBCF8091B0008F778093B000089562
:1001A0008091B0008F7DF9CFCF93DF93282F30E07F
:1001B000F901E458FF4F8491F901E057FF4FD491C2
:1001C000F901E255FF4FC491CC23A1F081110E94A7
:1001D000AB00EC2FF0E0EE0FFF1FEE58FF4FA591A4
:1001E000B491EC91ED2381E090E009F480E0DF919F
:1001F000CF91089580E090E0FACF1F93CF93DF93E3
:10020000282F30E0F901E458FF4F8491F901E057BD
:10021000FF4FD491F901E255FF4FC491CC23A9F0CF
:10022000162F81110E94AB00EC2FF0E0EE0FFF1FA4
:10023000EC55FF4FA591B4918FB7F894EC91111143
:1002400008C0D095DE23DC938FBFDF91CF911F9143
:100250000895DE2BF8CFCF93DF9390E0FC01E057B9
:10026000FF4F249182559F4FFC0184918823D1F048
:1002700090E0880F991FFC01E859FF4FA591B491B8
:10028000FC01EC55FF4FC591D49161110EC09FB791
:10029000F8948C91E22FE0958E238C932881E223B1
:1002A000E8839FBFDF91CF9108958FB7F894EC91C9
:1002B000E22BEC938FBFF6CF3FB7F8948091DE022C
:1002C0009091DF02A091E002B091E10226B5A89BD7
:1002D00005C02F3F19F00196A11DB11D3FBFBA2FD8
:1002E000A92F982F8827BC01CD01620F711D811D98
:1002F000911D42E0660F771F881F991F4A95D1F71D
:1003000008958F929F92AF92BF92CF92DF92EF9219
:10031000FF924B015C010E945C016B017C010E9419
:100320005C016C197D098E099F09683E7340810547
:100330009105A8F321E0821A9108A108B10888EE7E
:10034000C80E83E0D81EE11CF11C81149104A104A5
:10035000B10429F7FF90EF90DF90CF90BF90AF905E
:100360009F908F90089508950895AF92BF92CF9275
:10037000DF92EF92FF920F931F93CF93DF936C0165
:100380007B018B01040F151FEB015E01AE18BF0846
:10039000C017D10759F06991D601ED91FC910190F8
:1003A000F081E02DC6010995892B79F7C501DF9110
:1003B000CF911F910F91FF90EF90DF90CF90BF9062
:1003C000AF900895FC01538D448D252F30E0842F8C
:1003D00090E0821B930B541710F0CF96089501976D
:1003E0000895FC01918D828D981761F0A28DAE0F5A
:1003F000BF2FB11D5D968C91928D9F5F9F73928FE1
:1004000090E008958FEF9FEF0895FC01918D828D0C
:10041000981731F0828DE80FF11D858D90E00895D9
:100420008FEF9FEF0895FC01918D228D892F90E031
:10043000805C9F4F821B91098F739927089584E5F3
:1004400093E00E94130221E0892B09F420E0822F1F
:10045000089580E090E0892B29F00E941F0281110D
:100460000C9400000895FC01A48DA80FB92FB11DB4
:10047000A35ABF4F2C91848D90E001968F739927DA
:10048000848FA689B7892C93A089B1898C918370B8
:1004900080648C93938D848D981306C00288F389B1
:1004A000E02D80818F7D80830895EF92FF920F93DE
:1004B0001F93CF93DF93EC0181E0888F9B8D8C8D10
:1004C00098131AC0E889F989808185FF15C09FB704
:1004D000F894EE89FF896083E889F98980818370C7
:1004E000806480839FBF81E090E0DF91CF911F9176
:1004F0000F91FF90EF900895F62E0B8D10E00F5F97
:100500001F4F0F731127E02E8C8D8E110CC00FB66C
:1005100007FCFACFE889F989808185FFF5CFCE0104
:100520000E943302F1CFEB8DEC0FFD2FF11DE35A4A
:10053000FF4FF0829FB7F8940B8FEA89FB89808187
:100540008062CFCFCF93DF93EC01888D8823B9F001
:10055000AA89BB89E889F9898C9185FD03C08081CE
:1005600086FD0DC00FB607FCF7CF8C9185FFF2CF4B
:10057000808185FFEDCFCE010E943302E9CFDF916C
:10058000CF910895FF920F931F93CF93DF93F82E8F
:10059000C091DC01C23020F061E08C2F0E94FD0090
:1005A0008BEC97E00197F1F701E012E0D0E0DF1566
:1005B00049F0F80161918F0184E593E00E945502B2
:1005C000DF5FF5CF84E593E00E94A2028091DA011B
:1005D0009091DB018230910538F0880F991F880FC8
:1005E000991F05970197F1F7C23048F060E08C2F12
:1005F000DF91CF911F910F91FF900C94FD00DF913F
:10060000CF911F910F91FF900895E1E0F2E090E00B
:100610002FEF3FEF981791F04191242748E0B9015F
:100620006170772736952795672B21F051E02527B4
:1006300050EA3527415099F79F5FECCF922F832FD7
:1006400008952091FD013091FE012F5F3F4F3093BF
:10065000FE012093FD019091F901911115C0909137
:10066000FC01909301029091F8019068909302022E
:100670008093030283E00E94050390930402809319
:10068000050285E00C94C20208952091B701260F5F
:100690003327331F21323105ECF420912A03FC016A
:1006A00090E080E0243069F082E00895A091B701E5
:1006B0002191AC0149565E4FA40FB52FB11D2C936B
:1006C0000196861798F38091B701680F6093B70180
:1006D00080E0089581E0089510922A0381E08093DC
:1006E00029031092040361E082E10E94FD0061E0B1
:1006F00083E10E94FD00E9EBF0E080818E7F808342
:1007000080818D7F808388E48093B80085E4809326
:10071000BC000895CF93DF9391E0909396018823D6
:10072000B9F0C091B800D091BA008091BC008A7B2A
:100730008093BC0060E082E10E94FD0060E083E104
:100740000E94FD000E946C03D093BA00C093B800D1
:10075000DF91CF910895CF92DF92EF92FF920F93A6
:100760001F93CF93DF93D091530381E0D13208F0F0
:100770009CC0C09152030E945C016B017C0180917E
:100780002A0381116CC082E080932A0381E0809368
:1007900029038FEF8093280310922703D093260319
:1007A000A2E3B3E0E6E0F3E080E0D8138DC010925E
:1007B000050380910503CC0FC82BC09305038091DE
:1007C0000403813009F084C0109204030E945C018C
:1007D0006B017C01809105038093BB0080912C0309
:1007E00090912D03A0912E03B0912F03892B8A2B7A
:1007F0008B2BA1F00E945C0100912C0310912D0322
:1008000020912E0330912F036C197D098E099F09C9
:10081000061717072807390708F442C08091BC0063
:1008200083FDD8CF85EC8093BC000E945C016B01F6
:100830007C0180912A03823009F44CC08091280306
:100840008F3F09F469C080912803803209F466C0A3
:1008500080912803803309F463C084E026C080912E
:100860002C0390912D03A0912E03B0912F03892B7F
:100870008A2B8B2B09F483CF0E945C0100912C03FF
:1008800010912D0320912E0330912F036C197D09B7
:100890008E099F09061717072807390708F06FCF39
:1008A00080912B030E948A0385E0109231031092FD
:1008B000530310923003DF91CF911F910F91FF905E
:1008C000EF90DF90CF9008959D9191938F5F6DCFC2
:1008D00085EEA9CF80912C0390912D03A0912E033A
:1008E000B0912F03892B8A2B8B2B09F4A2CF0E9466
:1008F0005C0100912C0310912D0320912E03309167
:100900002F036C197D098E099F0906171707280701
:10091000390708F08ECFC4CF80E0C7CF82E0C5CFC3
:1009200083E0C3CFCF92DF92EF92FF920F931F939A
:10093000CF93DF93D82FC62F613208F098C00E9462
:100940005C016B017C0180912A0381116BC081E005
:1009500080932A03809329039FEF9093280310929A
:1009600027039C0F90932603809305038091050332
:10097000DD0FD82BD093050380910403813009F05B
:1009800078C0109204030E945C016B017C0180918D
:1009900005038093BB0080912C0390912D03A091BF
:1009A0002E03B0912F03892B8A2B8B2BA1F00E9451
:1009B0005C0100912C0310912D0320912E033091A6
:1009C0002F036C197D098E099F0906171707280741
:1009D000390708F448C08091BC0083FDD8CF85EC6E
:1009E0008093BC000E945C016B017C0180912A0312
:1009F000813009F440C0809127038C1710F4C09116
:100A00002703E6E0F3E0A4EEB2E080E08C1355C0EB
:100A10008C2FDF91CF911F910F91FF90EF90DF907E
:100A2000CF90089580912C0390912D03A0912E03D7
:100A3000B0912F03892B8A2B8B2B09F484CF0E9432
:100A40005C0100912C0310912D0320912E03309115
:100A50002F036C197D098E099F09061717072807B0
:100A6000390708F070CF80912B030E948A03C0E001
:100A7000CFCF85EEB5CF80912C0390912D03A0911F
:100A80002E03B0912F03892B8A2B8B2B09F4AECF29
:100A90000E945C0100912C0310912D0320912E03E4
:100AA00030912F036C197D098E099F0906171707CE
:100AB0002807390708F09ACFD6CF91919D938F5F81
:100AC000A5CF0895E091E3028091E202E81730F4A7
:100AD000F0E0EC51FD4F808190E008958FEF9FEFA3
:100AE00008959091E3028091E2022FEF3FEF981773
:100AF00048F4E92FF0E0EC51FD4F208130E09F5F9A
:100B00009093E302C90108958091E2029091E3027B
:100B1000891B990B0895CF92DF92EF92FF920F936A
:100B20001F93CF93DF937C01CB018A012091300387
:100B3000222389F0EB016B01C40ED51ECC15DD0517
:100B400069F06991D701ED91FC910190F081E02D60
:100B5000C7010995F3CF642F0E944503C801DF91B7
:100B6000CF911F910F91FF90EF90DF90CF9008955C
:100B7000CF93DF931F92CDB7DEB769832091300307
:100B80002223F9F020915303203258F021E030E085
:100B9000FC013383228390E080E00F90DF91CF91BE
:100BA000089580913103E82FF0E0EE5CFC4F9981CD
:100BB00090838F5F809331038093530381E090E0B3
:100BC000ECCF61E0CE0101960E944503F7CF90E0A3
:100BD00080E00895CF92DF92EF92FF920F931F93E0
:100BE0008091900190919101880F991FFC01E45828
:100BF000FE4F00811181012E000C220B330B40911E
:100C00009201509193016091940170919501401B64
:100C1000510B620B730B40939201509393016093BD
:100C200094017093950123E420937C0020917A0035
:100C3000206420937A0020917A0026FDFCCF309129
:100C400078002091790084589E4F2327322723274C
:100C5000FC01318320832091900130919101F901B1
:100C6000EE0FFF1FE458FE4F60817181072E000CCC
:100C7000880B990BC0909201D0909301E090940161
:100C8000F09095016C0D7D1D8E1D9F1D609392014E
:100C90007093930180939401909395012F5F3F4F40
:100CA0002A3031054CF530939101209390012AE0D0
:100CB00030E040E050E00E94B519CA01B9010E943D
:100CC000A11C23E333E343E55BE30E949F1D20E087
:100CD00030E040EA50E40E949F1D609385027093CB
:100CE000860280938702909388021F910F91FF9054
:100CF000EF90DF90CF9008951092910110929001A3
:100D0000D6CFCF92DF92EF92FF920F931F93CF93A4
:100D1000DF93CDB7DEB729970FB6F894DEBF0FBECD
:100D2000CDBF962F2091590430915A04232B09F4FA
:100D300044C050E070E060E0592B682B8B01222703
:100D40003327C52ED62EE72EFF24BC2DA42F80914D
:100D50005F04882391F0A82FB0E0A09FF001A19F2D
:100D6000F00DB09FF00D11240F2F8C9D6001112408
:100D7000BD2D849FA0011124A52FE09165048091D1
:100D800060049091610420916204E21721F0E80F61
:100D9000F92FF11D1082E0916204E80FF92FF11D87
:100DA0000083E0916304E80FF92FF11DB0832091D7
:100DB0006404820F911DFC01A083809160049091D6
:100DC0006104892B09F47CC00E945C0100916604D7
:100DD00010916704209168043091690460177107CD
:100DE0008207930740F460936604709367048093CE
:100DF000680490936904009166041091670420913F
:100E0000680430916904601B710B820B930B6C3288
:100E1000714081059105C0F2F89480915B04909136
:100E20005C049A838983E0916004F0916104DF019E
:100E300011968081898790915704E0916A04F0911E
:100E40006B0480916C04992309F449C09081982B1C
:100E500098879081809589238F838F818C8388E008
:100E60008B8358856F8149853B812C8189819A814B
:100E7000508347FD252F3A952083262F39F0441FB4
:100E800000C000006083000000C0F2CF38E04D9148
:100E900060830000019761F7F0936B04E0936A04AC
:100EA00049873B832C839A83898378940E945C01D1
:100EB0006093660470936704809368049093690458
:100EC00029960FB6F894DEBF0FBECDBFDF91CF914C
:100ED0001F910F91FF90EF90DF90CF900895908138
:100EE000982B98879081809589238F838F818E831B
:100EF00088E08D8358856F8149853D812E81898168
:100F00009A81508347FD252F00C000C0208300C078
:100F100000C000C000C000C060830000262F3A95CA
:100F200041F0441F000000C000C000C000C000C06D
:100F3000E8CF38E04D9100C0608300C0019709F709
:100F4000F0936B04E0936A0449873D832E83ABCF13
:100F5000CF93C62F91E09093300399E29093520380
:100F60001092310310925303682F81EF93E00E9497
:100F7000B8056C2F81EF93E00E94B805CF910C94D7
:100F8000AB03CF93C62F9091E30121E02093300370
:100F9000909352031092310310925303682F81EF04
:100FA00093E00E94B8056C2F81EF93E00E94B80592
:100FB000CF910C94AB03613208F060E20E9492047E
:100FC0001092E3028093E2020895CF9391E0909310
:100FD000300399E29093520310923103109253031D
:100FE000682F81EF93E00E94B8050E94AB0362E096
:100FF00070E089E290E00E94DB0781EF93E00E94BD
:101000007105C82F81EF93E00E94710520E0382F11
:10101000C9018C2BCF910895CF93C091E30191E04A
:1010200090933003C09352031092310310925303F4
:10103000682F81EF93E00E94B8050E94AB0361E046
:1010400070E08C2FCC0F990B0E94DB0781EF93E0AF
:101050000E947105CF910895CF93C82F843008F076
:10106000C0E084EF0E940C088C7F6C2F682B84EF0B
:10107000CF910C94C107FF920F931F93CF93DF93EF
:10108000082FF92E142FC091E30181E080933003E3
:10109000C0935203109231031092530381EF93E0F7
:1010A0000E94B8050E94AB03612F70E08C2FCC0F1B
:1010B000990B0E94DB07C02FDF2D9091E2028091F7
:1010C000E302981751F08C2F801B811730F481EFC9
:1010D00093E00E9471058993F0CFDF91CF911F912A
:1010E0000F91FF900895FC0101900020E9F73197DE
:1010F000AF01481B590BBC0184E593E00C94B5018A
:101100008F929F92AF92BF920F931F93CF93DF93D3
:10111000CDB7DEB7A1970FB6F894DEBF0FBECDBF37
:1011200019A2423008F44AE08E010F5D1F4F842E51
:10113000912CB12CA12CA50194010E949319E62FAA
:10114000B901CA01EA30F4F4E05DD801EE938D01F3
:10115000232B242B252B79F790E080E0109719F0B2
:10116000CD010E947308A1960FB6F894DEBF0FBEA2
:10117000CDBFDF91CF911F910F91BF90AF909F9006
:101180008F900895E95CE1CFCF93DF93BC0190E0AD
:1011900080E04AE00E948008EC018DE691E00E9428
:1011A00073088C0F9D1FDF91CF910895CF92DF922E
:1011B000EF92FF92CF93DF936C01990FEE08FF0837
:1011C000F7FE1FC06DE284E593E00E945502EC013A
:1011D00066277727CB016C197D098E099F094AE0A4
:1011E0000E948008C80FD91F8DE691E00E94730805
:1011F0008C0F9D1FDF91CF91FF90EF90DF90CF90EC
:1012000008954AE0C701B6010E948008EC01ECCFC6
:101210000C9475198091DD019091DE01892BD9F034
:1012200060EB90E080E00E9408096FEF82E090E0C0
:101230000E94080964E170E080E090E00E94810172
:1012400088E198E00FB6F894A895809360000FBEEF
:1012500090936000FFCF089585ED8093BC0080914E
:101260002C0390912D03A0912E03B0912F0307968C
:10127000A11DB11D23E0B695A795979587952A9551
:10128000D1F72091BC0024FD03C010922A030895D9
:1012900040912C0350912D0360912E0370912F03E8
:1012A000452B462B472B69F30097A105B10541F06B
:1012B00025E32A95F1F700000197A109B109E1CFD3
:1012C00080912B030C948A031F920F920FB60F92FA
:1012D00011242F933F938F939F93AF93BF9380914C
:1012E000DA029091DB02A091DC02B091DD02309134
:1012F000D90223E0230F2D3758F50196A11DB11D0A
:101300002093D9028093DA029093DB02A093DC024F
:10131000B093DD028091DE029091DF02A091E002A5
:10132000B091E1020196A11DB11D8093DE02909360
:10133000DF02A093E002B093E102BF91AF919F91D1
:101340008F913F912F910F900FBE0F901F90189586
:1013500026E8230F0296A11DB11DD2CF1F920F9236
:101360000FB60F9211242F933F934F935F936F9378
:101370007F938F939F93AF93BF93EF93FF9384E5F6
:1013800093E00E943302FF91EF91BF91AF919F9143
:101390008F917F916F915F914F913F912F910F901E
:1013A0000FBE0F901F9018951F920F920FB60F92BD
:1013B00011242F938F939F93EF93FF93E0916403F6
:1013C000F09165038081E0916A03F0916B0382FDE7
:1013D0001BC0908180916D038F5F8F7320916E038E
:1013E000821741F0E0916D03F0E0EC5AFC4F958FCD
:1013F00080936D03FF91EF919F918F912F910F90AB
:101400000FBE0F901F9018958081F4CF1F920F92FE
:101410000FB60F9211242F933F934F935F936F93C7
:101420007F938F939F93AF93BF93EF93FF9380919D
:10143000B900887F803609F44AC0F0F5883209F493
:10144000A7C018F5803109F49BC0B8F4882309F4CB
:10145000F9C0883009F494C0FF91EF91BF91AF912A
:101460009F918F917F916F915F914F913F912F91BC
:101470000F900FBE0F901F901895883109F488C007
:10148000803251F78093280314C0803409F49DC042
:1014900040F48033B9F38833F9F68093280385EC60
:1014A000B0C0803509F485C0883509F496C0883409
:1014B00099F60E942C09D0CF883909F48CC038F5F0
:1014C000883729F050F4883611F0803729F683E008
:1014D00080932A031092D90157C0883809F47BC041
:1014E000803919F0803809F0B7CF8091D901803266
:1014F00008F071C0E091D90181E08E0F8093D9018D
:101500008091BB00F0E0E754FE4F80833DC0803BFC
:1015100039F0E0F4803A09F479C0883A09F09CCFB8
:1015200084E080932A031092B8011092B701E091F1
:10153000E101F091E20109958091B70181110FC09D
:1015400081E08093B7011092970109C0803C09F4B3
:10155000A6CF883C09F4A3CF883B09F07DCFE0916A
:10156000B80181E08E0F8093B801F0E0E956FE4F9C
:1015700080818093BB009091B8018091B70129C010
:10158000809105038093BB0085EC8093BC0064CF01
:101590009091270380912603981758F5E09127032F
:1015A00081E08E0F80932703F0E0EA5FFC4F80819B
:1015B000E9CFE091270381E08E0F8093270380918C
:1015C000BB00F0E0EA5FFC4F80839091270380919D
:1015D00026039817C8F285E8D8CFE091270381E069
:1015E0008E0F809327038091BB00F0E0EA5FFC4FF1
:1015F00080838091290381115CCF81E08093040373
:1016000084EA8093BC0010922A0326CF85EC809355
:10161000BC0010922A038091D901803230F4E0910D
:10162000D901F0E0E754FE4F10826091D90170E0DB
:10163000E091DF01F091E00189EB91E009951092D2
:10164000D9010ACF1092280334CFCF9310925703B9
:101650001092560388EE93E0A0E0B0E08093580328
:1016600090935903A0935A03B0935B032DE431E0A8
:10167000309355032093540325EC30E030936103FD
:101680002093600324EC30E03093630320936203E3
:1016900020EC30E0309365032093640321EC30E0CC
:1016A000309367032093660322EC30E030936903A4
:1016B0002093680326EC30E030936B0320936A0399
:1016C00010926D0310926E0310926F0310927003CC
:1016D0001092F4031092F3038093F5039093F603B2
:1016E000A093F703B093F8038FE591E09093F20392
:1016F0008093F10384E08093FD03C3E0C093FE0375
:1017000099E09093FF03809300041092010480E11C
:10171000809302041092040410920304E5E0F4E0C4
:1017200082E2DF011D928A95E9F7E7E2F4E080E2C8
:10173000DF011D928A95E9F788E0E7E4F4E0DF0134
:10174000982F1D929A95E9F7EFE4F4E0DF011D92DE
:101750008A95E9F71092580410925F04109266047B
:1017600010926704109268041092690481E08093DB
:101770006504809362041092630492E09093640481
:101780008093570483E090E090935C0480935B0423
:101790000E940C1E9093610480936004009789F16D
:1017A000FC011192CA95E9F781E090E090935A0408
:1017B0008093590485E090E090935E0480935D04EB
:1017C00080915804882341F061E085E00E942B015C
:1017D00060E085E00E94FD00E3EBF0E0E491F0E0E2
:1017E000EE0FFF1FEC55FF4F8591949190936B0482
:1017F00080936A04E5E9F0E0E491E0936C04CF9112
:10180000089510925C0410925B0410925A04109296
:101810005904D0CFCF93DF93CDB7DEB7CE55D109E2
:101820000FB6F894DEBF0FBECDBF789484B582604A
:1018300084BD84B5816084BD85B5826085BD85B574
:10184000816085BD80916E00816080936E001092F2
:10185000810080918100826080938100809181006D
:1018600081608093810080918000816080938000FE
:101870008091B10084608093B1008091B00081605C
:101880008093B00080917A00846080937A00809188
:101890007A00826080937A0080917A0081608093E0
:1018A0007A0080917A00806880937A001092C1005B
:1018B00061E087E00E942B0160E082E00E942B0142
:1018C00060E083E00E942B018DEF93E09093DE01B6
:1018D0008093DD0181E090E00E946D199FEF980FE9
:1018E000973F08F03DC38093020480910204282FA3
:1018F00030E030930604209305042AE039E0309369
:10190000FB012093FA01C0900104D12CA0900004A7
:10191000B12C8090FF03912C0091FE0310E00F5F2B
:101920001F4FF090FD038093FC01E0916403F09160
:10193000650382E08083E0916003F091610310828F
:10194000E0916203F091630383E3808310926C0360
:10195000E0916803F091690386E08083E09166037B
:10196000F0916703808180618083E0916603F0914C
:101970006703808188608083E0916603F09167034C
:10198000808180688083E0916603F09167038081A5
:101990008F7D808321E02F1550F4F092DC0161E00F
:1019A0008F2D0E942B0160E08F2D0E94FD008EEE96
:1019B00092E0909300028093FF0186ED96E0909371
:1019C000DB018093DA011093E7010093E601909226
:1019D000E5018092E401B092F701A092F601D09265
:1019E000E901C092E8011092FE011092FD01809180
:1019F000FF03882371F021E030E030932804209326
:101A00002704823030F08CE090E090932A04809399
:101A1000290490910004923038F081E080934804CA
:101A2000923011F08093490483E090E00E946D1998
:101A300018160CF082E0082E000C990B909302010E
:101A40008093010180915D0490915E0497FD08C030
:101A500061E00E942B0160E080915D040E94FD0026
:101A600081E08093580440915B0450915C0470E0E5
:101A700060E080916004909161040E94311F109297
:101A8000E3021092E20210923103109253030E947B
:101A90006C0383EB91E09093E2018093E10184EB8E
:101AA00091E09093E0018093DF0184E480938902C8
:101AB00086E78093E30162E070E080E090E00E94BE
:101AC000810180ED0E940C08182F682F70E090E0D3
:101AD00080E040E10E9480088DE691E00E9473085A
:101AE000103609F0BAC180E791E00E9473088DE6D4
:101AF00091E00E94730889E80E940C08082F88E88A
:101B00000E940C0810E0102F0027080F111D1093E1
:101B10009302009392028BE80E940C08F82E8AE848
:101B20000E940C082F2D30E0322F2227820F932F96
:101B3000911D90939502809394028DE80E940C0869
:101B4000F82E8CE80E940C082F2D30E0322F22272F
:101B5000820F932F911D90939702809396028FE8A6
:101B60000E940C08F82E8EE80E940C082F2D30E001
:101B7000322F2227820F932F911D909399028093E9
:101B8000980281E90E940C08F82E80E90E940C0856
:101B90002F2D30E0322F2227820F932F911D90930B
:101BA0009B0280939A0283E90E940C08F82E82E936
:101BB0000E940C082F2D30E0322F2227820F932F06
:101BC000911D90939D0280939C0285E90E940C08D0
:101BD000F82E84E90E940C082F2D30E0322F2227A6
:101BE000820F932F911D90939F0280939E0287E90D
:101BF0000E940C08F82E86E90E940C082F2D30E078
:101C0000322F2227820F932F911D9093A102809350
:101C1000A00289E90E940C08F82E88E90E940C08AD
:101C20002F2D30E0322F2227820F932F911D90937A
:101C3000A3028093A2028BE90E940C08F82E8AE985
:101C40000E940C082F2D30E0322F2227820F932F75
:101C5000911D9093A5028093A4028DE90E940C0827
:101C6000F82E8CE90E940C082F2D30E0322F22270D
:101C7000820F932F911D9093A7028093A6028FE964
:101C80000E940C08F82E8EE90E940C082F2D30E0DF
:101C9000322F2227820F932F911D9093A9028093B8
:101CA000A80281EA0E940C088093AA0282EE0E9498
:101CB0000C08F82E81EE0E940C082F2D30E0322FF8
:101CC0002227820F932F911D9093AC028093AB0239
:101CD00083EE0E940C088093AD0284EE0E940C08F3
:101CE000F82E85EE0E940C0840E1F49E900111242C
:101CF0008F70820F932F911D9093AF028093AE024D
:101D000086EE0E940C08F82E85EE0E940C0850E129
:101D1000F59E9001112490E044E0959587954A95B1
:101D2000E1F7820F931F9093B1028093B00287EE88
:101D30000E940C088093B202C8010E94C4088091DE
:101D40009402909195020E94D608809196029091FB
:101D500097020E94D60889E80E940C08182F88E88C
:101D60000E940C08212F30E0322F2227820F932F60
:101D7000911D0E94C4088FE80E940C08182F8EE85D
:101D80000E940C08212F30E0322F2227820F932F40
:101D9000911D0E94C40882EE0E940C08182F81EE4B
:101DA0000E940C08212F30E0322F2227820F932F20
:101DB000911D0E94C40885EF0E940C08682F6F7166
:101DC00085EF0E94C10785EF0E940C08682F637E93
:101DD00085EF0E94C10784EF0E940C08182F80E055
:101DE0000E942C0884EF0E940C08837E682F646098
:101DF00084EF0E94C107812F83700E942C0884EF1A
:101E00000E940C08182F80E00E942C0882EF0E948C
:101E10000C08887F682F616082EF0E94C107812FC4
:101E200083700E942C0884EF0E940C08182F80E019
:101E30000E942C0884EF0E940C088F71682F60624A
:101E400084EF0E94C107812F83700E942C0883E0D9
:101E50000E942C0880ED0E940C0881E080933003E2
:101E600089E280935203109231031092530362EB84
:101E700081EF93E00E94B8050E94AB0361E070E03F
:101E800089E290E00E94DB0781EF93E00E947105F8
:101E9000803589F463E980EA0E94A8071091B702AF
:101EA00080910001182B612F81EA0E94A807612F01
:101EB00081EA0E94A8071AE00E94EA051150E1F7A2
:101EC00040E060E082E30E94810664E670E080E02A
:101ED00090E00E94810140E062E380E00E94810680
:101EE00064E670E080E090E00E94810142E360E0FF
:101EF00080E00E94810664E670E080E090E00E944D
:101F0000810140E060E080E00E948106CE010796FA
:101F100023969FAF8EAF23978091020490E0909319
:101F200006048093050410E0F12C84E593E00E9400
:101F30001302892B69F11123E1F084E593E00E94FB
:101F4000F1018091FF01909100028230910568F3C8
:101F5000880F991F880F991F05970197F1F7E5CF13
:101F600080E18093020460E181E090E00E94080932
:101F7000BCCC11E090E8F91210E084E593E00E94F7
:101F8000F101EF2DF0E0EF5FFD4F8083F394D9CFA7
:101F9000112309F468C68091FD019091FE019C0116
:101FA0002F5F3F4F3093FE012093FD019093040477
:101FB000809303040091050410910604C801019761
:101FC000873F9105A8F480910204081789F08FEFEC
:101FD000800F873F68F40093020481E090E00E9444
:101FE0006D19081729F0602F81E090E00E947519A3
:101FF0002091FE038091070490910804211102C0F2
:1020000090E080E0B0E0A0E08A309105A105B10544
:1020100011F00C94441810910904223008F410E0D7
:10202000612F81E090E00E94080981E090E00E9429
:102030006D19612F110F770B8617170609F08DC0E8
:1020400080E4E9E0F1E0DE01119601900D928A95BD
:10205000E1F788248A94982C540110E000E0C8012C
:102060000E946D1994012827D501C9018F70992705
:10207000AA27BB27880F991F880F991F41E050E0BE
:102080004C0F5D1F840F951FDC01CD90DD90ED900E
:10209000FC90A4E0B694A79497948794AA95D1F75E
:1020A000C824D924EA24FB24C8010E946D1990E0B9
:1020B000B4E095958795BA95E1F7092E000CAA0B27
:1020C000BB0B8C259D25AE25BF258F709927AA2790
:1020D000BB27880F991F880F991FE1E0F0E0EC0FF4
:1020E000FD1F8E0F9F1FDC018D909D90AD90BC90C9
:1020F00034E0F694E794D794C7943A95D1F78C24BA
:102100009D24AE24BF2480949094A094B0940F5F3B
:102110001F4F0C3FB3E01B0709F0A1CF8092810253
:1021200090928202A0928302B09284026B2D8CEF77
:1021300093E00E940809609183028DEF93E00E9472
:102140000809609182028EEF93E00E940809609175
:1021500081028FEF93E00E9408091091FF03133072
:1021600008F482C020E030E048EC52E4609185023F
:102170007091860280918702909188020E949F1D33
:102180000E946A1C70932C0460932B04143008F492
:102190006BC020E030E048EC52E46091CD027091D9
:1021A000CE028091CF029091D0020E949F1D0E948A
:1021B0006A1C70932E0460932D04153008F454C0EB
:1021C00020E030E048EC52E46091C9027091CA020C
:1021D0008091CB029091CC020E949F1D0E946A1CAC
:1021E0007093300460932F041630F0F120E030E05B
:1021F00048EC52E46091C5027091C6028091C7021A
:102200009091C8020E949F1D0E946A1C7093320424
:1022100060933104173040F120E030E048EC52E4A4
:102220006091C1027091C2028091C3029091C40278
:102230000E949F1D0E946A1C7093340460933304B3
:10224000183090F08091BF029091C00290933604B4
:1022500080933504193040F08091BD029091BE0208
:10226000909338048093370480910004843090F078
:102270006091B80270E090E080E00E949F1C11E045
:1022800020E030E0A9010E94EC1B811101C010E0A8
:1022900010934A048FB7F8948090DA029090DB0292
:1022A000A090DC02B090DD022B968CAE9DAEAEAE5F
:1022B000BFAE2B978FBF80910004823008F467C7B0
:1022C00080914804882309F462C78091D5029091D7
:1022D000D602A091D702B091D802B501A401481B43
:1022E000590B6A0B7B0B2091010130910201E8EE42
:1022F000AE2EE3E0BE2E2A9DC0012B9D900D3A9D8F
:10230000900D1124B0E0A0E0481759076A077B0739
:1023100008F43DC72B968CAC9DACAEACBFAC2B97F4
:102320008092D5029092D602A092D702B092D802A3
:102330001091890299249394909230031093520340
:10234000109231031092530364E281EF93E00E94F4
:10235000B80560E081EF93E00E94B8050E94AB03EE
:1023600064E170E080E090E00E94810166E0812FEE
:102370000E9492041092E3028093E202863089F474
:102380008E010F5F1F4F81EF93E00E947105D8010E
:102390008D938D0123968EAC9FAC2397A815B9051C
:1023A00091F71B81CE0101960E948D0018134BC03E
:1023B0001E81CE0104960E948D00181344C029810D
:1023C0003A81322723273227A7E1B1E10E94D419AD
:1023D0003EE095958795779567953A95D1F764593D
:1023E0007141810991090E94A11C20E030E048EC74
:1023F00052E40E94F11B60938A0270938B028093D7
:102400008C0290938D022C813D8132272327322725
:10241000A1E7B2E00E94D4194CE096958795779594
:1024200067954A95D1F70E949F1C20E030E048EC68
:1024300052E40E94F11B60938E0270938F0280938E
:1024400090029093910280918A0290918B02A091C8
:102450008C02B0918D028093CD029093CE02A09316
:10246000CF02B093D00243E06AEFCE0101960E9402
:102470003B08898190E0B0E0A0E02CE0880F991F34
:10248000AA1FBB1F2A95D1F74A8150E070E060E097
:1024900034E0440F551F661F771F3A95D1F7842B00
:1024A000952BA62BB72B2B8122952F70822B409139
:1024B00092025091930270E060E06C017D01E4E0D3
:1024C000F594E794D794C794EA95D1F7C41AD50A3E
:1024D000E60AF70AF3E0B595A79597958795FA95DB
:1024E000D1F7440F551F661F771F4C015D01841AF9
:1024F000950AA60AB70AA5019401A0919402B09189
:1025000095020E94EE194B015C010BE0B594A79473
:10251000979487940A95D1F7A7019601C701B60150
:102520000E9483199B01AC018CE055954795379526
:1025300027958A95D1F7A0919602B09197020E94B3
:10254000EE192EE095958795779567952A95D1F7A1
:10255000860E971EA81EB91E8092B3029092B402F6
:10256000A092B502B092B602A5E0B0E0A501940138
:102570000E94E31960587F4F8F4F9F4F672F782F2E
:10258000892F992787FD9A950E94A11C20E030E0B1
:1025900048EC52E40E94F11B20E030E0A9010E94C7
:1025A000801B20E030E040E151E40E949F1D20E0CC
:1025B00030E040EA50E40E94F11B20E030E040E0CF
:1025C00052E40E94801B6093C9027093CA028093F8
:1025D000CB029093CC0280918E0290918F02A091B9
:1025E0009002B09191028093C5029093C602A0938D
:1025F000C702B093C80242E06DEFCE0101960E947F
:102600003B08A50194013C524140510927962CAF4B
:102610003DAF4EAF5FAF2797C980DA80DC24CD2471
:10262000DC24F12CE12C6EE0CC0CDD1CEE1CFF1C3C
:102630006A95D1F78091AE029091AF02092E000CFD
:10264000AA0BBB0B74E1880F991FAA1FBB1F7A95B9
:10265000D1F7C81AD90AEA0AFB0AA091B002B091D0
:10266000B1020E94EE19C61AD70AE80AF90A30E444
:10267000D30EE11CF11CEFE0F594E794D794C794D6
:10268000EA95D1F7A091AD02B0E027962CAD3DAD13
:102690004EAD5FAD27970E94E3192B013C01FBE093
:1026A0007594679457944794FA95D1F740E8540E7F
:1026B000611C711CA091B2020A2E000CBB0B279664
:1026C0002CAD3DAD4EAD5FAD27970E94EE19AAE04F
:1026D0009595879577956795AA95D1F7A30192016E
:1026E0000E9483199B01AC01BAE055954795379537
:1026F0002795BA95D1F7405E5F4FA091AB02B0919C
:10270000AC020E94EE19705E8F4F9F4F1EE09595B0
:102710008795779567951A95D1F7A70196010E943D
:1027200083196B017C010FE09595879577956795E7
:102730000A95D1F79B01AC010E9483199B01AC0162
:1027400087E055954795379527958A95D1F7A091BC
:10275000AA02B0E00E94E31924E095958795779549
:1027600067952A95D1F7C61AD70AE80AF90AF7FE3B
:1027700003C0C12CD12C7601C701B60161307105AF
:10278000810559E1950724F060E070E080E099E16F
:102790001CE095958795779567951A95D1F70E94D6
:1027A000A11C20E030E040E85AE30E949F1D6093A6
:1027B000C1027093C2028093C3029093C40243E0AB
:1027C00067EFCE0101960E943B0875016401FF0C82
:1027D000CC08DC2C76019401A5016C2D7C2D8C2D70
:1027E0009C2D345F414051096109710981099109AA
:1027F00024962FAF24972C963FAF2C972D964FAF52
:102800002D972E965FAF2E972F966FAF2F976096CE
:102810007FAF609761968FAF619762969FAF629727
:1028200059016A017B018C010E94F61963962FAF52
:10283000639764963FAF649765964FAF65976B96C5
:102840005FAF6B976C966FAF6C976D967FAF6D9720
:102850006E968FAF6E976F969FAF6F9730919B027A
:1028600020919A02932F990F990B492F592F692F75
:10287000792F892F0E94F6190CE00E94251B19015F
:102880002A013B014C0130919D0220919C02932F23
:10289000990F990B6396AFAC63976496BFAC64973E
:1028A0006596CFAC65976B96DFAC6B976C96EFAC8B
:1028B0006C976D96FFAC6D976E960FAD6E976F9699
:1028C0001FAD6F97492F592F692F792F892F0E949C
:1028D000F61908E00E943E1B510162017301840158
:1028E0000E945B1B70588F4F9F4F20909802309032
:1028F00099025101C12CD12CE12CF12C00E010E007
:102900000E94F61901E20E943E1B66962FAF669761
:1029100067963FAF679768964FAF689769965FAFC6
:1029200069976A966FAF6A97272E382E492EA0E0D6
:102930000E946D1B09F4CBC33091A3022091A20227
:10294000932F990F990B6396AFAC63976496BFACC6
:1029500064976596CFAC65976B96DFAC6B976C967A
:10296000EFAC6C976D96FFAC6D976E960FAD6E9752
:102970006F961FAD6F97492F592F692F792F892F88
:102980000E94F61963962FAF639764963FAF6497E2
:1029900065964FAF6597552E3B014C013091A102D2
:1029A0002091A002932F990F990B2496AFAC2497F6
:1029B0002C96BFAC2C972D96CFAC2D972E96DFACD6
:1029C0002E972F96EFAC2F976096FFAC609761968D
:1029D0000FAD619762961FAD6297492F592F692FEE
:1029E000792F892F0E94F61901E10E94251B639619
:1029F000AFAC63976496BFAC64976596CFAC6597B0
:102A0000D52C730184010E945B1B59016A017B0173
:102A1000582E192F8A8190E0B0E0A0E044E0880FA2
:102A2000991FAA1FBB1F4A95D1F72B8122952F70A2
:102A3000822B498150E070E060E0ECE0440F551FCC
:102A4000661F771FEA95D1F7842B952BA62BB72B02
:102A500020E030E040E150E0281B390B4A0B5B0BD3
:102A600039014A01990C6608762C4301662D762DB2
:102A7000862D962D0FE10E94251B39014A01B62FA4
:102A8000A72FF82FE92F30919F0220919E02932FBC
:102A9000990F990B492F592F692F792F892F03E20D
:102AA0000E94251B052D0E945B1B59016A017B01B9
:102AB0008C019301A4016B2F7A2F8F2F9E2F0E94E0
:102AC000641BA5E3AA2EBCE0BB2EC12CD12CE12CAB
:102AD000F12C00E010E00E94F6196696AFAC669704
:102AE0006796BFAC67976896CFAC68976996DFAC7E
:102AF00069976A96EFAC6A97F22C032D142D0E9409
:102B0000501A24962FAF24972C963FAF2C972D96D2
:102B10004FAF2D972E965FAF2E972F966FAF2F97B3
:102B200060967FAF609761968FAF619762969FAF17
:102B300062970DE00E943E1B322E432E542E652ECE
:102B4000762E872E982E292E3091A9022091A80248
:102B5000932F990F990BA32CB42CC52CD62CE72CB2
:102B6000F82C092D122D492F592F692F792F892FD4
:102B70000E94F6190E94F61909E10E943E1B249654
:102B8000AFAC24972C96BFAC2C972D96CFAC2D973D
:102B90002E96DFAC2E972F96EFAC2F976096FFAC5A
:102BA000609761960FAD619762961FAD62970E9424
:102BB0005B1B19012A013B014C013091A7022091B6
:102BC000A602932F990F990B492F592F692F792F0F
:102BD000892F0E94F61903E10E943E1B59016A01E8
:102BE0007B018C019101A201B301C4010E945B1B16
:102BF00008E00E943E1B59016A017B01E82F192F52
:102C00003091A5022091A402932F990F990B492F7F
:102C1000592F692F792F892F04E00E94251B0E2F31
:102C20000E945B1B0E94991C20E030E048EC56E4B7
:102C30000E94F11B0E94631C7093C0026093BF024C
:102C400010E08091B702082E000C990B1817190696
:102C500011F00CF040C268E770E080E090E00E9464
:102C600081011F5FEECFA6E0FA123FC090910102F2
:102C70008091FC01981334C084E00E9405032091E8
:102C80000502309106023227232732278217930745
:102C900009F0F0C180910202813409F0EBC180910A
:102CA0000302803B21F083E00E94210319C0809140
:102CB00004028730C1F7109203021092040284E0EC
:102CC0000E940503909305028093060286E00E940D
:102CD000C202E091FA01F091FB01309709F00995E9
:102CE0008091FD019091FE0161C9B6E0BF1508F029
:102CF000BCC180910102882309F475C01092F901CA
:102D0000E090FC018E1521F08091F901882341F3B8
:102D10000F2D10E08EEF8F0D0E94050398012F5F9D
:102D20003D4FF9013297408121503109D9012C9151
:102D3000342F2817390709F09DC1409102024093B2
:102D4000F801209103023091040232272327322711
:102D50008091050290910602982789279827509123
:102D60000502B901680F791FF090F901F11072C2E4
:102D7000413009F071C0E091F601F091F7012E1792
:102D80003F0708F064C1E617F70708F48CCF8830D6
:102D9000910568F54093F50160E030E0422F50E086
:102DA0004817590788F5495B5B4FFA014081442376
:102DB00099F0E62FF0E0E651FE4F4081812C912CF6
:102DC00054018394032E04C0880C991CAA1CBB1CBC
:102DD0000A94D2F7482940833F5F383010F06F5F84
:102DE00030E02F5FDBCFE1E0E093F90189CFAC0168
:102DF00063E0569547956A95E1F7BC0167707727C0
:102E0000672B41F24F5FC6CF2093F4018091F5010B
:102E100015E0180FE092010280930302AF2DB0E09D
:102E2000E3E0EF0DF0E0EF5FFD4FA651BE4F9C9148
:102E300090831C92F3948F1588F78D5F0E94050391
:102E4000212F30E02F5F3D4FF901329790832150C1
:102E50003109D9018C93A5C0423009F063C040917B
:102E6000E8015091E9012417350708F0F0C0461732
:102E7000570708F418CF8830910550F5B1E0B093AA
:102E8000F50160E030E0422F50E04817590780F527
:102E9000415B5B4FFA014081442399F0E62FF0E05B
:102EA000E651FE4F4081812C912C54018394032ED6
:102EB00004C0880C991CAA1CBB1C0A94D2F7482990
:102EC00040833F5F383010F06F5F30E02F5FDBCF23
:102ED000AC0103E0569547950A95E1F7BC01677090
:102EE0007727672B19F44093F501CBCF4F5FFBCFCA
:102EF0002093F4018091F50115E0180FE092010292
:102F000080930302AF2DB0E0E3E0EF0DF0E0EF5F60
:102F1000FD4FA651BE4F9C9190831C92F3948F1548
:102F200088F78BCF433009F040C0E091E601F09183
:102F3000E7012E173F0708F08AC0E617F70708F4E5
:102F4000B2CE880F8093F50115E0180FE0920102D0
:102F500080930302E22FF0E0E617F707A0F4EE0FEC
:102F6000FF1FEB5FFB4F90813181E42FF0E0EF5FBB
:102F7000FD4F3083E1E0E40FF0E0EF5FFD4F908321
:102F80004E5F2F5FE7CF8D5F0E940503212F30E05A
:102F90002F5F3D4FF9013297908321503109F9019C
:102FA0008083812F0E94C2029BCE443081F54091E4
:102FB000E4015091E5012417350708F048C0461791
:102FC000570708F470CE880F8093F50115E0180FAD
:102FD000E09201028093030293E0E22FF0E0E61713
:102FE000F70708F02ACFEE0FFF1FE95DFB4F308196
:102FF0004181E92FF0E0EF5FFD4F4083E1E0E90F11
:10300000F0E0EF5FFD4F30839E5F2F5FE6CF4530EE
:1030100009F006C18091F6019091F7012817390750
:10302000B0F4F901E95BFB4F5F3F21F4B1E0B083FD
:1030300088E0B8CF1082FCCF4F3009F00DC18091ED
:10304000F6019091F7012817390708F4FBC082E0D8
:103050002BCE86E00E94050390930702809308021E
:10306000F1103ECEE5CF81E01FCE8FEF8F0D853082
:1030700008F036CE8091FD019091FE01019690936B
:10308000FE018093FD012CCE8B309105A105B10589
:1030900041F460910904223008F460E083E090E09C
:1030A0005AC80C97A105B10509F057C8223068F03D
:1030B0008091090440910B0460910C04223011F4BA
:1030C00040E060E00E94810648C880E0F9CF60E0FF
:1030D00070E0CB01AFCD84EB0E94E5078C0186EB5D
:1030E0000E94E507B0E0A0E0DC0199278827A8014D
:1030F00070E060E0802B952BA62BB72BAD016627E7
:103100007727841B950B9093BE028093BD020E948B
:10311000EA0582E00E94D4009C01892B99F04FB708
:10312000F8948091DA029091DB02A091DC02B091D8
:10313000DD024FBF8093B9029093BA02A093BB0205
:10314000B093BC028FB7F8944091DA025091DB0241
:103150006091DC027091DD028FBF8091B902909185
:10316000BA02A091BB02B091BC02481B590B6A0B7A
:103170007B0B4B3F51056105710548F091E0232B16
:1031800009F490E08091B80298139093B80280916E
:1031900000048330A8F180914904882389F180914B
:1031A000D1029091D202A091D302B091D4022B9679
:1031B0008CAC9DACAEACBFAC2B97881A990AAA0A0E
:1031C000BB0AD501C401843F9140A105B105C0F0FF
:1031D0002B968CAC9DACAEACBFAC2B978092D10241
:1031E0009092D202A092D302B092D40287E00E94C1
:1031F000D40061E0892B09F060E087E00E94FD00C7
:1032000080E090E0892B11F40C948C0F0E941F0237
:10321000882311F40C94860F0E9400000C94860FF2
:10322000463009F009CF4091E6015091E70124179B
:10323000350708F00CCF220F331FF901EB5FFB4F6E
:103240009183808386E00E94050390930702809318
:103250000802EECE463039F3403109F004CF8091B8
:103260000702095011098017110609F003CF809158
:10327000E6019091E7012817390708F0E8CE861794
:10328000970708F410CD37E0822F90E08617970754
:1032900008F0DFCEE32FF0E0880F991FDC01AB5F71
:1032A000BB4FEF5FFD4F8081918189279827892748
:1032B0008D939C933E5F2F5FE7CF80916004909148
:1032C00061040E94A81E80915D0490915E0497FDA8
:1032D00003C060E00C942B010895F999FECF92BDD4
:1032E00081BDF89A992780B50895262FF999FECFC8
:1032F0001FBA92BD81BD20BD0FB6F894FA9AF99A13
:103300000FBE01960895DB018F939F930E94E319EE
:10331000BF91AF91A29F800D911DA39F900DB29F71
:10332000900D11240895A1E21A2EAA1BBB1BFD01CA
:103330000DC0AA1FBB1FEE1FFF1FA217B307E40794
:10334000F50720F0A21BB30BE40BF50B661F771FEC
:10335000881F991F1A9469F76095709580959095CC
:103360009B01AC01BD01CF010895052E97FB1EF412
:1033700000940E94CC1957FD07D00E94931907FCB6
:1033800003D04EF40C94CC1950954095309521956E
:103390003F4F4F4F5F4F0895909580957095619581
:1033A0007F4F8F4F9F4F0895A29FB001B39FC001E1
:1033B000A39F700D811D1124911DB29F700D811D61
:1033C0001124911D08950E94D419A59F900DB49FBA
:1033D000900DA49F800D911D11240895B7FF0C94AA
:1033E000E3190E94E319821B930B0895DF93CF9397
:1033F0001F930F939A9DF02D219FF00D8B9DF00D43
:103400008A9DE02DF10D039FF00D029FE00DF11D4F
:103410004E9DE00DF11D5E9DF00D4F9DF00D7F93D3
:103420006F93BF92AF925F934F93D5010E94D419CF
:103430008B01AC01D7010E94D419EB01E80FF91FF1
:10344000D6010E94451A2F913F91D6010E94D419AE
:10345000C60FD71FE81FF91FAF91BF910E94451AF1
:103460002F913F910E94D419C60FD71FE81FF91F53
:10347000D6010E94D419E60FF71F9801BE01CF01B3
:103480000F911F91CF91DF9108950E94D419460F9B
:10349000571FC81FD91F08F431960895689401C0BA
:1034A000E894F92FF12B12F00C94821AA0E0B0E00E
:1034B000ECE5FAE10C94F41A092E059422F40E942A
:1034C000DE1A112392F4F0E80F26FFEFE094F09457
:1034D00000951095B094C094D094A194BF0ACF0ADF
:1034E000DF0AEF0AFF0A0F0B1F0B0E948D1A07FC61
:1034F0000E94DE1ACDB7DEB7ECE00C94101B689486
:1035000001C0E8948F929F92CF93DF930E948D1A0F
:10351000DF91CF919F908F90089588249924F40192
:10352000E401B0E49F93AA279A158B049C04ED054F
:10353000FE05CF05D007A10798F4AD2FDC2FCF2FC4
:10354000FE2FE92D982C892E982F872F762F652F07
:10355000542F432F322F2227B85031F7BF9127C065
:103560001B2EBF91BB27220F331F441F551F661F01
:10357000771F881F991F881C991CEE1FFF1FCC1FE7
:10358000DD1FAA1FBB1F8A149B04EC05FD05CE0599
:10359000DF05A007B10748F08A189B08EC09FD0970
:1035A000CE09DF09A00BB10B21601A94E1F62EF4CD
:1035B0009401AF01BE01CD01000C08956095709596
:1035C0008095909530954095509521953F4F4F4F60
:1035D0005F4F6F4F7F4F8F4F9F4F08952F923F92B6
:1035E0004F925F926F927F928F929F92AF92BF9213
:1035F000CF92DF92EF92FF920F931F93CF93DF93BF
:10360000CDB7DEB7CA1BDB0B0FB6F894DEBF0FBE1B
:10361000CDBF09942A88398848885F846E847D8468
:103620008C849B84AA84B984C884DF80EE80FD806A
:103630000C811B81AA81B981CE0FD11D0FB6F894E0
:10364000DEBF0FBECDBFED010895002E083090F013
:10365000982F872F762F652F542F432F322F222715
:103660000850F4CF220F331F441F551F661F771FCA
:10367000881F991F0A95B2F7002D089597FD1094A1
:10368000002E083098F00850232F342F452F562F46
:10369000672F782F892F912DF4CF159497958795C3
:1036A0007795679557954795379527950A95AAF782
:1036B0001124002D08952A0D3B1D4C1D5D1D6E1D0E
:1036C0007F1D801F911F08952A193B094C095D0930
:1036D0006E097F09800B910B08950024A7FD0094CB
:1036E0002A173005400550056005700580059005D6
:1036F0000895EE0FFF1F0590F491E02D09945058A6
:10370000BB27AA270E94971B0C94651D0E94571D7A
:1037100038F00E945E1D20F039F49F3F19F426F422
:103720000C94441D0EF4E095E7FB0C943E1DE92F2C
:103730000E94761D58F3BA1762077307840795072E
:1037400020F079F4A6F50C94981D0EF4E0950B2E5C
:10375000BA2FA02D0B01B90190010C01CA01A001E3
:103760001124FF27591B99F0593F50F4503E68F13E
:103770001A16F040A22F232F342F4427585FF3CF7F
:10378000469537952795A795F0405395C9F77EF450
:103790001F16BA0B620B730B840BBAF09150A1F099
:1037A000FF0FBB1F661F771F881FC2F70EC0BA0F1F
:1037B000621F731F841F48F4879577956795B795A7
:1037C000F7959E3F08F0B0CF9395880F08F09927A2
:1037D000EE0F9795879508950E941A1D08F481E0D1
:1037E00008950E94051C0C94651D0E945E1D58F0F2
:1037F0000E94571D40F029F45F3F29F00C943E1DB4
:1038000051110C94991D0C94441D0E94761D68F36F
:103810009923B1F3552391F3951B550BBB27AA2789
:1038200062177307840738F09F5F5F4F220F331FC3
:10383000441FAA1FA9F335D00E2E3AF0E0E832D08B
:1038400091505040E695001CCAF72BD0FE2F29D08E
:10385000660F771F881FBB1F261737074807AB0760
:10386000B0E809F0BB0B802DBF01FF2793585F4FD5
:103870003AF09E3F510578F00C943E1D0C94991D32
:103880005F3FE4F3983ED4F3869577956795B795B7
:10389000F7959F5FC9F7880F911D9695879597F9C2
:1038A0000895E1E0660F771F881FBB1F621773073B
:1038B0008407BA0720F0621B730B840BBA0BEE1F50
:1038C00088F7E09508950E946A1C6894B1110C94E1
:1038D000991D08950E947E1D88F09F5798F0B92F7A
:1038E0009927B751B0F0E1F0660F771F881F991F35
:1038F0001AF0BA95C9F714C0B13091F00E94981D22
:10390000B1E008950C94981D672F782F8827B85F31
:1039100039F0B93FCCF3869577956795B395D9F78C
:103920003EF490958095709561957F4F8F4F9F4F96
:10393000089597FB16F40E94471D0C94DD1CE89433
:1039400009C097FB3EF490958095709561957F4FE7
:103950008F4F9F4F9923A9F0F92F96E9BB27939595
:10396000F695879577956795B795F111F8CFFAF4A5
:10397000BB0F11F460FF1BC06F5F7F4F8F4F9F4FD6
:1039800016C0882311F096E911C0772321F09EE834
:10399000872F762F05C0662371F096E8862F70E09A
:1039A00060E02AF09A95660F771F881FDAF7880F74
:1039B0009695879597F90895E894F92F96EBFF234C
:1039C00081F0121613061406440B9395F69587950D
:1039D0007795679557954040FF23B9F71BC0992706
:1039E0000895882351F49850D2F7872B762F652FAE
:1039F000542F432F322F20E0B1F312161306140672
:103A0000440B88233AF09A95440F551F661F771F81
:103A1000881FCAF755234AF4440F551F11F460FF5D
:103A200004C06F5F7F4F8F4F9F4F880F969587958C
:103A300097F90895990F0008550FAA0BE0E8FEEFDB
:103A400016161706E807F907C0F012161306E40762
:103A5000F50798F0621B730B840B950B39F40A265B
:103A600061F0232B242B252B21F408950A2609F439
:103A7000A140A6958FEF811D811D089597F99F673D
:103A800080E870E060E008959FEF80EC08959095E5
:103A900080957095609550954095309521953F4F54
:103AA0004F4F5F4F6F4F7F4F8F4F9F4F08950024B1
:103AB0000A941616170618060906089500240A9493
:103AC00012161306140605060895092E0394000C19
:103AD00011F4882352F0BB0F40F4BF2B11F460FFA8
:103AE00004C06F5F7F4F8F4F9F4F089557FD9058D1
:103AF000440F551F59F05F3F71F04795880F97FBB2
:103B0000991F61F09F3F79F087950895121613066B
:103B10001406551FF2CF4695F1DF08C0161617069A
:103B20001806991FF1CF86957105610508940895CF
:103B3000E894BB2766277727CB0197F908950E9461
:103B4000B21D0C94651D0E94571D38F00E945E1D29
:103B500020F0952311F00C943E1D0C94441D11246B
:103B60000C94991D0E94761D70F3959FC1F3950FDB
:103B700050E0551F629FF001729FBB27F00DB11DF1
:103B8000639FAA27F00DB11DAA1F649F6627B00D81
:103B9000A11D661F829F2227B00DA11D621F739F6A
:103BA000B00DA11D621F839FA00D611D221F749F78
:103BB0003327A00D611D231F849F600D211D822FBF
:103BC000762F6A2F11249F5750409AF0F1F08823E6
:103BD0004AF0EE0FFF1FBB1F661F771F881F915013
:103BE0005040A9F79E3F510580F00C943E1D0C9467
:103BF000991D5F3FE4F3983ED4F3869577956795DA
:103C0000B795F795E7959F5FC1F7FE2B880F911D3C
:103C10009695879597F908950F931F93CF93DF9308
:103C20008230910510F482E090E0E0916F04F09111
:103C3000700430E020E0B0E0A0E0309799F4211566
:103C4000310509F44AC0281B390B24303105D8F559
:103C50008A819B816115710589F1FB0193838283C0
:103C6000FE0111C04081518102811381481759071B
:103C7000E0F04817590799F4109761F012960C93E9
:103C8000129713961C933296CF01DF91CF911F911B
:103C90000F91089500936F0410937004F4CF2115D1
:103CA000310551F04217530738F0A901DB019A01A1
:103CB000BD01DF01F801C1CFEF01F9CF909370048E
:103CC00080936F04CDCFFE01E20FF31F8193919398
:103CD0002250310939832883D7CF20916D04309148
:103CE0006E04232B41F4209105013091060130939D
:103CF0006E0420936D04209103013091040121157D
:103D0000310541F42DB73EB74091070150910801AC
:103D1000241B350BE0916D04F0916E04E217F3075C
:103D2000A0F42E1B3F0B2817390778F0AC014E5F2B
:103D30005F4F2417350748F04E0F5F1F50936E04F6
:103D400040936D04819391939FCFF0E0E0E09CCF8E
:103D5000CF93DF930097E9F0FC0132971382128230
:103D6000A0916F04B0917004ED0130E020E0109755
:103D7000A1F420813181820F931F20916D04309135
:103D80006E042817390709F061C0F0936E04E093C0
:103D90006D04DF91CF910895EA01CE17DF07E8F5B2
:103DA0004A815B819E0141155105B1F7E901FB8311
:103DB000EA8349915991C40FD51FEC17FD0761F4AF
:103DC000808191810296840F951FE90199838883F0
:103DD000828193819B838A83F0E0E0E012968D914B
:103DE0009C9113970097B9F52D913C911197CD01B6
:103DF0000296820F931F20916D0430916E04281754
:103E0000390739F6309751F51092700410926F040B
:103E1000B0936E04A0936D04BCCFD383C283408162
:103E20005181840F951FC817D90761F44E5F5F4F0A
:103E300088819981480F591F518340838A819B81D2
:103E4000938382832115310509F0B0CFF09370047C
:103E5000E0936F049ECFFD01DC01C0CF138212827C
:103E6000D7CFDC0101C06D9341505040E0F7089579
:103E700010E0C2E6D0E004C0FE010E94791B21964A
:0A3E8000C336D107C9F7F894FFCF4D
:103E8A00100300000071048000000000006410B7F5
:103E9A001DC8206E3BAC30D9269041DC76F4516BBC
:103EAA006B5861B24D3C7105502083B8ED44930FB5
:103EBA00F0E8A3D6D68CB361CBB0C2649BD4D2D37C
:103ECA008678E20AA01CF2BDBD000000005502B5CA
:103EDA0001E201A2021302F101050200000000B88A
:103EEA00058B05E70561058405710562050D0A0064
:0C3EFA0043686970204944204F4B0000D1
:00000001FF
